:020000040800F2
:1000000000000220F51A0008E1060008E3060008D7
:10001000E5060008E7060008E90600080000000001
:10002000000000000000000000000000EB060008D7
:10003000ED06000800000000EF060008F1060008C9
:10004000451B0008451B0008451B0008451B000810
:10005000451B0008451B0008451B0008451B000800
:10006000451B0008451B0008451B0008451B0008F0
:10007000451B0008451B0008451B0008451B0008E0
:10008000451B0008451B0008451B0008451B0008D0
:10009000451B0008451B0008451B0008451B0008C0
:1000A000451B0008451B0008451B0008451B0008B0
:1000B000451B0008451B0008451B0008451B0008A0
:1000C000451B0008451B0008451B0008451B000890
:1000D000451B0008451B0008451B0008451B000880
:1000E000451B0008451B0008451B0008451B000870
:1000F000451B0008451B0008451B0008451B000860
:10010000451B0008451B0008451B0008451B00084F
:10011000451B0008451B0008451B0008451B00083F
:10012000451B0008451B0008451B0008451B00082F
:10013000451B0008451B0008451B0008451B00081F
:10014000451B0008451B0008451B0008451B00080F
:10015000451B0008451B0008451B0008451B0008FF
:10016000451B0008451B0008451B0008451B0008EF
:10017000451B0008451B0008451B00080000000047
:08018000451B0008451B0008A7
:1001880010B5054C237833B9044B13B10448AFF3C9
:1001980000800123237010BD0C0000200000000027
:1001A800A01B000808B5034B1BB103490348AFF374
:1001B800008008BD0000000010000020A01B0008FF
:1001C80053B94AB9002908BF00281CBF4FF0FF31B6
:1001D8004FF0FF3000F06AB9ADF1080C6DE904CEBC
:1001E80000F006F8DDF804E0DDE9022304B070470A
:1001F8002DE9F047089D0C46002B4ED194468C45BE
:100208008646B2FA82F262D94AB1C2F1200391401D
:1002180020FA03F30CFA02FC194300FA02FE4FEA33
:100228001C471FFA8CF6B1FBF7F44FEA1E4307FB95
:10023800141143EA014304FB06F199420AD91CEB65
:10024800030304F1FF3080F01281994240F20F81DC
:10025800023C6344591A1FFA8EF3B1FBF7F007FB0F
:10026800101143EA014300FB06F69E420AD91CEB33
:10027800030300F1FF3180F0FC809E4240F2F980D8
:10028800634402389B1B40EA044000211DB1D3405F
:100298000022C5E90032BDE8F0878B4205D90DB1CF
:1002A800C5E9000100210846F5E7B3FA83F1002902
:1002B80046D1A34202D39042C0F0F080861A64EB84
:1002C80003030120002DE6D0C5E90063E3E7002A17
:1002D80040F09080A1EB0C044FEA1C481FFA8CF701
:1002E8000121B4FBF8F64FEA1E4308FB164443EA23
:1002F800044307FB06F0984208D91CEB030306F1F8
:10030800FF3402D2984200F2CD8026461C1A1FFA0A
:100318008EF3B4FBF8F008FB104443EA044300FBF7
:1003280007F79F4208D91CEB030300F1FF3402D200
:100338009F4200F2B0802046DB1B40EA0640A5E75A
:10034800C1F120068B4022FA06F71F4320FA06FC6B
:1003580004FA01F343EA0C03F44000FA01F8380CFC
:100368004FEA1349B4FBF0FE1FFA87FC00FB1E445A
:1003780049EA04440EFB0CF9A14502FA01F20AD934
:100388003C190EF1FF3A80F08480A14540F281804B
:10039800AEF1020E3C44A4EB09041FFA83F9B4FB46
:1003A800F0F300FB134449EA044403FB0CFCA445A6
:1003B80007D93C1903F1FF3067D2A44565D9023B40
:1003C8003C4443EA0E40A0FB0293A4EB0C049C427D
:1003D800CE469C4651D34ED055B1B8EB0E0364EBD4
:1003E8000C0404FA06F6CB401E43CC40C5E9006471
:1003F800002150E7C2F1200320FA03F10CFA02FCB5
:1004080024FA03F394400C434FEA1C4800FA02FE16
:100418001FFA8CF7B3FBF8F008FB1031230C43EA02
:10042800014300FB07F1994208D91CEB030300F1D3
:10043800FF362CD299422AD9023863445B1AA4B2F7
:10044800B3FBF8F108FB113344EA034401FB07F35B
:10045800A34208D91CEB040401F1FF3613D2A342CE
:1004680011D902396444E41A41EA004139E70446E3
:10047800F0E6084606E7C845AED2B9EB020E63EBD4
:10048800070C0138A8E73146EDE7034699E73046FF
:10049800D4E7D6467FE7634402384DE7064623464D
:1004A80008460FE7023E634430E700BF704700BFCD
:1004B80030B589B0002403940494059406940794F5
:1004C8000094184B1A6B42F080021A631A6B02F000
:1004D80080020092009A01941A6B42F004021A6397
:1004E8001A6B02F004020192019A02941A6B42F00C
:1004F80001021A631B6B03F001030293029B0A4D6E
:1005080022460821284601F001F808230393012315
:1005180004930594069403A9284600F001FF09B046
:1005280030BD00BF003802400008024072B6FEE746
:1005380000B585B0002300930193029303931348F9
:10054800134A02604360836003610122027680F8E7
:100558002030C3620F498162C360C26180F83030C5
:10056800426100F0C5F960B90123009301930023AB
:1005780002936946054800F009FB20B905B05DF80B
:1005880004FBFFF7D3FFFFF7D1FF00BF7400002083
:10059800002001400100000F00B587B0002302933E
:1005A8000393049305930093019314484FF08042FA
:1005B80002604722426083604FF6FF72C2600361A7
:1005C800836101F015F990B94FF48053029302A9A1
:1005D8000A4801F046F960B900230093019369467F
:1005E800064801F0BDF930B907B05DF804FBFFF724
:1005F8009DFFFFF79BFFFFF799FF00BF2C0000202E
:1006080000B595B03022002108A801F098FA00231F
:100618000393049305930693079301931E4A116C61
:1006280041F080511164126C02F080520192019ADB
:1006380002931A4A116841F480411160126802F469
:1006480080420292029A0222089201210B91102103
:100658000C910E920F930823109348231193129232
:100668000423139308A800F05BFB80B90F230393BE
:1006780002210491002305934FF4805206920793B8
:1006880003A800F09DFD20B915B05DF804FBFFF745
:100698004DFFFFF74BFF00BF0038024000700040DD
:1006A80008B500F0C9FFFFF7ABFFFFF701FFFFF741
:1006B8003FFFFFF771FF4FF47A7000F0E9FF01F098
:1006C80003FA044B83ED000A4FF47A7000F0E0FF60
:1006D800F1E700BF28000020FEE7FEE7FEE7FEE79F
:1006E800FEE770477047704708B500F0BFFF08BDC8
:1006F80082B0002100910B4B5A6C42F480425A643C
:100708005A6C02F480420092009A01911A6C42F0ED
:1007180080521A641B6C03F080530193019B02B052
:10072800704700BF0038024000B589B0002303932A
:100738000493059306930793026803F1804303F536
:1007480090339A4202D009B05DF804FB0021019170
:1007580003F58C335A6C42F480725A645A6C02F472
:1007680080720192019A02911A6B42F001021A6397
:100778001B6B03F001030293029B022303930323E1
:10078800049303A9014800F0CBFDDCE70000024018
:100798000368B3F1804F00D0704782B00023019303
:1007A800054B1A6C42F001021A641B6C03F001033A
:1007B8000193019B02B07047003802404A4B5A68C7
:1007C80022F440325A605A6841680A435A60026803
:1007D800536823F48073536002685368016943EADD
:1007E800012353600268536823F040735360026822
:1007F800536881680B4353600268936823F400636D
:10080800936002689368C1680B439360826A374BB0
:100818009A4257D00268936823F070639360026825
:100828009368816A0B4393600268936823F040538E
:10083800936002689368C16A0B4393600268936887
:1008480023F00203936002689368017E43EA410340
:10085800936090F82030002B3FD00268536843F42F
:10086800006353600268536823F46043536001686F
:100878004B68426A013A43EA42334B600268D36AE2
:1008880023F47003D3620168CB6AC269013A43EA70
:100898000253CB620268936823F400739360026882
:1008A800936890F8301043EA412393600268936894
:1008B80023F48063936002689368416943EA812363
:1008C800936070470268936823F0706393600268CE
:1008D800936823F040539360B0E70268536823F4A9
:1008E80000635360CAE700BF002301400100000F06
:1008F80038B310B50446036C43B1236C13F0100FE2
:100908000BD00120002384F83C3010BDFFF70CFF0A
:100918000023636484F83C30EFE7236C23F48853A6
:1009280023F0020343F0020323642046FFF746FF47
:1009380000206064236C23F0030343F00103236465
:10094800E0E701207047000082B00023019390F88F
:100958003C30012B00F08980012380F83C3003688B
:100968009A6812F0010F13D19A6842F001029A6056
:10097800414B1B68414AA2FB03239B0C03EB430337
:10098800019302E0019B013B0193019B002BF9D1EC
:100998000268936813F0010F5CD0036C23F4E063E2
:1009A80023F0010343F480730364536813F4806FE6
:1009B80005D0036C23F4405343F480530364036C61
:1009C80013F4805F1BD0436C23F0060343640023B9
:1009D80080F83C306FF022031360294B5B6813F0FA
:1009E8001F0F27D10368274A934211D002F580725E
:1009F800934207D0244A934214D0002033E00023C6
:100A08004364E4E702F50072526812F01F0FF1D157
:100A18009A6812F0405F2AD19A6842F080429A6040
:100A2800002020E002F58072526812F0100FEFD01B
:100A3800002018E00368134A934201D0002012E016
:100A48009A6812F0405F14D19A6842F080429A6026
:100A5800002008E0036C43F010030364436C43F088
:100A680001034364002002B070470220FBE7002026
:100A7800F9E70020F7E700BF0800002083DE1B43EA
:100A880000230140002001400022014090F83C3042
:100A9800012B19D0012380F83C300268936823F0B9
:100AA8000103936003689B6813F0010F07D1036C7F
:100AB80023F4885323F0010343F001030364002364
:100AC80080F83C30184670470220704770B50446DD
:100AD8000D4603689A6812F4806F03D09B6813F47C
:100AE800807F19D100F0CEFD064623681A6812F0FF
:100AF800020F20D1B5F1FF3FF7D0B5B923681B68C5
:100B080013F0020FF1D1236C43F004032364002394
:100B180084F83C30032032E0036C43F02003036484
:100B2800002380F83C30012029E000F0ABFD801B59
:100B3800A842DAD9E2E76FF012021A60236C43F494
:100B48000073236423689A6812F0405F16D1207EF0
:100B5800B0B9DA6A12F4700F03D09B6813F4806F8F
:100B68000DD1236C23F480732364236C13F4805F0A
:100B780005D1236C43F00103236400E0002070BD1D
:100B88000020FCE70368D86C7047000030B482B0DE
:100B98000022019290F83C20012A00F0B68003461A
:100BA800012280F83C200A68092A40D90468E068D4
:100BB80092B202EB42021E3A4FF0070C0CFA02F214
:100BC80020EA0202E2601C68E0680A8802EB42023E
:100BD8001E3A8D6805FA02F20243E2604A68062A64
:100BE8003CD81C68606B02EB8202053A4FF01F0C80
:100BF8000CFA02F220EA020262631C68606B4A681F
:100C080002EB8202053AB1F800C00CFA02F2024384
:100C1800626318683E4A904250D018683C4A904235
:100C280055D0002083F83C0002B030BC70470468FF
:100C3800206992B202EB42024FF0070C0CFA02F262
:100C480020EA020222611C6820690A8802EB42023B
:100C58008D6805FA02F202432261BFE70C2A16D812
:100C68001D68286B02EB8202233A1F2404FA02F261
:100C780020EA02022A631D68286B4A6802EB820296
:100C8800233A0C8804FA02F202432A63C1E71D687A
:100C9800E86A02EB8202413A1F2404FA02F220EACF
:100CA8000202EA621D68E86A4A6802EB8202413A77
:100CB8000C8804FA02F20243EA62AAE70A68122AD6
:100CC800ABD11448426842F480024260A5E70A6842
:100CD800103A012AA5D80F48426842F4000242603F
:100CE8000A68102A9DD10C4A12680C49A1FB02120D
:100CF800920C02EB82025200019202E0019A013A40
:100D08000192019A002AF9D18BE702208CE700BFF3
:100D180000200140002301400800002083DE1B431F
:100D2800002800F0E08170B582B00446036813F033
:100D3800010F3BD09F4B9B6803F00C03042B2CD076
:100D48009C4B9B6803F00C03082B21D06368B3F518
:100D5800803F4FD0B3F5A02F52D0964B1A6822F49B
:100D680080321A601A6822F480221A606368002BA5
:100D780050D000F087FC05468E4B1B6813F4003FEB
:100D880014D100F07FFC401B6428F5D90320B1E1A1
:100D9800884B5B6813F4800FD8D0864B1B6813F41C
:100DA800003F03D06368002B00F09F81236813F095
:100DB800020F54D07F4B9B6813F00C0F3ED07D4B35
:100DC8009B6803F00C03082B33D0E368002B68D032
:100DD800794B01221A6000F055FC0546754B1B68DB
:100DE80013F0020F54D100F04DFC401B0228F5D936
:100DF80003207FE16F4A136843F480331360B5E73B
:100E08006C4B1A6842F480221A601A6842F48032E5
:100E18001A60ABE700F036FC0546664B1B6813F416
:100E2800003FC3D000F02EFC401B6428F5D90320F6
:100E380060E1604B5B6813F4800FC6D15D4B1B68A3
:100E480013F0020F03D0E368012B40F05081594A98
:100E5800136823F0F803216943EAC1031360236888
:100E680013F0080F42D063696BB3534B0122C3F8E8
:100E7800802E00F007FC05464E4B5B6F13F0020F07
:100E880034D100F0FFFB401B0228F5D9032031E1E3
:100E9800484A136823F0F803216943EAC103136041
:100EA800DDE7454B00221A6000F0ECFB0546414B9C
:100EB8001B6813F0020FD2D000F0E4FB401B02289D
:100EC800F5D9032016E13C4B0022C3F8802E00F030
:100ED800D9FB0546374B5B6F13F0020F06D000F0C5
:100EE800D1FB401B0228F5D9032003E1236813F046
:100EF800040F77D02F4B1B6C13F0805F33D1002386
:100F080001932C4B1A6C42F080521A641B6C03F04C
:100F180080530193019B0125284B1B6813F4807FA4
:100F280023D0A368012B34D0052B38D0214B1A6F5E
:100F380022F001021A671A6F22F004021A67A368E6
:100F4800002B3DD000F09EFB06461A4B1B6F13F09A
:100F5800020F46D100F096FB801B41F2883398427D
:100F6800F3D90320C6E00025D6E7144A136843F4F2
:100F78008073136000F086FB0646104B1B6813F461
:100F8800807FCED100F07EFB801B0228F5D903209C
:100F9800B0E0084A136F43F001031367CFE7054B2E
:100FA8001A6F42F004021A671A6F42F001021A67B8
:100FB800C5E700BF0038024000004742007000400B
:100FC80000F060FB0646524B1B6F13F0020F08D06F
:100FD80000F058FB801B41F288339842F3D9032074
:100FE80088E0EDB9A369002B00F08380484A926835
:100FF80002F00C02082A51D0022B17D0454B0022D0
:101008001A6600F03FFB0446414B1B6813F0007F53
:1010180042D000F037FB001B0228F5D9032069E015
:101028003B4A136C23F080531364DBE7394B0022EF
:101038001A6600F027FB0546354B1B6813F0007F46
:1010480006D000F01FFB401B0228F5D9032051E011
:10105800E369226A1343626A43EA8213A26A520866
:10106800013A43EA0243E26A43EA0263284A5360C8
:10107800284B01221A6600F005FB0446244B1B6826
:1010880013F0007F06D100F0FDFA001B0228F5D905
:1010980003202FE000202DE000202BE0012B2BD097
:1010A8001B4B5B6803F48001E269914226D103F08F
:1010B8003F02216A8A4223D1616A47F6C0721A4008
:1010C800B2EB811F1ED103F44031A26A5208013AE3
:1010D800B1EB024F18D103F07063E26AB3EB026F11
:1010E80014D1002006E001207047012002E0012011
:1010F80000E0002002B070BD0120FBE70120F9E705
:101108000120F7E70120F5E70120F3E70120F1E7E7
:10111800003802400000474208B5264B9B6803F0A0
:101128000C03042B41D0082B41D1224B5A6802F002
:101138003F025B6813F4800F12D01E4B5968C1F34D
:1011480088111D480023A1FB0001FFF739F8194B4E
:101158005B68C3F3014301335B00B0FBF3F027E0A6
:10116800144B5868C0F388104FEA401CBCEB000CC5
:101178006EEB0E0E4FEA8E1343EA9C634FEA8C1116
:10118800B1EB0C0163EB0E03DB0043EA5173C900BA
:1011980011EB000C43F10003990200234FEA8C2065
:1011A80041EA9C51FFF70CF8D1E7034800E00348F7
:1011B80008BD00BF0038024040787D010024F400DB
:1011C800002800F09B8070B50D4604464F4B1B6805
:1011D80003F007038B4208D2CBB24C4A1370136852
:1011E80003F007038B4240F08B80236813F0020F53
:1011F80017D013F0040F04D0454A936843F4E05322
:101208009360236813F0080F04D0414A936843F4AD
:10121800604393603E4A936823F0F003A1680B4350
:101228009360236813F0010F32D06368012B21D03B
:101238009A1E012A25D9364A126812F0020F61D087
:1012480033498A6822F0030213438B6000F01AFACC
:1012580006462F4B9B6803F00C036268B3EB820FC2
:1012680016D000F00FFA801B41F288339842F0D96B
:10127800032042E0264A126812F4003FE0D1012020
:101288003BE0234A126812F0007FD9D1012034E0F4
:101298001E4B1B6803F00703AB4207D9EAB21B4B8E
:1012A8001A701B6803F00703AB422DD1236813F0B3
:1012B800040F06D0164A936823F4E053E1680B4301
:1012C8009360236813F0080F07D0114A936823F43A
:1012D8006043216943EAC1039360FFF71DFF0C4B8C
:1012E8009B68C3F303130B4AD35CD8400A4B1860BE
:1012F8000A4B186800F07AF9002070BD0120704789
:101308000120FAE70120F8E70120F6E7003C024057
:1013180000380240B81B0008080000200400002024
:1013280000230F2B00F2E98070B582B065E0856874
:101338004FEA430E032404FA0EF425EA0405CC68A8
:1013480004FA0EF42C438460446824EA02044A68D0
:10135800C2F300129A40224342605CE0DC08083481
:1013680050F8242003F00705AD004FF00F0E0EFAD9
:1013780005FE22EA0E0E0A69AA4042EA0E0240F869
:1013880024205CE0072200E0002202FA0EF22A4341
:1013980002345A4D45F82420594A94686FEA0C02E1
:1013A80024EA0C054E6816F4801F01D04CEA0405A7
:1013B800534CA560E46802EA04054E6816F4001F61
:1013C80001D04CEA04054E4CE560646802EA040565
:1013D8004E6816F4003F01D04CEA0405484C65609D
:1013E800246822404D6815F4803F01D04CEA04027D
:1013F800434C226001330F2B7DD801229A400C68A0
:1014080004EA020C32EA0404F4D14C6804F0030440
:10141800013C012C8BD94A6802F00302032A09D047
:10142800C4685D000322AA4024EA02048A68AA402C
:101438002243C2604A6802F00302022A8ED004687E
:101448004FEA430E032202FA0EF224EA02044A6823
:1014580002F0030202FA0EF2224302604A6812F412
:10146800403FC7D000220192264A546C44F480447D
:101478005464526C02F480420192019A9C08A51CA3
:101488001E4A52F8255003F0030E4FEA8E0E0F2223
:1014980002FA0EF225EA02051B4A90423FF474AFA5
:1014A80002F5806290421AD002F58062904218D00C
:1014B80002F58062904216D002F58062904214D004
:1014C80002F58062904212D002F58062904210D0FC
:1014D80002F5806290423FF455AF082255E7012299
:1014E80053E7022251E703224FE704224DE7052282
:1014F8004BE7062249E702B070BD7047003801404B
:10150800003C014000380240000002400AB18161FD
:101518007047090481617047002808DB0901C9B2D6
:1015280000F1604000F5614080F80013704700F05A
:101538000F000901C9B2014B1954704714ED00E0BE
:1015480000B500F00700C0F1070CBCF1040F28BF7C
:101558004FF0040C031D062B0FD9C31E4FF0FF3E9E
:101568000EFA0CF021EA000199400EFA03FE22EA75
:101578000E0241EA02005DF804FB0023EEE70000DA
:10158800074AD36823F4E0631B041B0C000200F431
:10159800E060034343F0BF6343F40033D360704714
:1015A80000ED00E010B50446054BD868C0F30220F2
:1015B800FFF7C6FF01462046FFF7AEFF10BD00BF8C
:1015C80000ED00E00138B0F1807F0BD24FF0E0234E
:1015D8005861054AF02182F82310002098610722FB
:1015E8001A6170470120704700ED00E010B504460D
:1015F8000E4B1A784FF47A73B3FBF2F30C4A106867
:10160800B0FBF3F0FFF7DEFF68B90F2C01D901201A
:101618000AE0002221464FF0FF30FFF7C3FF054BD9
:101628001C60002000E0012010BD00BF0000002069
:10163800080000200400002008B50B4B1A6842F48B
:1016480000721A601A6842F480621A601A6842F4DA
:1016580080721A600320FFF793FF0F20FFF7C6FF81
:10166800FFF746F8002008BD003C0240034A116815
:10167800034B1B780B441360704700BFBC0000206D
:1016880000000020014B1868704700BFBC00002014
:1016980038B50446FFF7F6FF0546B4F1FF3F02D020
:1016A800044B1B781C44FFF7EDFF401BA042FAD304
:1016B80038BD00BF0000002010B4036A046A24F09B
:1016C80001040462846924F0F00C4CEA021223F04D
:1016D8000A030B43826103625DF8044B704710B440
:1016E800036A046A24F010040462846924F4704CC8
:1016F8004CEA023223F0A00343EA01138261036239
:101708005DF8044B7047836823F070030B4343F084
:1017180007038360704700000368344A904212D080
:10172800B0F1804F0FD0A2F57C4290420BD002F569
:101738008062904207D002F58062904203D002F5A1
:101748007842904203D123F070034A681343274A32
:1017580090422AD0B0F1804F27D0A2F57C42904227
:1017680023D002F5806290421FD002F58062904239
:101778001BD002F57842904217D002F57052904281
:1017880013D002F5806290420FD002F58062904239
:101798000BD0A2F59832904207D002F580629042B1
:1017A80003D002F58062904203D123F44073CA68E3
:1017B800134323F080034A69134303608B68C362B1
:1017C8000B688362094B984203D003F58063984203
:1017D80001D10B69036301234361036913F0010F0E
:1017E80003D0036923F0010303617047000001403F
:1017F80040B310B5044690F83D30F3B1022384F8A5
:101808003D30214651F8040BFFF786FF012384F889
:10181800463084F83E3084F83F3084F8403084F80D
:10182800413084F8423084F8433084F8443084F8F6
:10183800453084F83D30002010BD80F83C30FEF77C
:10184800A7FFDBE70120704710B4846824F47F4CBD
:1018580042EA03220A4342EA0C0282605DF8044B22
:10186800704790F83C30012B78D010B5044601231E
:1018780080F83C30022380F83D300268936823F4F6
:101888007F4323F0770393600B68602B4CD029D8F3
:10189800402B54D00CD9502B22D1CA684968006813
:1018A800FFF70AFF50212068FFF72DFF002005E011
:1018B800202B0DD009D9302B0AD00120012384F820
:1018C8003D30002384F83C3010BD0BB1102B05D1FE
:1018D80019462068FFF717FF0020EFE70120EDE722
:1018E8000120EBE7B3F5805F34D0B3F5005F0CD18E
:1018F800CB684A6889680068FFF7A6FF2268936882
:1019080043F4804393600020D8E7702B24D1CB6840
:101918004A6889680068FFF797FF2268936843F070
:10192800770393600020C9E7CA6849680068FFF731
:10193800D6FE60212068FFF7E6FE0020BEE7CA68F1
:1019480049680068FFF7B8FE40212068FFF7DBFE12
:101958000020B3E70020B1E70120AFE7022070477D
:1019680090F83C20012A3DD010B40346012280F8AB
:101978003C20022280F83D2002685068946820F0DC
:10198800700C086840EA0C0050601A6816488242D9
:101998001AD0B2F1804F17D0A0F57C40824213D004
:1019A80000F5806082420FD000F5806082420BD043
:1019B80000F57840824207D000F57050824203D08B
:1019C800A0F59430824204D124F080044968214370
:1019D8009160012283F83D20002083F83C005DF8E7
:1019E800044B70470220704700000140034AD2F8B8
:1019F800883043F47003C2F88830704700ED00E087
:101A0800034B1A6800235362536A8342FCD8704719
:101A18002C00002010B5012208211348FFF776FD9D
:101A28004FF48C70FFF7ECFF104C2046FEF78CFF4C
:101A380064212046FFF74AF888B100240B48FFF7D5
:101A480025F8002208210848FFF760FD2820FFF745
:101A5800D7FF42F2D050FFF7D3FF204610BD2046F3
:101A6800FFF790F80446E9E70008024074000020F8
:101A780007EE900AF8EE677A9FED020A27EE800AD1
:101A8800704700BF6740533ADFED0C7A20EE270A13
:101A9800DFED0B7A30EE670AB5EEC00AF1EE10FA08
:101AA80009D4F6EE007AB4EEE70AF1EE10FA01DD99
:101AB800B0EE670A70479FED030AF2E7C520303E93
:101AC800CDCCCC3D0000000008B5FFF7A3FFFFF721
:101AD800CFFF044B83ED000AFFF7D6FF024B83EDDF
:101AE800000A08BDC4000020C0000020DFF834D080
:101AF800FFF77CFF0C480D490D4A002302E0D4583B
:101B0800C4500433C4188C42F9D30A4A0A4C00233F
:101B180001E013600432A242FBD300F019F8FEF78B
:101B2800BFFD704700000220000000200C000020CC
:101B3800D81B00080C000020C8000020FEE7024463
:101B48000346934200D1704703F8011BF9E70000F0
:101B580070B50D4D0D4C641BA4100026A64209D18A
:101B68000B4D0C4C00F018F8641BA4100026A6427C
:101B780005D170BD55F8043B98470136EEE755F896
:101B8800043B98470136F2E7D01B0008D01B000839
:101B9800D01B0008D41B0008F8B500BFF8BC08BC6F
:101BA8009E467047F8B500BFF8BC08BC9E46704713
:101BB80000000000000000000102030406070809F5
:081BC80030E6FF7F0100000080
:041BD000AD0100085B
:041BD400890100087B
:0C1BD80001000000100000000024F400D8
:0400000508001AF5E0
:00000001FF
