:020000040800F2
:1000000000000220093E0008BD100008BF100008D3
:10001000C1100008C3100008C5100008000000004F
:10002000000000000000000000000000C7100008F1
:10003000C910000800000000CB100008CD10000817
:10004000593E0008593E0008593E0008593E000834
:10005000593E0008593E0008593E0008593E000824
:10006000593E0008593E0008593E0008593E000814
:10007000593E0008593E0008593E0008593E000804
:10008000593E0008593E0008593E0008593E0008F4
:10009000593E0008593E0008593E0008593E0008E4
:1000A000593E0008593E0008593E0008593E0008D4
:1000B000593E0008593E0008593E0008593E0008C4
:1000C000593E0008593E0008593E0008593E0008B4
:1000D000593E0008593E0008593E0008593E0008A4
:1000E000593E0008593E0008593E0008593E000894
:1000F000593E0008593E0008593E0008593E000884
:10010000593E0008593E0008593E0008593E000873
:10011000593E0008593E0008593E0008593E000863
:10012000593E0008593E0008593E0008593E000853
:10013000593E0008593E0008593E0008593E000843
:10014000593E0008593E0008593E0008593E000833
:10015000593E0008593E0008593E0008593E000823
:10016000593E0008593E0008593E0008593E000813
:10017000593E0008593E0008593E000800000000A2
:08018000593E0008593E000839
:1001880010B5054C237833B9044B13B10448AFF3C9
:1001980000800123237010BD4800002000000000EB
:1001A800B43E000808B5034B1BB103490348AFF33D
:1001B800008008BD000000004C000020B43E00088C
:1001C80081F0004102E000BF83F0004330B54FEA00
:1001D80041044FEA430594EA050F08BF90EA020F6D
:1001E8001FBF54EA000C55EA020C7FEA645C7FEA00
:1001F800655C00F0E2804FEA5454D4EB5555B8BF23
:100208006D420CDD2C4480EA020281EA030382EA93
:10021800000083EA010180EA020281EA0303362D25
:1002280088BF30BD11F0004F4FEA01314FF4801CF8
:100238004CEA113102D0404261EB410113F0004F0A
:100248004FEA03334CEA133302D0524263EB4303C1
:1002580094EA050F00F0A780A4F10104D5F1200E5F
:100268000DDB02FA0EFC22FA05F2801841F10001BA
:1002780003FA0EF2801843FA05F359410EE0A5F18E
:1002880020050EF1200E012A03FA0EFC28BF4CF0BF
:10029800020C43FA05F3C01851EBE37101F0004575
:1002A80007D54FF0000EDCF1000C7EEB00006EEB82
:1002B8000101B1F5801F1BD3B1F5001F0CD349080C
:1002C8005FEA30004FEA3C0C04F101044FEA445263
:1002D80012F5800F80F09A80BCF1004F08BF5FEAEA
:1002E800500C50F1000041EB045141EA050130BDCA
:1002F8005FEA4C0C404141EB0101013C28BFB1F5DC
:10030800801FE9D291F0000F04BF01460020B1FA26
:1003180081F308BF2033A3F10B03B3F120020CDAF9
:100328000C3208DD02F1140CC2F10C0201FA0CF0D7
:1003380021FA02F10CE002F11402D8BFC2F1200C3C
:1003480001FA02F120FA0CFCDCBF41EA0C019040F2
:10035800E41AA2BF01EB0451294330BD6FEA04043B
:100368001F3C1CDA0C340EDC04F11404C4F1200226
:1003780020FA04F001FA02F340EA030021FA04F338
:1003880045EA030130BDC4F10C04C4F1200220FA8F
:1003980002F001FA04F340EA0300294630BD21FACD
:1003A80004F0294630BD94F0000F83F4801306BF93
:1003B80081F480110134013D4EE77FEA645C18BF87
:1003C8007FEA655C29D094EA050F08BF90EA020F1E
:1003D80005D054EA000C04BF1946104630BD91EA16
:1003E800030F1EBF0021002030BD5FEA545C05D119
:1003F8004000494128BF41F0004130BD14F5800458
:100408003CBF01F5801130BD01F0004545F0FE41CB
:1004180041F470014FF0000030BD7FEA645C1ABF00
:10042800194610467FEA655C1CBF0B46024650EA37
:10043800013406BF52EA033591EA030F41F4002163
:1004480030BD00BF90F0000F04BF0021704730B5E9
:100458004FF4806404F132044FF000054FF00001BE
:1004680050E700BF90F0000F04BF0021704730B57F
:100478004FF4806404F1320410F0004548BF404254
:100488004FF000013EE700BF42004FEAE2014FEAA9
:1004980031014FEA02701FBF12F07F4393F07F4F84
:1004A80081F06051704732F07F4208BF704793F087
:1004B8007F4F04BF41F40021704730B54FF460749A
:1004C80001F0004521F000411CE700BF50EA01029D
:1004D80008BF704730B54FF000050AE050EA010246
:1004E80008BF704730B511F0004502D5404261EBB6
:1004F80041014FF4806404F132045FEA915C3FF4F7
:10050800D8AE4FF003025FEADC0C18BF03325FEA93
:10051800DC0C18BF033202EBDC02C2F1200300FA44
:1005280003FC20FA02F001FA03FE40EA0E0021FA69
:1005380002F11444BDE600BF70B54FF0FF0C4CF457
:10054800E06C1CEA11541DBF1CEA135594EA0C0F09
:1005580095EA0C0F00F0DEF82C4481EA030621EA44
:100568004C5123EA4C5350EA013518BF52EA03357F
:1005780041F4801143F4801338D0A0FB02CE4FF031
:100588000005E1FB02E506F00042E0FB03E54FF061
:100598000006E1FB03569CF0000F18BF4EF0010E59
:1005A800A4F1FF04B6F5007F64F5407404D25FEA55
:1005B8004E0E6D4146EB060642EAC62141EA555108
:1005C8004FEAC52040EA5E504FEACE2EB4F1FD0C4A
:1005D80088BFBCF5E06F1ED8BEF1004F08BF5FEAC8
:1005E800500E50F1000041EB045170BD06F000467A
:1005F80046EA010140EA020081EA0301B4EB5C0427
:10060800C2BFD4EB0C0541EA045170BD41F480111E
:100618004FF0000E013C00F3AB8014F1360FDEBF43
:10062800002001F0004170BDC4F10004203C35DA1F
:100638000C341BDC04F11404C4F1200500FA05F3A2
:1006480020FA04F001FA05F240EA020001F0004243
:1006580021F0004110EBD37021FA04F642EB0601B9
:100668005EEA430E08BF20EAD37070BDC4F10C04E3
:10067800C4F1200500FA04F320FA05F001FA04F2A7
:1006880040EA020001F0004110EBD37041F1000193
:100698005EEA430E08BF20EAD37070BDC4F120059E
:1006A80000FA05F24EEA020E20FA04F301FA05F206
:1006B80043EA020321FA04F001F0004121FA04F2AE
:1006C80020EA020000EBD3705EEA430E08BF20EA7E
:1006D800D37070BD94F0000F0FD101F000464000B8
:1006E80041EB010111F4801F08BF013CF7D041EA3A
:1006F800060195F0000F18BF704703F0004652003E
:1007080043EB030313F4801F08BF013DF7D043EA0E
:100718000603704794EA0C0F0CEA135518BF95EAC4
:100728000C0F0CD050EA410618BF52EA4306D1D14B
:1007380081EA030101F000414FF0000070BD50EA6A
:10074800410606BF1046194652EA430619D094EAF4
:100758000C0F02D150EA013613D195EA0C0F05D1DE
:1007680052EA03361CBF104619460AD181EA030132
:1007780001F0004141F0FE4141F470014FF00000EA
:1007880070BD41F0FE4141F4780170BD70B54FF085
:10079800FF0C4CF4E06C1CEA11541DBF1CEA135505
:1007A80094EA0C0F95EA0C0F00F0A7F8A4EB0504E7
:1007B80081EA030E52EA03354FEA013100F08880DE
:1007C8004FEA03334FF0805545EA131343EA1263A7
:1007D8004FEA022245EA111545EA10654FEA00265C
:1007E8000EF000419D4208BF964244F1FD0404F515
:1007F800407402D25B084FEA3202B61A65EB030571
:100808005B084FEA32024FF480104FF4002CB6EB2D
:10081800020E75EB030E22BFB61A754640EA0C00AD
:100828005B084FEA3202B6EB020E75EB030E22BFED
:10083800B61A754640EA5C005B084FEA3202B6EB2E
:10084800020E75EB030E22BFB61A754640EA9C00ED
:100858005B084FEA3202B6EB020E75EB030E22BFBD
:10086800B61A754640EADC0055EA060E18D04FEA7B
:10087800051545EA16754FEA06164FEAC30343EA1B
:1008880052734FEAC2025FEA1C1CC0D111F4801FE8
:100898000BD141EA00014FF000004FF0004CB6E7E1
:1008A80011F4801F04BF01430020B4F1FD0C88BF80
:1008B800BCF5E06F3FF6AFAEB5EB030C04BFB6EB8B
:1008C800020C5FEA500C50F1000041EB045170BD7E
:1008D8000EF0004E4EEA113114EB5C04C2BFD4EBAB
:1008E8000C0541EA045170BD41F480114FF0000E2F
:1008F800013C90E645EA060E8DE60CEA135594EAAB
:100908000C0F08BF95EA0C0F3FF43BAF94EA0C0FAD
:100918000AD150EA01347FF434AF95EA0C0F7FF422
:1009280025AF104619462CE795EA0C0F06D152EA76
:1009380003353FF4FDAE1046194622E750EA41065A
:1009480018BF52EA43067FF4C5AE50EA41047FF46B
:100958000DAF52EA43057FF4EBAE12E74FEA4102CE
:10096800B2F1E04324BFB3F5001CDCF1FE5C0DD905
:1009780001F0004C4FEAC0024CEA5070B2F1004F4F
:1009880040EB830008BF20F00100704711F0804F52
:1009980021D113F13872BCBF01F00040704741F417
:1009A80080114FEA5252C2F11802C2F1200C10FA1B
:1009B8000CF320FA02F018BF40F001004FEAC123FF
:1009C8004FEAD32303FA0CFC40EA0C0023FA02F3A3
:1009D8004FEA4303CCE77FEA625307D150EA013379
:1009E8001EBF4FF0FE4040F44000704701F0004049
:1009F80040F0FE4040F40000704700BF7BB972B978
:100A08000029BEBF00204FF0004106E008BF0028C3
:100A18001CBF6FF000414FF0FF3000F0B5B9ADF1E9
:100A2800080C6DE904CE002909DB002B1ADB00F065
:100A38004DF8DDF804E0DDE9022304B070474042D8
:100A480061EB4101002B1BDB00F040F8DDF804E00E
:100A5800DDE9022304B0404261EB4101524263EBFD
:100A680043037047524263EB430300F02FF8DDF86D
:100A780004E0DDE9022304B0404261EB4101704724
:100A8800524263EB430300F021F8DDF804E0DDE9AE
:100A9800022304B0524263EB4303704753B94AB987
:100AA800002908BF00281CBF4FF0FF314FF0FF306E
:100AB80000F06AB9ADF1080C6DE904CE00F006F853
:100AC800DDF804E0DDE9022304B070472DE9F047C2
:100AD800089D0C46002B4ED194468C458646B2FAAA
:100AE80082F262D94AB1C2F12003914020FA03F39D
:100AF8000CFA02FC194300FA02FE4FEA1C471FFADF
:100B08008CF6B1FBF7F44FEA1E4307FB141143EAD6
:100B1800014304FB06F199420AD91CEB030304F1D3
:100B2800FF3080F01281994240F20F81023C634409
:100B3800591A1FFA8EF3B1FBF7F007FB101143EABD
:100B4800014300FB06F69E420AD91CEB030300F1A1
:100B5800FF3180F0FC809E4240F2F9806344023805
:100B68009B1B40EA044000211DB1D3400022C5E987
:100B78000032BDE8F0878B4205D90DB1C5E9000107
:100B880000210846F5E7B3FA83F1002946D1A342CC
:100B980002D39042C0F0F080861A64EB0303012070
:100BA800002DE6D0C5E90063E3E7002A40F0908015
:100BB800A1EB0C044FEA1C481FFA8CF70121B4FB87
:100BC800F8F64FEA1E4308FB164443EA044307FBC2
:100BD80006F0984208D91CEB030306F1FF3402D251
:100BE800984200F2CD8026461C1A1FFA8EF3B4FBF9
:100BF800F8F008FB104443EA044300FB07F79F4260
:100C080008D91CEB030300F1FF3402D29F4200F223
:100C1800B0802046DB1B40EA0640A5E7C1F120066C
:100C28008B4022FA06F71F4320FA06FC04FA01F368
:100C380043EA0C03F44000FA01F8380C4FEA134970
:100C4800B4FBF0FE1FFA87FC00FB1E4449EA04448B
:100C58000EFB0CF9A14502FA01F20AD93C190EF172
:100C6800FF3A80F08480A14540F28180AEF1020E07
:100C78003C44A4EB09041FFA83F9B4FBF0F300FB2E
:100C8800134449EA044403FB0CFCA44507D93C1966
:100C980003F1FF3067D2A44565D9023B3C4443EADF
:100CA8000E40A0FB0293A4EB0C049C42CE469C464B
:100CB80051D34ED055B1B8EB0E0364EB0C0404FAD3
:100CC80006F6CB401E43CC40C5E90064002150E73E
:100CD800C2F1200320FA03F10CFA02FC24FA03F310
:100CE80094400C434FEA1C4800FA02FE1FFA8CF7A6
:100CF800B3FBF8F008FB1031230C43EA014300FB77
:100D080007F1994208D91CEB030300F1FF362CD2F6
:100D180099422AD9023863445B1AA4B2B3FBF8F1AA
:100D280008FB113344EA034401FB07F3A34208D943
:100D38001CEB040401F1FF3613D2A34211D9023986
:100D48006444E41A41EA004139E70446F0E60846FB
:100D580006E7C845AED2B9EB020E63EB070C0138C3
:100D6800A8E73146EDE7034699E73046D4E7D6468B
:100D78007FE7634402384DE70646234608460FE7F7
:100D8800023E634430E700BF704700BF30B58BB008
:100D980000240594069407940894099401941D4B23
:100DA8001A6B42F080021A631A6B02F080020192F9
:100DB800019A02941A6B42F004021A631A6B02F049
:100DC80004020292029A03941A6B42F001021A6317
:100DD8001A6B02F001020392039A04941A6B42F010
:100DE80002021A631B6B03F002030493049B0A4D6F
:100DF80022460821284601F0F7FE0823059301231F
:100E080006930794089405A9284601F0F7FD0BB04E
:100E180030BD00BF003802400008024072B6FEE74D
:100E280008B50A480A4B03600A4B436000238360F5
:100E3800C3604FF48042026143618361C36103620E
:100E480000F080FD00B908BDFFF7E8FF440100206D
:100E580000540040A086010008B50A480A4B036008
:100E68000A4B436000238360C3604FF480420261F1
:100E780043618361C361036200F064FD00B908BD8A
:100E8800FFF7CCFFF000002000580040A0860100CA
:100E980000B585B000230093019302930393134890
:100EA800134A02604360836003610122027680F87E
:100EB8002030C3620F498162C360C26180F830305C
:100EC800426102F085FD60B901230093019300237C
:100ED80002936946054802F0C9FE20B905B05DF8DD
:100EE80004FBFFF79BFFFFF799FF00BF9801002065
:100EF800002001400100000F00B587B000230293D5
:100F08000393049305930093019314484FF0804290
:100F180002604722426083604FF6FF72C26003613D
:100F2800836101F0D3FF90B94FF48053029302A973
:100F38000A4802F004F860B9002300930193694657
:100F4800064802F07BF830B907B05DF804FBFFF7FC
:100F580065FFFFF763FFFFF761FF00BFA8000020F0
:100F680000B595B03022002108A802F072FF0023D6
:100F78000393049305930693079301931E4A116CF8
:100F880041F080511164126C02F080520192019A72
:100F980002931A4A116841F480411160126802F400
:100FA80080420292029A0222089201210B9110219A
:100FB8000C910E920F9308231093482311931292C9
:100FC8000423139308A801F003FA80B90F230393AD
:100FD80002210491002305934FF48052069207934F
:100FE80003A801F045FC20B915B05DF804FBFFF734
:100FF80015FFFFF713FF00BF0038024000700040E4
:1010080008B501F087FEFFF7ABFFFFF7BFFEFFF75C
:1010180007FFFFF721FFFFF73BFFFFF76DFF1C49B5
:10102800442002F05BF84FF4FA6001F09FFE194C7F
:10103800194BE36176232383184D284602F0F8FA0A
:101048002946204602F0FDFAC0B9FEE702F044F94D
:10105800134B83ED000A02F023F9124B83ED000ACB
:10106800114A12490B4802F07FFB02F005FC104BB5
:1010780083ED000A4FF47A7001F078FE0123022212
:101088001946184602F0A0F80028DFD0E8E700BFAC
:10109800440100206C000020F000002064000020C3
:1010A800A00000209C000020980000209400002050
:1010B800A4000020FEE7FEE7FEE7FEE7FEE7704734
:1010C8007047704708B501F03FFE08BD82B00021A7
:1010D80000910B4B5A6C42F480425A645A6C02F4E9
:1010E80080420092009A01911A6C42F080521A6470
:1010F8001B6C03F080530193019B02B0704700BF43
:101108000038024000B589B0002303930493059387
:1011180006930793026803F1804303F590339A42DC
:1011280002D009B05DF804FB0021019103F58C336E
:101138005A6C42F480725A645A6C02F480720192BA
:10114800019A02911A6B42F001021A631B6B03F0B9
:1011580001030293029B022303930323049303A92D
:10116800014801F04BFCDCE70000024030B58BB0D1
:101178000023059306930793089309930368274A66
:10118800934204D0264A934224D00BB030BD0025A8
:101198000195244C236B43F002032363236B03F074
:1011A80002030193019BC023059312230693032393
:1011B80008930423099305A91B4801F01FFC029515
:1011C800236C43F400132364236C03F40013029389
:1011D800029BDAE700250395124C236B43F00203C8
:1011E8002363236B03F002030393039B4FF44063D1
:1011F800059312230693032308930423099305A94F
:10120800094801F0FBFB0495236C43F48003236435
:10121800236C03F480030493049BB6E70054004056
:101228000058004000380240000402400368B3F14F
:10123800804F00D0704782B000230193054B1A6C91
:1012480042F001021A641B6C03F001030193019B35
:1012580002B070470038024003685A6912F4806F80
:1012680001D1002070476FF480625A610023036344
:10127800202280F83D2080F83E30026C42F00402C3
:10128800026480F83C30012070472DE9F0410646A1
:101298000C46174698463BE001F062FD069BC01AD3
:1012A800404502D8B8F1000F32D1012D18D033686B
:1012B8009B6924EA03039BB2B3FA83F35B099F4259
:1012C80026D100233363202286F83D2086F83E305D
:1012D800326C42F02002326486F83C30012027E06C
:1012E80033685B6924EA03039BB2B3FA83F35B09AF
:1012F800E5E733685B6924EA030C1FFA8CFCBCFA47
:101308008CFC4FEA5C1C674511D1B8F1FF3FC3D193
:10131800C4F30745012DECD033689B6924EA030C1C
:101328001FFA8CFCBCFA8CFC4FEA5C1CEBE7002033
:10133800BDE8F0812DE9F84305460E4690469946EA
:1013480053E01A6842F400721A602B686FF48062E6
:101358005A6100232B63202285F83D2085F83E3012
:101368002A6C42F004022A6485F83C3001204AE0E5
:1013780001F0F6FCA0EB0900404502D8B8F1000FD7
:1013880033D1012F17D02B689B6926EA03039BB240
:10139800003B18BF012343B300232B63202285F8A9
:1013A8003D2085F83E302A6C42F020022A6485F8F8
:1013B8003C30012027E02B685B6926EA03039BB2D7
:1013C800003B18BF0123E6E72B689C6926EA040462
:1013D800A4B2003C18BF0124A4B12B685A6912F4C6
:1013E800806FAED1B8F1FF3FC2D1C6F30747012FD6
:1013F800EAD12B685C6926EA0404A4B2003C18BF51
:101408000124E9E70020BDE8F8830000F0B583B0C7
:1014180004460D4616461F46C36A082B0DD0012BFD
:101428000BD013F5803F08D0036B122B0AD102684A
:10143800136843F48073136004E02268136843F46C
:10144800807313600097334600224FF00111204645
:10145800FFF71BFF80B92369B3F5804F16D12368C6
:1014680005F0FE051D613B46324613492046FFF74D
:1014780061FFF8B903B0F0BD23681B6813F4807FDF
:1014880002D04FF4007323640320F3E7EB112268C2
:1014980003F0060343F0F00313613B463246074965
:1014A8002046FFF747FF18B92368EDB21D61DAE758
:1014B8000120DFE70120DDE702000100080001004C
:1014C8002DE9F04184B004460D4616461F46C26A0F
:1014D80001680B6843F480630B60082A0DD0012A69
:1014E8000BD012F5803F08D0036B112B0AD102688C
:1014F800136843F48073136004E02268136843F4AC
:10150800807313600097334600224FF00111204684
:10151800FFF7BBFE98B92369B3F5804F19D123684B
:1015280045F00105EDB21D613B4632462A49204689
:10153800FFF700FF00284CD104B0BDE8F081236814
:101548001B6813F4807F02D04FF4007323640320D8
:10155800F2E74FEAE51808F00608236848F0F002B9
:101568001A613B4632461D492046FFF7E3FE08B1A3
:101578000120E1E72368EDB21D613B46324616497A
:101588002046FFF7D7FE08B10120D5E700220392D5
:10159800236859690391996903910399196841F47A
:1015A80080711960009733464FF001112046FFF70C
:1015B8006CFE20B9226848F0F1031361B4E7236890
:1015C8001B6813F4807F02D04FF400732364032058
:1015D800B2E70120B0E700BF0200010008000100E7
:1015E80070B504460D46164623685B6913F0800FF4
:1015F80021D12046FFF730FEF8B9B5F1FF3FF3D00F
:1016080001F0AEFB801BA84201D8002DECD1236865
:101618005B6913F0800FE7D100232363202284F84D
:101628003D2084F83E30226C42F02002226484F887
:101638003C30012000E0002070BD0120FCE70000E4
:101648002DE9F04385B004460D4691461F46DDF866
:1016580030800D9E0368196841F480711960009606
:10166800434600224FF00111FFF70FFE60B92368CF
:1016780005F0FE051D613346424626492046FFF720
:1016880059FE68B1012008E023681B6813F4807FC5
:1016980002D04FF400732364032005B0BDE8F08343
:1016A8000023039323685A6903929B690393039B5E
:1016B800324641462046FFF793FF30B9012F0FD13C
:1016C80023685FFA89F61E61E7E7236C042B01D0D3
:1016D8000120E2E72268136843F400731360F7E718
:1016E80023684FEA19221A61324641462046FFF71D
:1016F80077FF20B923685FFA89F61E61CDE7236C6E
:10170800042B01D00120C8E72268136843F4007352
:101718001360F7E7020001002DE9F04784B00446A2
:101728000D46164699460C9FDDF83480026813680A
:1017380043F4806313600368196841F48071196089
:10174800CDF800803B4600224FF00111FFF79DFDC8
:1017580070B95FFA85FA236805F0FE051D614346F6
:101768003A4641492046FFF7E5FD68B1012008E007
:1017780023681B6813F4807F02D04FF4007323643E
:10178800032004B0BDE8F0870023039323685A6957
:1017980003929B690393039B424639462046FFF711
:1017A8001FFF80B9B9F1010F18D12368F6B21E6185
:1017B800424639462046FFF713FF68B3236C042BD3
:1017C80024D00120DDE7236C042B01D00120D8E7C9
:1017D8002268136843F400731360F7E72368320A3A
:1017E8001A61424639462046FFF7FAFE18B92368BF
:1017F800F6B21E61DCE7236C042B01D00120C0E7A0
:101808002268136843F400731360F7E722681368CB
:1018180043F400731360D4E72268136843F48073B9
:101828001360CDF800803B4600224FF0011120469E
:10183800FFF72BFD68B922684AF00103136143469C
:101848003A4609492046FFF775FD002899D001203E
:1018580097E723681B6813F4807F02D04FF4007366
:10186800236403208DE700BF0200010070B5044621
:101878000D46164623685B6913F0040F21D12046F4
:10188800FFF7EAFCF8B9B5F1FF3FF3D001F068FAC9
:10189800801BA84201D8002DECD123685B6913F0A6
:1018A800040FE7D100232363202284F83D2084F825
:1018B8003E30226C42F02002226484F83C30012041
:1018C80000E0002070BD0120FCE770B504460D461D
:1018D800164614E06FF010025A6100232363202299
:1018E80084F83D2084F83E30226C226484F83C3031
:1018F800012025E023685B6913F0400F10D02368AE
:10190800586910F0400F1AD1586910F0100FE1D142
:1019180001F026FA801BA842ECD8002DEFD1E9E7A8
:1019280000232363202284F83D2084F83E30226C73
:1019380042F02002226484F83C30012000E00020BC
:1019480070BD0000002800F0CC8070B5044690F807
:101958003D30002B77D0242384F83D30226813686B
:1019680023F0010313602268136843F400431360F3
:101978002268136823F40043136001F02FF86268AB
:101988005A4B9A4264D85A4B98428CBF0023012381
:10199800002B40F0A8805749A1FB00318B0C25682B
:1019A8006A6822F03F0242EA91426A6021680A6A44
:1019B80022F03F0266684D4DAE424FD801331343C3
:1019C8000B622168CA6922F44F4222F0FF0265685F
:1019D800464B9D424CD8431E6D00B3FBF5F30133D3
:1019E80040F6FC70034278D0C3F30B031A43CA6174
:1019F80021680B6823F0C003E269206A024313439D
:101A08000B6021688B6823F4034323F0FF032269EA
:101A1800E068024313438B602168CB6823F0FF031F
:101A28006269A06902431343CB602268136843F0DC
:101A38000103136000202064202384F83D302063D4
:101A480084F83E0070BD80F83C30FFF78FFB82E7DA
:101A5800294B98428CBF0023012399E74FF49675D0
:101A680005FB03F3254DA5FB03539B090133A6E7AB
:101A7800A668BEB9431E05EB450CB3FBFCF3013366
:101A8800C3F30B03B3FA83F35B0943BBC6B9431E25
:101A980005EB4505B3FBF5F30133C3F30B0343F43F
:101AA8000043A3E7431E05EB850C0CEB8C0CB3FB42
:101AB800FCF30133C3F30B03B3FA83F35B09E4E7E5
:101AC800431E05EB850505EB8505B3FBF5F30133EF
:101AD800C3F30B0343F4404388E7042386E7012359
:101AE80084E7012070470120ACE700BFA086010011
:101AF8007F841E0083DE1B43FF083D00D34D621028
:101B08002DE9F04385B004460F46914698460C9E51
:101B180001F026F9054694F83D00C0B2202804D00B
:101B28000227384605B0BDE8F08300951923012245
:101B38004F492046FFF7A9FB002840F0928094F80F
:101B48003C30012B00F08F80012384F83C3023685F
:101B58001A6812F0010F03D11A6842F001021A60E4
:101B68002268136823F400631360212384F83D304E
:101B7800102384F83E3000232364C4F82490A4F88A
:101B88002A80638D23853B4BE3622B4632463946D8
:101B98002046FFF73BFC0746002866D10023039345
:101BA80023685A6903929B690393039B11E0236C92
:101BB800042B01D00127B4E72268136843F40073AB
:101BC8001360F7E72A4631462046FFF74FFE002804
:101BD8002ED1238D002B36D02A4631462046FFF7DA
:101BE800FFFC0028E3D1626A236812781A61606AF0
:101BF800431C6362618D89B2013989B26185238D85
:101C0800013B9BB223852268516911F0040FD9D09A
:101C1800002BD7D043781361636A01336362638D05
:101C28009BB2013B9BB26385238D013B2385C9E7AA
:101C3800236C042B01D0012773E72268136843F44F
:101C480000731360F7E72268136843F400731360A6
:101C5800202384F83D30002384F83E3084F83C305B
:101C68005FE702275DE702275BE7012759E700BF27
:101C7800020010000000FFFF2DE9F04387B0044682
:101C88000F46914698460E9E01F06AF8054694F86C
:101C98003D00C0B2202804D00227384607B0BDE86E
:101CA800F08300951923012289492046FFF7EDFAB0
:101CB800002840F04F8194F83C30012B00F04C8113
:101CC800012384F83C3023681A6812F0010F03D10D
:101CD8001A6842F001021A602268136823F400634C
:101CE8001360222384F83D30102384F83E3000230B
:101CF8002364C4F82490A4F82A80638D2385754B47
:101D0800E3622B46324639462046FFF7D9FB0746A1
:101D1800002840F02381238D5BB9029323685A6918
:101D280002929A690292029A1A6842F400721A6040
:101D38007AE0012B0FD0022B1FD02268136843F4DE
:101D4800806313600023059323685A6905929B6991
:101D58000593059B68E02268136823F48063136089
:101D68000023039323685A6903929A690392039A9A
:101D78001A6842F400721A6056E02268136823F465
:101D8800806313602268136843F4006313600023C0
:101D9800049323685A6904929B690493049B43E063
:101DA8002A4631462046FFF790FD002840F0D880AB
:101DB80023681A69636A1A70636A01336362238D40
:101DC800013B2385638D9BB2013B9BB263852BE06E
:101DD80000953346002240492046FFF756FA00286E
:101DE80040F0C0802268136843F4007313602368CE
:101DF8001A69636A1A70626A531C6362238D013B15
:101E08002385638D9BB2013B9BB2638523681B6965
:101E18005370636A01336362238D013B2385638DAD
:101E28009BB2013B9BB26385218D002900F089801C
:101E3800032953D80129B3D00229C9D000953346C4
:101E4800002225492046FFF720FA002840F08C8020
:101E58002268136823F48063136023681A69636A2D
:101E68001A70636A01336362238D013B2385618D98
:101E780089B2013989B26185009533460022164935
:101E88002046FFF702FA002870D12268136843F44D
:101E98000073136023681A69636A1A70626A531CB4
:101EA8006362238D013B2385638D9BB2013B9BB20B
:101EB800638523681B695370636A01336362238DEA
:101EC800013B2385638D9BB2013B9BB26385ABE7E6
:101ED800020010000000FFFF040001002A463146FE
:101EE8002046FFF7F2FC002842D123681A69636A8A
:101EF8001A70636A01336362228D013A92B22285B5
:101F0800638D9BB2013B9BB263852368596911F0CD
:101F1800040F89D0032A0FD023681A69636A1A70DC
:101F2800636A01336362238D013B2385638D9BB212
:101F3800013B9BB2638577E71A6822F480621A60D6
:101F4800EAE7202384F83D30002384F83E3084F803
:101F58003C30A2E60227A0E602279EE601279CE67F
:101F680001279AE6012798E6012796E6012794E6D5
:101F7800012792E62DE9F04383B004460F469046C8
:101F880099460C9E00F0ECFE054694F83D00C0B260
:101F9800202803D0022003B0BDE8F0830095192360
:101FA80001224B492046FFF770F9002840F089804C
:101FB80094F83C30012B00F08680012384F83C30F3
:101FC80023681A6812F0010F03D11A6842F001025F
:101FD8001A602268136823F400631360212384F8CD
:101FE8003D30402384F83E30002323640A9B63621B
:101FF800BDF82C306385638D2385364BE3620195EC
:1020080000964B46424639462046FFF719FB002802
:102018005BD1238D002B35D02A4631462046FFF769
:10202800DFFA20BB626A236812781A61626A531C5D
:102038006362218D013989B22185638D9BB2013B91
:102048009BB263852368586910F0040FE1D000291A
:10205800DFD052781A61636A01336362238D013BD2
:102068002385638D9BB2013B9BB26385D1E7236CCB
:10207800042B01D001208EE72268136843F4007313
:102088001360F7E72A4631462046FFF7EFFB50B1C9
:10209800236C042B01D001207DE72268136843F4E8
:1020A80000731360F7E72268136843F40073136042
:1020B800202384F83D30002384F83E3084F83C30F7
:1020C80069E7022067E7022065E7012063E700BFB0
:1020D800020010000000FFFF2DE9F04387B004461E
:1020E8000F4690469946109E00F03AFE054694F831
:1020F8003D00C0B2202804D00227384607B0BDE80A
:10210800F08300951923012288492046FFF7BDF87E
:10211800002840F04D8194F83C30012B00F04A81B2
:10212800012384F83C3023681A6812F0010F03D1A8
:102138001A6842F001021A602268136823F40063E7
:102148001360222384F83D30402384F83E30002376
:1021580023640E9B6362BDF83C306385638D2385E1
:10216800734BE362019500964B464246394620463A
:10217800FFF7D2FA0746002840F01E81238D5BB98D
:10218800029323685A6902929A690292029A1A681B
:1021980042F400721A6075E0012B0AD0022B1AD0A3
:1021A8000023059323685A6905929B690593059B4B
:1021B80068E02268136823F48063136000230393A4
:1021C80023685A6903929A690392039A1A6842F437
:1021D80000721A6056E02268136823F48063136063
:1021E8002268136843F40063136000230493236890
:1021F8005A6904929B690493049B43E02A4631463A
:102208002046FFF762FB002840F0D88023681A694F
:10221800636A1A70636A01336362238D013B238505
:10222800638D9BB2013B9BB263852BE000953346DF
:10223800002240492046FFF728F8002840F0C080D7
:102248002268136843F40073136023681A69636A89
:102258001A70626A531C6362238D013B2385638D68
:102268009BB2013B9BB2638523681B695370636A09
:1022780001336362238D013B2385638D9BB2013B50
:102288009BB26385238D002B00F08980032B53D8E4
:10229800012BB3D0022BC9D0009533460022254923
:1022A8002046FEF7F2FF002840F08C802268136871
:1022B80023F48063136023681A69636A1A70636A77
:1022C80001336362238D013B2385638D9BB2013B00
:1022D8009BB2638500953346002216492046FEF7D7
:1022E800D4FF002870D12268136843F40073136088
:1022F80023681A69636A1A70626A531C6362238DC1
:10230800013B2385638D9BB2013B9BB263852368A8
:102318001B695370636A01336362238D013B238514
:10232800638D9BB2013B9BB26385ABE70200100053
:102338000000FFFF040001002A4631462046FFF74F
:10234800C4FA002842D123681A69636A1A70636A5A
:1023580001336362228D013A92B22285638D9BB26A
:10236800013B9BB263852368596911F0040F89D03A
:10237800032A0FD023681A69636A1A70636A0133E3
:102388006362238D013B2385638D9BB2013B9BB226
:10239800638577E71A6822F480621A60EAE72023E7
:1023A80084F83D30002384F83E3084F83C30A4E6BD
:1023B8000227A2E60227A0E601279EE601279CE65F
:1023C80001279AE6012798E6012796E6012794E671
:1023D800002800F0E08170B582B00446036813F06D
:1023E800010F3BD09F4B9B6803F00C03042B2CD0B0
:1023F8009C4B9B6803F00C03082B21D06368B3F552
:10240800803F4FD0B3F5A02F52D0964B1A6822F4D4
:1024180080321A601A6822F480221A606368002BDE
:1024280050D000F09DFC05468E4B1B6813F4003F0E
:1024380014D100F095FC401B6428F5D90320B1E1C4
:10244800884B5B6813F4800FD8D0864B1B6813F455
:10245800003F03D06368002B00F09F81236813F0CE
:10246800020F54D07F4B9B6813F00C0F3ED07D4B6E
:102478009B6803F00C03082B33D0E368002B68D06B
:10248800794B01221A6000F06BFC0546754B1B68FE
:1024980013F0020F54D100F063FC401B0228F5D959
:1024A80003207FE16F4A136843F480331360B5E774
:1024B8006C4B1A6842F480221A601A6842F480321F
:1024C8001A60ABE700F04CFC0546664B1B6813F43A
:1024D800003FC3D000F044FC401B6428F5D903201A
:1024E80060E1604B5B6813F4800FC6D15D4B1B68DD
:1024F80013F0020F03D0E368012B40F05081594AD2
:10250800136823F0F803216943EAC10313602368C1
:1025180013F0080F42D063696BB3534B0122C3F821
:10252800802E00F01DFC05464E4B5B6F13F0020F2A
:1025380034D100F015FC401B0228F5D9032031E105
:10254800484A136823F0F803216943EAC10313607A
:10255800DDE7454B00221A6000F002FC0546414BBE
:102568001B6813F0020FD2D000F0FAFB401B0228C0
:10257800F5D9032016E13C4B0022C3F8802E00F069
:10258800EFFB0546374B5B6F13F0020F06D000F0E8
:10259800E7FB401B0228F5D9032003E1236813F069
:1025A800040F77D02F4B1B6C13F0805F33D10023BF
:1025B80001932C4B1A6C42F080521A641B6C03F086
:1025C80080530193019B0125284B1B6813F4807FDE
:1025D80023D0A368012B34D0052B38D0214B1A6F98
:1025E80022F001021A671A6F22F004021A67A36820
:1025F800002B3DD000F0B4FB06461A4B1B6F13F0BE
:10260800020F46D100F0ACFB801B41F288339842A0
:10261800F3D90320C6E00025D6E7144A136843F42B
:102628008073136000F09CFB0646104B1B6813F484
:10263800807FCED100F094FB801B0228F5D90320BF
:10264800B0E0084A136F43F001031367CFE7054B67
:102658001A6F42F004021A671A6F42F001021A67F1
:10266800C5E700BF00380240000047420070004044
:1026780000F076FB0646524B1B6F13F0020F08D092
:1026880000F06EFB801B41F288339842F3D9032097
:1026980088E0EDB9A369002B00F08380484A92686E
:1026A80002F00C02082A51D0022B17D0454B002209
:1026B8001A6600F055FB0446414B1B6813F0007F77
:1026C80042D000F04DFB001B0228F5D9032069E039
:1026D8003B4A136C23F080531364DBE7394B002229
:1026E8001A6600F03DFB0546354B1B6813F0007F6A
:1026F80006D000F035FB401B0228F5D9032051E035
:10270800E369226A1343626A43EA8213A26A52089F
:10271800013A43EA0243E26A43EA0263284A536001
:10272800284B01221A6600F01BFB0446244B1B6849
:1027380013F0007F06D100F013FB001B0228F5D927
:1027480003202FE000202DE000202BE0012B2BD0D0
:102758001B4B5B6803F48001E269914226D103F0C8
:102768003F02216A8A4223D1616A47F6C0721A4041
:10277800B2EB811F1ED103F44031A26A5208013A1C
:10278800B1EB024F18D103F07063E26AB3EB026F4A
:1027980014D1002006E001207047012002E001204A
:1027A80000E0002002B070BD0120FBE70120F9E73E
:1027B8000120F7E70120F5E70120F3E70120F1E721
:1027C800003802400000474208B5264B9B6803F0DA
:1027D8000C03042B41D0082B41D1224B5A6802F03C
:1027E8003F025B6813F4800F12D01E4B5968C1F387
:1027F80088111D480023A1FB0001FEF74FF9194B72
:102808005B68C3F3014301335B00B0FBF3F027E0DF
:10281800144B5868C0F388104FEA401CBCEB000CFE
:102828006EEB0E0E4FEA8E1343EA9C634FEA8C114F
:10283800B1EB0C0163EB0E03DB0043EA5173C900F3
:1028480011EB000C43F10003990200234FEA8C209E
:1028580041EA9C51FEF722F9D1E7034800E003481A
:1028680008BD00BF0038024040787D010024F40014
:10287800002800F09B8070B50D4604464F4B1B683E
:1028880003F007038B4208D2CBB24C4A137013688B
:1028980003F007038B4240F08B80236813F0020F8C
:1028A80017D013F0040F04D0454A936843F4E0535B
:1028B8009360236813F0080F04D0414A936843F4E7
:1028C800604393603E4A936823F0F003A1680B438A
:1028D8009360236813F0010F32D06368012B21D075
:1028E8009A1E012A25D9364A126812F0020F61D0C1
:1028F80033498A6822F0030213438B6000F030FAF0
:1029080006462F4B9B6803F00C036268B3EB820FFB
:1029180016D000F025FA801B41F288339842F0D98E
:10292800032042E0264A126812F4003FE0D1012059
:102938003BE0234A126812F0007FD9D1012034E02D
:102948001E4B1B6803F00703AB4207D9EAB21B4BC7
:102958001A701B6803F00703AB422DD1236813F0EC
:10296800040F06D0164A936823F4E053E1680B433A
:102978009360236813F0080F07D0114A936823F473
:102988006043216943EAC1039360FFF71DFF0C4BC5
:102998009B68C3F303130B4AD35CD8400A4B1860F7
:1029A8000A4B186800F090F9002070BD01207047AC
:1029B8000120FAE70120F8E70120F6E7003C024091
:1029C80000380240D43E000808000020040000201F
:1029D800014B1868704700BF0800002008B5FFF7D2
:1029E800F7FF044B9B68C3F38223034AD35CD840A8
:1029F80008BD00BF00380240CC3E000800230F2B62
:102A080000F2E98070B582B065E085684FEA430E50
:102A1800032404FA0EF425EA0405CC6804FA0EF43B
:102A28002C438460446824EA02044A68C2F3001212
:102A38009A40224342605CE0DC08083450F82420C5
:102A480003F00705AD004FF00F0E0EFA05FE22EA5F
:102A58000E0E0A69AA4042EA0E0240F824205CE001
:102A6800072200E0002202FA0EF22A4302345A4DED
:102A780045F82420594A94686FEA0C0224EA0C05A8
:102A88004E6816F4801F01D04CEA0405534CA5602B
:102A9800E46802EA04054E6816F4001F01D04CEA07
:102AA80004054E4CE560646802EA04054E6816F4B5
:102AB800003F01D04CEA0405484C65602468224078
:102AC8004D6815F4803F01D04CEA0402434C226063
:102AD80001330F2B7DD801229A400C6804EA020CBE
:102AE80032EA0404F4D14C6804F00304013C012CDC
:102AF8008BD94A6802F00302032A09D0C4685D0032
:102B08000322AA4024EA02048A68AA402243C26037
:102B18004A6802F00302022A8ED004684FEA430E84
:102B2800032202FA0EF224EA02044A6802F00302BF
:102B380002FA0EF2224302604A6812F4403FC7D0FC
:102B480000220192264A546C44F480445464526C26
:102B580002F480420192019A9C08A51C1E4A52F870
:102B6800255003F0030E4FEA8E0E0F2202FA0EF2E2
:102B780025EA02051B4A90423FF474AF02F58062D1
:102B880090421AD002F58062904218D002F5806215
:102B9800904216D002F58062904214D002F580620D
:102BA800904212D002F58062904210D002F5806205
:102BB80090423FF455AF082255E7012253E702221D
:102BC80051E703224FE704224DE705224BE706228F
:102BD80049E702B070BD704700380140003C014031
:102BE80000380240000002400AB1816170470904C0
:102BF80081617047002808DB0901C9B200F1604013
:102C080000F5614080F80013704700F00F000901DB
:102C1800C9B2014B1954704714ED00E000B500F03B
:102C28000700C0F1070CBCF1040F28BF4FF0040CDB
:102C3800031D062B0FD9C31E4FF0FF3E0EFA0CF0F2
:102C480021EA000199400EFA03FE22EA0E0241EA47
:102C580002005DF804FB0023EEE70000074AD36892
:102C680023F4E0631B041B0C000200F4E060034340
:102C780043F0BF6343F40033D360704700ED00E0D6
:102C880010B50446054BD868C0F30220FFF7C6FF0D
:102C980001462046FFF7AEFF10BD00BF00ED00E083
:102CA8000138B0F1807F0BD24FF0E0235861054A1C
:102CB800F02182F823100020986107221A617047DA
:102CC8000120704700ED00E010B504460E4B1A785D
:102CD8004FF47A73B3FBF2F30C4A1068B0FBF3F0CD
:102CE800FFF7DEFF68B90F2C01D901200AE00022A6
:102CF80021464FF0FF30FFF7C3FF054B1C60002053
:102D080000E0012010BD00BF0000002008000020E6
:102D18000400002008B50B4B1A6842F400721A60D0
:102D28001A6842F480621A601A6842F480721A6063
:102D38000320FFF793FF0F20FFF7C6FFFEF7C6F942
:102D4800002008BD003C0240034A1168034B1B7871
:102D58000B441360704700BFE00100200000002012
:102D6800014B1868704700BFE001002038B50446E1
:102D7800FFF7F6FF0546B4F1FF3F02D0044B1B787E
:102D88001C44FFF7EDFF401BA042FAD338BD00BF3B
:102D98000000002010B4036A046A24F001040462ED
:102DA800846924F0F00C4CEA021223F00A030B4366
:102DB800826103625DF8044B704710B4036A046AC9
:102DC80024F010040462846924F4704C4CEA023242
:102DD80023F0A00343EA0113826103625DF8044B08
:102DE8007047836823F070030B4343F00703836045
:102DF800704700000368344A904212D0B0F1804F07
:102E08000FD0A2F57C4290420BD002F5806290422E
:102E180007D002F58062904203D002F578429042D2
:102E280003D123F070034A681343274A90422AD0FB
:102E3800B0F1804F27D0A2F57C42904223D002F512
:102E4800806290421FD002F5806290421BD002F54A
:102E58007842904217D002F57052904213D002F592
:102E6800806290420FD002F5806290420BD0A2F5AA
:102E78009832904207D002F58062904203D002F562
:102E88008062904203D123F44073CA68134323F04D
:102E980080034A69134303608B68C3620B688362CB
:102EA800094B984203D003F58063984201D10B691E
:102EB800036301234361036913F0010F03D003691E
:102EC80023F00103036170470000014040B310B5CF
:102ED800044690F83D30F3B1022384F83D30214692
:102EE80051F8040BFFF786FF012384F8463084F875
:102EF8003E3084F83F3084F8403084F8413084F81C
:102F0800423084F8433084F8443084F8453084F8FB
:102F18003D30002010BD80F83C30FEF787F9DBE734
:102F28000120704710B4846824F47F4C42EA0322DD
:102F38000A4342EA0C0282605DF8044B704790F83D
:102F48003C30012B78D010B50446012380F83C3082
:102F5800022380F83D300268936823F47F4323F00E
:102F6800770393600B68602B4CD029D8402B54D042
:102F78000CD9502B22D1CA6849680068FFF70AFFAC
:102F880050212068FFF72DFF002005E0202B0DD0F1
:102F980009D9302B0AD00120012384F83D300023C1
:102FA80084F83C3010BD0BB1102B05D119462068B0
:102FB800FFF717FF0020EFE70120EDE70120EBE71F
:102FC800B3F5805F34D0B3F5005F0CD1CB684A68A5
:102FD80089680068FFF7A6FF2268936843F4804376
:102FE80093600020D8E7702B24D1CB684A688968A1
:102FF8000068FFF797FF2268936843F077039360B0
:103008000020C9E7CA6849680068FFF7D6FE602152
:103018002068FFF7E6FE0020BEE7CA684968006836
:10302800FFF7B8FE40212068FFF7DBFE0020B3E77A
:103038000020B1E70120AFE70220704790F83C205C
:10304800012A3DD010B40346012280F83C20022218
:1030580080F83D2002685068946820F0700C086879
:1030680040EA0C0050601A68164882421AD0B2F141
:10307800804F17D0A0F57C40824213D000F58060C5
:1030880082420FD000F5806082420BD000F5784074
:10309800824207D000F57050824203D0A0F59430E8
:1030A800824204D124F080044968214391600122BE
:1030B80083F83D20002083F83C005DF8044B7047FE
:1030C8000220704700000140034AD2F8883043F4D8
:1030D8007003C2F88830704700ED00E038B5054C41
:1030E8002070616000252572E560FFF739FE2061D8
:1030F800656138BDE801002000B585B0030A8DF888
:103108000C308DF80D00084801784FF0FF3300931C
:10311800022303AA49004068FEF7F2FC00B104202C
:1031280005B05DF804FB00BFE801002010B582B0CF
:103138000246084C94F800C04FF0FF3300938BB25E
:103148004FEA4C016068FEF797FD00B1042002B019
:1031580010BD00BFE801002018B101280AD00020E6
:103168007047094B187202EB42021144074B33F8BF
:1031780011007047044A0120107203EB43031944FD
:10318800034B33F811007047E80100203C00002091
:103198001C0000200246C9B2FF200EE04000C0B269
:1031A800013BDBB23BB110F0800FF7D0400080F05C
:1031B8003100C0B2F4E70139C9B221B112F8013BBC
:1031C80058400823EEE7704770B582B00E461D469A
:1031D800FFF7C2FF04462F4A127AEAB1012A21D02A
:1031E8002D4B985DFFF7C2FD06216846FFF79EFF4D
:1031F8009DF8024002216846FFF7CCFF844232D096
:103208009DF8054002210DF10300FFF7C3FF84423A
:1032180032D0012002B070BDFFF76EFF0028DFD06A
:103228000420F7E7FFF79CFD1A4B1A695B69801ABF
:1032380063EB4303194A32F8152082424FF000022B
:103248009A4123DAFFF78CFD124B186100225A616C
:10325800DB68002BC4D12046FFF74EFFC0B90D4BE9
:103268000122DA60BCE79DF800209DF8013003EBED
:103278000223084A1383C3E79DF803209DF804300E
:1032880003EB0223034A53830020C3E70320C1E76B
:103298000420BFE7E80100200C00002010000020F7
:1032A80008B50B4B588BFDF7DDF80022094BFDF7ED
:1032B80043F905A3D3E90023FDF768FAFDF74EFBB0
:1032C80000EE100A08BD00BF00000000E0FFEF405C
:1032D800E80100200000594008B50F4B188BFDF796
:1032E800C1F809A3D3E90023FDF726F908A3D3E918
:1032F8000023FDF74BFA0022084BFCF765FFFDF7AA
:103308002DFB00EE100A08BD0000000000E065403B
:1033180000000000E0FFEF40E80100200080464088
:1033280000B503884FEA430CCCEBE10CB0F902E09E
:103338000EFB0CFCC3EB211101FB01F10913B0F9E1
:10334800043003FB01F0801300EBEC20106000EB6D
:103358008000803000125DF804FB2DE9F04104463E
:10336800D317B2F5FA3243F1FF3302FB03F0A2FBA5
:1033780002C707EB4007B4F910004FEAE07E0CFBE8
:103388000EFE00FB07EEACFB00608644B4F90E00AD
:103398004FEAE07800FB03F502FB0855A0FB0208A2
:1033A80045446D0445EAD035400480194EEB050EBE
:1033B800B4F90C500EEBC50EB4F90A50EE170CFB1D
:1033C80006F605FB0766ACFB05C52E444FEA1C2C28
:1033D8004CEA066CB4F90850EF1705FB03F302FB3F
:1033E8000733A5FB025213441B0343EA15532D036D
:1033F8001CEB050C43EB262303F50043E288ACFBEA
:1034080002C502FB03556A10EB1753EA650561D044
:10341800C1F580156910ED072D1A61EB0E0E15EB3D
:10342800050C4EEB0E011CEB050C4EEB010188015F
:1034380040EA9C604FEA8C161CEB060C41EB00013D
:10344800890041EA9C714FEA8C0C1CEB050C4EEB91
:103458000101890041EA9C714FEA8C0040194EEB4A
:103468000101FDF7CBFA0346B4F916604FEAE67C92
:10347800420B42EAC1424F1306FB07F502FB0C550B
:10348800A6FB026C654402FB05F506FB0755A2FB8B
:1034980006263544520E42EAC512B4F914604FEAC2
:1034A800E67C06FB01F70CFB0070A6FB03673844BB
:1034B800F60C46EA40369B1841EB65619B1941EBD7
:1034C800E041180A40EA0160B4F9123000EB031039
:1034D800BDE8F0810020FBE710B584B08E46B0F857
:1034E80018C04FEA4C0C1FFA8CF141F28834029450
:1034F8000193009201237246C069FEF7EDFD00B109
:10350800012004B010BD10B586B08C461446038B5C
:103518005B0099B24FF4FA7302930223019305AB4F
:10352800009301236246C069FEF7D6FD48B99DF8AD
:1035380015209DF8143043EA02232380012006B0A9
:1035480010BD0020FBE710B5044602468821FFF7AE
:10355800DAFF00B910BDA21C8A212046FFF7D3FF6D
:103568000028F7D0221D8C212046FFF7CCFF002829
:10357800F0D0A21D8E212046FFF7C5FF0028E9D014
:1035880004F1080290212046FFF7BDFF0028E1D092
:1035980004F10A0292212046FFF7B5FF0028D9D08E
:1035A80004F10C0294212046FFF7ADFF0028D1D08A
:1035B80004F10E0296212046FFF7A5FF0028C9D086
:1035C80004F1100298212046FFF79DFF0028C1D082
:1035D80004F112029A212046FFF795FF0028B9D07E
:1035E80004F114029C212046FFF78DFF0028B1D07A
:1035F80004F116029E212046FFF785FFAAE700B5D1
:1036080087B08C468DF81720038B5B0099B242F285
:1036180010730293012301930DF117020092624681
:10362800C069FEF7A7FC00B1012007B05DF804FBF4
:1036380003230370002242708370C37003714371C7
:10364800704770B582B0038B763B9BB2012B03D9D0
:103658000025284602B070BD04460E46012300F13D
:103668002602D021FFF738FF002843D194F82630EE
:10367800582B01D0602B3FD1B622E0212046FFF71E
:10368800BEFF00283AD101230DF10702F32120469D
:10369800FFF722FF0028F6D19DF8073013F0010F3D
:1036A800F1D12046FFF74FFF05460028D1D07379A6
:1036B8007278920042EA431202F0FC02F521204699
:1036C800FFF79DFFE0B93378012B10D0F278B3787B
:1036D8009B0043EA42135BB232781A43D2B2F42118
:1036E8002046FFF78CFF0028B3D00025B1E7002360
:1036F8003370EBE70025ACE70025AAE70025A8E72B
:103708000025A6E7F0B585B004460F461646062301
:1037180002AAF721FFF7E0FE10B1002005B0F0BDC6
:103728009DF808309DF809502D0145EA03359DF8AC
:103738000A3045EA13159DF80B209DF80C301B0143
:1037480043EA02339DF80D1001AA43EA11112046FD
:10375800FFF7E6FD3860019A29462046FFF7FDFD90
:1037680030600120DAE7000030B583B00D4614461A
:103778006A4601A9FFF7C6FF08B903B030BDDDED01
:10378800017AF8EEE77ADFED086A87EEA67A85ED2A
:10379800007ADDED007AF8EE677A9FED047A67EE3D
:1037A800877AC4ED007AE8E70000C8420000803B51
:1037B800034B1A6800235362536A8342FCD870474C
:1037C800A800002010B5012208211348FFF70CFAC1
:1037D8004FF48C70FFF7ECFF104C204600F024F9F2
:1037E8006421204600F0E2F988B100240B4800F07B
:1037F800BDF9002208210848FFF7F6F92820FFF74D
:10380800D7FF42F2D050FFF7D3FF204610BD204625
:1038180000F028FA0446E9E7000802409801002071
:1038280007EE900AF8EE677A9FED020A27EE800A03
:10383800704700BF6740533ADFED0C7A20EE270A45
:10384800DFED0B7A30EE670AB5EEC00AF1EE10FA3A
:1038580009D4F6EE007AB4EEE70AF1EE10FA01DDCB
:10386800B0EE670A70479FED030AF2E7C520303EC5
:10387800CDCCCC3D0000000008B5FFF7A3FFFFF753
:10388800CFFF044B83ED000AFFF7D6FF024B83ED11
:10389800000A08BD14020020100200204A4B5A6892
:1038A80022F440325A605A6841680A435A600268F2
:1038B800536823F48073536002685368016943EACC
:1038C800012353600268536823F040735360026811
:1038D800536881680B4353600268936823F400635C
:1038E800936002689368C1680B439360826A374BA0
:1038F8009A4257D00268936823F070639360026815
:103908009368816A0B4393600268936823F040537D
:10391800936002689368C16A0B4393600268936876
:1039280023F00203936002689368017E43EA41032F
:10393800936090F82030002B3FD00268536843F41E
:10394800006353600268536823F46043536001685E
:103958004B68426A013A43EA42334B600268D36AD1
:1039680023F47003D3620168CB6AC269013A43EA5F
:103978000253CB620268936823F400739360026871
:10398800936890F8301043EA412393600268936883
:1039980023F48063936002689368416943EA812352
:1039A800936070470268936823F0706393600268BD
:1039B800936823F040539360B0E70268536823F498
:1039C80000635360CAE700BF002301400100000FF5
:1039D80038B310B50446036C43B1236C13F0100FD1
:1039E8000BD00120002384F83C3010BDFDF78AFB82
:1039F8000023636484F83C30EFE7236C23F4885396
:103A080023F0020343F0020323642046FFF746FF36
:103A180000206064236C23F0030343F00103236454
:103A2800E0E701207047000082B00023019390F87E
:103A38003C30012B00F08980012380F83C3003687A
:103A48009A6812F0010F13D19A6842F001029A6045
:103A5800414B1B68414AA2FB03239B0C03EB430326
:103A6800019302E0019B013B0193019B002BF9D1DB
:103A78000268936813F0010F5CD0036C23F4E063D1
:103A880023F0010343F480730364536813F4806FD5
:103A980005D0036C23F4405343F480530364036C50
:103AA80013F4805F1BD0436C23F0060343640023A8
:103AB80080F83C306FF022031360294B5B6813F0E9
:103AC8001F0F27D10368274A934211D002F580724D
:103AD800934207D0244A934214D0002033E00023B5
:103AE8004364E4E702F50072526812F01F0FF1D147
:103AF8009A6812F0405F2AD19A6842F080429A6030
:103B0800002020E002F58072526812F0100FEFD00A
:103B1800002018E00368134A934201D0002012E005
:103B28009A6812F0405F14D19A6842F080429A6015
:103B3800002008E0036C43F010030364436C43F077
:103B480001034364002002B070470220FBE7002015
:103B5800F9E70020F7E700BF0800002083DE1B43D9
:103B680000230140002001400022014090F83C3031
:103B7800012B19D0012380F83C300268936823F0A8
:103B88000103936003689B6813F0010F07D1036C6E
:103B980023F4885323F0010343F001030364002353
:103BA80080F83C30184670470220704770B50446CC
:103BB8000D4603689A6812F4806F03D09B6813F46B
:103BC800807F19D1FFF7CCF8064623681A6812F0EF
:103BD800020F20D1B5F1FF3FF7D0B5B923681B68B4
:103BE80013F0020FF1D1236C43F004032364002384
:103BF80084F83C30032032E0036C43F02003036474
:103C0800002380F83C30012029E0FFF7A9F8801B49
:103C1800A842DAD9E2E76FF012021A60236C43F483
:103C28000073236423689A6812F0405F16D1207EDF
:103C3800B0B9DA6A12F4700F03D09B6813F4806F7E
:103C48000DD1236C23F480732364236C13F4805FF9
:103C580005D1236C43F00103236400E0002070BD0C
:103C68000020FCE70368D86C7047000030B482B0CD
:103C78000022019290F83C20012A00F0B680034609
:103C8800012280F83C200A68092A40D90468E068C3
:103C980092B202EB42021E3A4FF0070C0CFA02F203
:103CA80020EA0202E2601C68E0680A8802EB42022D
:103CB8001E3A8D6805FA02F20243E2604A68062A53
:103CC8003CD81C68606B02EB8202053A4FF01F0C6F
:103CD8000CFA02F220EA020262631C68606B4A680E
:103CE80002EB8202053AB1F800C00CFA02F2024374
:103CF800626318683E4A904250D018683C4A904225
:103D080055D0002083F83C0002B030BC70470468EE
:103D1800206992B202EB42024FF0070C0CFA02F251
:103D280020EA020222611C6820690A8802EB42022A
:103D38008D6805FA02F202432261BFE70C2A16D801
:103D48001D68286B02EB8202233A1F2404FA02F250
:103D580020EA02022A631D68286B4A6802EB820285
:103D6800233A0C8804FA02F202432A63C1E71D6869
:103D7800E86A02EB8202413A1F2404FA02F220EABE
:103D88000202EA621D68E86A4A6802EB8202413A66
:103D98000C8804FA02F20243EA62AAE70A68122AC5
:103DA800ABD11448426842F480024260A5E70A6831
:103DB800103A012AA5D80F48426842F4000242602E
:103DC8000A68102A9DD10C4A12680C49A1FB0212FC
:103DD800920C02EB82025200019202E0019A013A2F
:103DE8000192019A002AF9D18BE702208CE700BFE3
:103DF80000200140002301400800002083DE1B430F
:103E0800DFF834D0FFF760F90C480D490D4A00235C
:103E180002E0D458C4500433C4188C42F9D30A4A77
:103E28000A4C002301E013600432A242FBD300F0E5
:103E380019F8FDF7E5F8704700000220000000209F
:103E480048000020F43E0008480000201802002026
:103E5800FEE702440346934200D1704703F8011B72
:103E6800F9E7000070B50D4D0D4C641BA410002639
:103E7800A64209D10B4D0C4C00F018F8641BA41095
:103E88000026A64205D170BD55F8043B9847013677
:103E9800EEE755F8043B98470136F2E7EC3E000898
:103EA800EC3E0008EC3E0008F03E0008F8B500BF04
:103EB800F8BC08BC9E467047F8B500BFF8BC08BC03
:043EC8009E4670475B
:103ECC0000000000010203040000000000000000DC
:083EDC000102030406070809B6
:083EE400F0CBFF7F010000009C
:043EEC00AD0100081C
:043EF000890100083C
:103EF40001000000100000000024F4000D05030080
:103F0400D507ED03F901FF006900000032202420E9
:103F14002F20302126212D21362220222B2234232A
:103F240022232923372721272A270000062C0D2C9A
:083F3400102C00240B241624BC
:0400000508003E09A8
:00000001FF
