:020000040800F2
:1000000000000220551800081D0900081F090008FB
:100010002109000823090008250900080000000044
:100020000000000000000000000000002709000898
:1000300029090008000000002B0900082D0900080C
:10004000A5180008A5180008A5180008A51800089C
:10005000A5180008A5180008A5180008A51800088C
:10006000A5180008A5180008A5180008A51800087C
:10007000A5180008A5180008A5180008A51800086C
:10008000A5180008A5180008A5180008A51800085C
:10009000A5180008A5180008A5180008A51800084C
:1000A000A5180008A5180008A5180008A51800083C
:1000B000A5180008A5180008A5180008A51800082C
:1000C000A5180008A5180008A5180008A51800081C
:1000D000A5180008A5180008A5180008A51800080C
:1000E000A5180008A5180008A5180008A5180008FC
:1000F000A5180008A5180008A5180008A5180008EC
:10010000A5180008A5180008A5180008A5180008DB
:10011000A5180008A5180008A5180008A5180008CB
:10012000A5180008A5180008A5180008A5180008BB
:10013000A5180008A5180008A5180008A5180008AB
:10014000A5180008A5180008A5180008A51800089B
:10015000A5180008A5180008A5180008A51800088B
:10016000A5180008A5180008A5180008A51800087B
:10017000A5180008A5180008A51800080000000030
:08018000A5180008A5180008ED
:1001900010B5054C237833B9044B13B10448AFF3C1
:1001A00000800123237010BD5C00002000000000CF
:1001B0001422000808B5034B1BB103490348AFF3F1
:1001C000008008BD0000000060000020142200082C
:1001D000034613F8012B002AFBD1181A0138704787
:1001E00001F0FF01102A2BDB10F0070F08D010F8E8
:1001F000013B013A8B422DD010F0070F42B3F6D1EC
:10020000F0B441EA012141EA014122F007047FF004
:1002100000070023F0E80256083C85EA010586EA5B
:10022000010685FA47F5A3FA87F586FA47F6A5FA97
:1002300087F68EB9EED1F0BC01F0FF0102F00702A3
:1002400032B110F8013B013A83EA010313B1F8D14E
:100250000020704701387047002D06BF354603382F
:10026000073815F0010F07D1013015F4807F02BF68
:10027000013015F4C03F0130F0BC0138704700BFB9
:1002800053B94AB9002908BF00281CBF4FF0FF31FD
:100290004FF0FF3000F06AB9ADF1080C6DE904CE03
:1002A00000F006F8DDF804E0DDE9022304B0704751
:1002B0002DE9F047089D0C46002B4ED194468C4505
:1002C0008646B2FA82F262D94AB1C2F12003914065
:1002D00020FA03F30CFA02FC194300FA02FE4FEA7B
:1002E0001C471FFA8CF6B1FBF7F44FEA1E4307FBDD
:1002F000141143EA014304FB06F199420AD91CEBAD
:10030000030304F1FF3080F01281994240F20F8123
:10031000023C6344591A1FFA8EF3B1FBF7F007FB56
:10032000101143EA014300FB06F69E420AD91CEB7A
:10033000030300F1FF3180F0FC809E4240F2F9801F
:10034000634402389B1B40EA044000211DB1D340A6
:100350000022C5E90032BDE8F0878B4205D90DB116
:10036000C5E9000100210846F5E7B3FA83F1002949
:1003700046D1A34202D39042C0F0F080861A64EBCB
:1003800003030120002DE6D0C5E90063E3E7002A5E
:1003900040F09080A1EB0C044FEA1C481FFA8CF748
:1003A0000121B4FBF8F64FEA1E4308FB164443EA6A
:1003B000044307FB06F0984208D91CEB030306F13F
:1003C000FF3402D2984200F2CD8026461C1A1FFA52
:1003D0008EF3B4FBF8F008FB104443EA044300FB3F
:1003E00007F79F4208D91CEB030300F1FF3402D248
:1003F0009F4200F2B0802046DB1B40EA0640A5E7A2
:10040000C1F120068B4022FA06F71F4320FA06FCB2
:1004100004FA01F343EA0C03F44000FA01F8380C43
:100420004FEA1349B4FBF0FE1FFA87FC00FB1E44A1
:1004300049EA04440EFB0CF9A14502FA01F20AD97B
:100440003C190EF1FF3A80F08480A14540F2818092
:10045000AEF1020E3C44A4EB09041FFA83F9B4FB8D
:10046000F0F300FB134449EA044403FB0CFCA445ED
:1004700007D93C1903F1FF3067D2A44565D9023B87
:100480003C4443EA0E40A0FB0293A4EB0C049C42C4
:10049000CE469C4651D34ED055B1B8EB0E0364EB1B
:1004A0000C0404FA06F6CB401E43CC40C5E90064B8
:1004B000002150E7C2F1200320FA03F10CFA02FCFC
:1004C00024FA03F394400C434FEA1C4800FA02FE5E
:1004D0001FFA8CF7B3FBF8F008FB1031230C43EA4A
:1004E000014300FB07F1994208D91CEB030300F11B
:1004F000FF362CD299422AD9023863445B1AA4B23F
:10050000B3FBF8F108FB113344EA034401FB07F3A2
:10051000A34208D91CEB040401F1FF3613D2A34215
:1005200011D902396444E41A41EA004139E704462A
:10053000F0E6084606E7C845AED2B9EB020E63EB1B
:10054000070C0138A8E73146EDE7034699E7304646
:10055000D4E7D6467FE7634402384DE70646234694
:1005600008460FE7023E634430E700BF704700BF14
:1005700084B000220192104B196B41F08001196385
:10058000196B01F08001019101990292196B41F000
:1005900001011963196B01F00101029102990392A3
:1005A0001A6B42F004021A631B6B03F004030393FB
:1005B000039B04B0704700BF00380240F8B5054601
:1005C000194C64273A460021204601F08DF928464F
:1005D000FFF7FEFD154E4FF47A7382B2294630467E
:1005E00000F04FFB4FF47A733A462146304600F054
:1005F000AEFB0F4D4FF47A730A220E49284600F0E5
:1006000040FB2046FFF7E4FD4FF47A7382B22146A7
:10061000284600F036FB4FF47A730222064928463A
:1006200000F02FFBF8BD00BF80000020CC010020AF
:10063000840100202C220008F822000838B501F0BF
:10064000C1F81F4B1860002513E04FF47A73152290
:100650001C491D4800F015FB1C4C1D4A1D49204635
:1006600001F022F92046FFF7A9FF4FF47A7001F05C
:10067000AFF8D5B9124B1C6804F59C44203401F046
:10068000A1F8844211D91448FFF798FF1049134884
:1006900001F032F90028D8D04FF47A7320221049A3
:1006A000094800F0EEFA0125DFE705B138BD4FF447
:1006B0007A731B220B49044800F0E3FAF6E700BF07
:1006C0007C0000206C22000884010020E40000204F
:1006D000D02300088422000838220008800000206F
:1006E00048220008AC22000838B52B48FFF766FF07
:1006F0004FF4FA6001F06CF8284C294B294A2A493A
:10070000204601F0D1F82046FFF758FF4FF4FA6079
:1007100001F05EF82548FFF751FF4FF4FA6001F051
:1007200057F8234D2846FFF753FD0246214920463E
:1007300001F0BAF82046FFF741FF4FF4FA6001F0EC
:1007400047F82846FFF73AFF4FF4FA6001F040F807
:100750001948FFF733FF41F2883001F039F81749A3
:10076000174801F0C9F870B14FF47A730F22154998
:10077000154800F086FA1548FFF720FF4FF4FA609D
:1007800001F026F838BD4FF47A730E2210490E4856
:1007900000F077FAEFE700BFC8220008E40000206D
:1007A000B4230008C0230008D8220008FC22000857
:1007B0003401002038230008502300086423000877
:1007C000800000207823000884010020982300087E
:1007D0008823000872B6FEE708B50A480A4B036092
:1007E0004FF4E133436000238360C36003610C2254
:1007F00042618361C36100F014FA00B908BDFFF7DC
:10080000E9FF00BFCC0100200044004008B50A48C1
:100810000A4B03604FF4E133436000238360C360FD
:1008200003610C2242618361C36100F0FAF900B9EF
:1008300008BDFFF7CFFF00BF840100200014014076
:1008400000B595B03022002108A801F04DF8002332
:100850000393049305930693079301931E4A116C27
:1008600041F080511164126C02F080520192019AA1
:1008700002931A4A116841F480411160126802F42F
:1008800080420292029A0222089201210B911021C9
:100890000C910E920F9308231093482311931292F8
:1008A0000423139308A800F0BBFA80B90F23039325
:1008B00002210491002305934FF48052069207937E
:1008C00003A800F0FDFC20B915B05DF804FBFFF7AC
:1008D00081FFFFF77FFF00BF00380240007000403B
:1008E00008B500F049FFFFF7ABFFFFF741FEFFF748
:1008F00073FFFFF78BFFFFF7A1FE6422044B1A8002
:100900000449054800F0D0FFFFF7EEFEF5E700BF11
:1009100078000020A823000834010020FEE7FEE74D
:10092000FEE7FEE7FEE770477047704708B500F046
:100930003DFF08BD82B0002100910B4B5A6C42F480
:1009400080425A645A6C02F480420092009A0191EB
:100950001A6C42F080521A641B6C03F080530193AE
:10096000019B02B0704700BF0038024000B58BB059
:100970000023059306930793089309930368274A76
:10098000934205D0264A934225D00BB05DF804FB74
:1009900000210191234B1A6C42F400321A641A6C44
:1009A00002F400320192019A02911A6B42F00102A4
:1009B0001A631B6B03F001030293029B0C23059344
:1009C00002230693032308930723099305A91648D6
:1009D00000F04CFDD9E700210391124B5A6C42F014
:1009E00020025A645A6C02F020020392039A049186
:1009F0001A6B42F004021A631B6B03F004030493A6
:100A0000049BC02305930223069303230893082322
:100A1000099305A9054800F029FDB6E70044004008
:100A2000001401400038024000000240000802406B
:100A3000026802F10C0353E8003F23F490730C3278
:100A400042E800310029F3D1026802F1140353E8AF
:100A5000003F23F00103143242E800310029F3D1B2
:100A6000036B012B05D0202380F842300023036361
:100A70007047026802F10C0353E8003F23F01003B3
:100A80000C3242E800310029F3D1ECE710B50446FE
:100A90000268136923F44053C1680B4313618368F0
:100AA00002691A4343691A43C3691A430168CB6850
:100AB00023F4164323F00C031343CB6002685369FD
:100AC00023F4407381690B4353610368314A9342B5
:100AD00006D002F58062934202D000F0A7FC01E04C
:100AE00000F0B4FCE369B3F5004F29D000210318EE
:100AF00049411B1841F10001C90041EA5371DB0073
:100B0000181863684FEA83024FEA937341F10001BA
:100B1000FFF7B6FB204AA2FB00314909642303FB1F
:100B200011031B013233A2FB03235B0903F0F00224
:100B300002EB011203F00F03216813448B6010BD18
:100B40000023021843EB0301121841F10001C90010
:100B500041EA5271D200101841F100016268921806
:100B60005B41FFF78DFB0C4AA2FB0031490964236E
:100B700003FB1103DB003233A2FB03235B095A00A2
:100B800002F4F87202EB011203F007032168134428
:100B90008B60D4E7001001401F85EB512DE9F04335
:100BA00083B005460E4617469946DDF828802B6827
:100BB0001C6836EA04040CBF01240024BC4228D17E
:100BC000B8F1FF3FF3D000F0FDFDA0EB0900404578
:100BD00023D8B8F1000F22D02B68DA6812F0040F86
:100BE000E5D0802EE3D0402EE1D01A6812F0080F35
:100BF000DDD0002401941A6801925B680193019B87
:100C00002846FFF715FF08236B6485F84040012054
:100C100000E0002003B0BDE8F0830320FAE70320E2
:100C2000F8E760B310B5044690F8413013B32423BD
:100C300084F841302268D36823F40053D3602046FF
:100C4000FFF724FF2268136923F49043136122689D
:100C5000536923F02A0353612268D36843F4005395
:100C6000D36000206064202384F8413084F842304F
:100C7000606310BD80F84030FFF778FED7E70120B1
:100C800070472DE9F04182B01E4690F84130DBB24A
:100C9000202B56D104460D469046002955D00AB95E
:100CA00001204FE000234364212380F8413000F00D
:100CB00089FD0746A4F82480A4F82680A368B3F52C
:100CC000805F02D04FF0000814E023692BB34FF08F
:100CD00000080FE0202384F84130032032E038F888
:100CE000023B2268C3F308035360E28C92B2013ADC
:100CF00092B2E284E38C9BB293B100963B46002211
:100D000080212046FFF74AFF0028E3D1002DE6D0DE
:100D100015F8012B23685A60E7E7A8460025E9E7A4
:100D200000963B46002240212046FFF737FF18B9C6
:100D3000202384F8413005E0202384F8413003204B
:100D400000E0022002B0BDE8F0810120FAE72DE9C1
:100D5000F04182B01E4690F84230DBB2202B59D1D0
:100D600004460D469046002958D00AB9012052E0A9
:100D700000234364222280F84220036300F022FD16
:100D80000746A4F82C80A4F82E80A368B3F5805FF2
:100D900002D04FF000081CE0236913B14FF00008A7
:100DA00017E0A846002514E0202384F842300320F1
:100DB00031E023685B68C3F3080328F8023B03E0D3
:100DC00023685B682B700135E28D92B2013A92B2D2
:100DD000E285E38D9BB2C3B100963B460022202101
:100DE0002046FFF7DBFE0028DED1002DE1D0A3680E
:100DF000B3F5805FE4D013B92369002BE0D02368FA
:100E00005B6803F07F032B70DDE7202384F842301A
:100E1000002000E0022002B0BDE8F0810120FAE7E6
:100E2000002800F0E08170B582B00446036813F03A
:100E3000010F3BD09F4B9B6803F00C03042B2CD07D
:100E40009C4B9B6803F00C03082B21D06368B3F51F
:100E5000803F4FD0B3F5A02F52D0964B1A6822F4A2
:100E600080321A601A6822F480221A606368002BAC
:100E700050D000F0A7FC05468E4B1B6813F4003FD2
:100E800014D100F09FFC401B6428F5D90320B1E188
:100E9000884B5B6813F4800FD8D0864B1B6813F423
:100EA000003F03D06368002B00F09F81236813F09C
:100EB000020F54D07F4B9B6813F00C0F3ED07D4B3C
:100EC0009B6803F00C03082B33D0E368002B68D039
:100ED000794B01221A6000F075FC0546754B1B68C2
:100EE00013F0020F54D100F06DFC401B0228F5D91D
:100EF00003207FE16F4A136843F480331360B5E742
:100F00006C4B1A6842F480221A601A6842F48032EC
:100F10001A60ABE700F056FC0546664B1B6813F4FD
:100F2000003FC3D000F04EFC401B6428F5D90320DD
:100F300060E1604B5B6813F4800FC6D15D4B1B68AA
:100F400013F0020F03D0E368012B40F05081594A9F
:100F5000136823F0F803216943EAC103136023688F
:100F600013F0080F42D063696BB3534B0122C3F8EF
:100F7000802E00F027FC05464E4B5B6F13F0020FEE
:100F800034D100F01FFC401B0228F5D9032031E1C9
:100F9000484A136823F0F803216943EAC103136048
:100FA000DDE7454B00221A6000F00CFC0546414B82
:100FB0001B6813F0020FD2D000F004FC401B022883
:100FC000F5D9032016E13C4B0022C3F8802E00F037
:100FD000F9FB0546374B5B6F13F0020F06D000F0AC
:100FE000F1FB401B0228F5D9032003E1236813F02D
:100FF000040F77D02F4B1B6C13F0805F33D100238D
:1010000001932C4B1A6C42F080521A641B6C03F053
:1010100080530193019B0125284B1B6813F4807FAB
:1010200023D0A368012B34D0052B38D0214B1A6F65
:1010300022F001021A671A6F22F004021A67A368ED
:10104000002B3DD000F0BEFB06461A4B1B6F13F081
:10105000020F46D100F0B6FB801B41F28833984264
:10106000F3D90320C6E00025D6E7144A136843F4F9
:101070008073136000F0A6FB0646104B1B6813F448
:10108000807FCED100F09EFB801B0228F5D9032083
:10109000B0E0084A136F43F001031367CFE7054B35
:1010A0001A6F42F004021A671A6F42F001021A67BF
:1010B000C5E700BF00380240000047420070004012
:1010C00000F080FB0646524B1B6F13F0020F08D056
:1010D00000F078FB801B41F288339842F3D903205B
:1010E00088E0EDB9A369002B00F08380484A92683C
:1010F00002F00C02082A51D0022B17D0454B0022D7
:101100001A6600F05FFB0446414B1B6813F0007F3A
:1011100042D000F057FB001B0228F5D9032069E0FC
:101120003B4A136C23F080531364DBE7394B0022F6
:101130001A6600F047FB0546354B1B6813F0007F2D
:1011400006D000F03FFB401B0228F5D9032051E0F8
:10115000E369226A1343626A43EA8213A26A52086D
:10116000013A43EA0243E26A43EA0263284A5360CF
:10117000284B01221A6600F025FB0446244B1B680D
:1011800013F0007F06D100F01DFB001B0228F5D9EB
:1011900003202FE000202DE000202BE0012B2BD09E
:1011A0001B4B5B6803F48001E269914226D103F096
:1011B0003F02216A8A4223D1616A47F6C0721A400F
:1011C000B2EB811F1ED103F44031A26A5208013AEA
:1011D000B1EB024F18D103F07063E26AB3EB026F18
:1011E00014D1002006E001207047012002E0012018
:1011F00000E0002002B070BD0120FBE70120F9E70C
:101200000120F7E70120F5E70120F3E70120F1E7EE
:10121000003802400000474208B5264B9B6803F0A7
:101220000C03042B41D0082B41D1224B5A6802F009
:101230003F025B6813F4800F12D01E4B5968C1F354
:1012400088111D480023A1FB0001FFF719F8194B75
:101250005B68C3F3014301335B00B0FBF3F027E0AD
:10126000144B5868C0F388104FEA401CBCEB000CCC
:101270006EEB0E0E4FEA8E1343EA9C634FEA8C111D
:10128000B1EB0C0163EB0E03DB0043EA5173C900C1
:1012900011EB000C43F10003990200234FEA8C206C
:1012A00041EA9C51FEF7ECFFD1E7034800E0034818
:1012B00008BD00BF0038024040787D010024F400E2
:1012C000002800F09B8070B50D4604464F4B1B680C
:1012D00003F007038B4208D2CBB24C4A1370136859
:1012E00003F007038B4240F08B80236813F0020F5A
:1012F00017D013F0040F04D0454A936843F4E05329
:101300009360236813F0080F04D0414A936843F4B4
:10131000604393603E4A936823F0F003A1680B4357
:101320009360236813F0010F32D06368012B21D042
:101330009A1E012A25D9364A126812F0020F61D08E
:1013400033498A6822F0030213438B6000F03AFAB3
:1013500006462F4B9B6803F00C036268B3EB820FC9
:1013600016D000F02FFA801B41F288339842F0D952
:10137000032042E0264A126812F4003FE0D1012027
:101380003BE0234A126812F0007FD9D1012034E0FB
:101390001E4B1B6803F00703AB4207D9EAB21B4B95
:1013A0001A701B6803F00703AB422DD1236813F0BA
:1013B000040F06D0164A936823F4E053E1680B4308
:1013C0009360236813F0080F07D0114A936823F441
:1013D0006043216943EAC1039360FFF71DFF0C4B93
:1013E0009B68C3F303130B4AD35CD8400A4B1860C5
:1013F0000A4B186800F09AF9002070BD0120704770
:101400000120FAE70120F8E70120F6E7003C02405E
:1014100000380240E42300080800002004000020F7
:10142000014B1868704700BF0800002008B5FFF79F
:10143000F7FF044B9B68C3F38223034AD35CD84075
:1014400008BD00BF00380240DC23000808B5FFF7E4
:10145000E7FF044B9B68C3F34233034AD35CD84095
:1014600008BD00BF00380240DC23000800230F2B1A
:1014700000F2E98070B582B065E085684FEA430EFE
:10148000032404FA0EF425EA0405CC6804FA0EF4E9
:101490002C438460446824EA02044A68C2F30012C0
:1014A0009A40224342605CE0DC08083450F8242073
:1014B00003F00705AD004FF00F0E0EFA05FE22EA0D
:1014C0000E0E0A69AA4042EA0E0240F824205CE0AF
:1014D000072200E0002202FA0EF22A4302345A4D9B
:1014E00045F82420594A94686FEA0C0224EA0C0556
:1014F0004E6816F4801F01D04CEA0405534CA560D9
:10150000E46802EA04054E6816F4001F01D04CEAB4
:1015100004054E4CE560646802EA04054E6816F462
:10152000003F01D04CEA0405484C65602468224025
:101530004D6815F4803F01D04CEA0402434C226010
:1015400001330F2B7DD801229A400C6804EA020C6B
:1015500032EA0404F4D14C6804F00304013C012C89
:101560008BD94A6802F00302032A09D0C4685D00DF
:101570000322AA4024EA02048A68AA402243C260E5
:101580004A6802F00302022A8ED004684FEA430E32
:10159000032202FA0EF224EA02044A6802F003026D
:1015A00002FA0EF2224302604A6812F4403FC7D0AA
:1015B00000220192264A546C44F480445464526CD4
:1015C00002F480420192019A9C08A51C1E4A52F81E
:1015D000255003F0030E4FEA8E0E0F2202FA0EF290
:1015E00025EA02051B4A90423FF474AF02F580627F
:1015F00090421AD002F58062904218D002F58062C3
:10160000904216D002F58062904214D002F58062BA
:10161000904212D002F58062904210D002F58062B2
:1016200090423FF455AF082255E7012253E70222CA
:1016300051E703224FE704224DE705224BE706223C
:1016400049E702B070BD704700380140003C0140DE
:101650000038024000000240002808DB0901C9B23E
:1016600000F1604000F5614080F80013704700F021
:101670000F000901C9B2014B1954704714ED00E085
:1016800000B500F00700C0F1070CBCF1040F28BF43
:101690004FF0040C031D062B0FD9C31E4FF0FF3E65
:1016A0000EFA0CF021EA000199400EFA03FE22EA3C
:1016B0000E0241EA02005DF804FB0023EEE70000A1
:1016C000074AD36823F4E0631B041B0C000200F4F8
:1016D000E060034343F0BF6343F40033D3607047DB
:1016E00000ED00E010B50446054BD868C0F30220B9
:1016F000FFF7C6FF01462046FFF7AEFF10BD00BF53
:1017000000ED00E00138B0F1807F0BD24FF0E02314
:101710005861054AF02182F82310002098610722C1
:101720001A6170470120704700ED00E010B50446D3
:101730000E4B1A784FF47A73B3FBF2F30C4A10682D
:10174000B0FBF3F0FFF7DEFF68B90F2C01D90120E1
:101750000AE0002221464FF0FF30FFF7C3FF054BA0
:101760001C60002000E0012010BD00BF0000002030
:10177000080000200400002008B50B4B1A6842F452
:1017800000721A601A6842F480621A601A6842F4A1
:1017900080721A600320FFF793FF0F20FFF7C6FF48
:1017A000FFF7C8F8002008BD003C0240034A11685A
:1017B000034B1B780B441360704700BF14020020DA
:1017C00000000020014B1868704700BF1402002081
:1017D00038B50446FFF7F6FF0546B4F1FF3F02D0E7
:1017E000044B1B781C44FFF7EDFF401BA042FAD3CB
:1017F00038BD00BF00000020034AD2F8883043F40F
:101800007003C2F88830704700ED00E010B5034661
:101810000C4A0D490D48006840B10C48006803446B
:10182000521A934206D8094A136010BD0748084C63
:101830000460F2E700F076F80C2303604FF0FF300D
:10184000F3E700BF0000022000040000180200209F
:1018500068030020DFF834D0FFF7CEFF0C480D49B5
:101860000D4A002302E0D458C4500433C4188C42FB
:10187000F9D30A4A0A4C002301E013600432A24261
:10188000FBD300F055F8FFF72BF87047000002205B
:10189000000000205C000020382400085C000020CC
:1018A00064030020FEE700000EB400B59CB01DAB41
:1018B000029006906FF00041094807910491094990
:1018C00053F8042B05910068019302A900F0AAF9CE
:1018D000029B00221A701CB05DF804EB03B0704745
:1018E0000C0000200802FFFF02440346934200D18F
:1018F000704703F8011BF9E70A7870B56AB970BD43
:101900009A4209D10C46054614F8013F002BF6D047
:1019100015F8016F9E42F7D001300378002BEFD10C
:101920001846ECE7014B1868704700BF0C00002018
:1019300070B50D4D0D4C641BA4100026A64209D1B4
:101940000B4D0C4C00F066FC641BA4100026A64254
:1019500005D170BD55F8043B98470136EEE755F8C0
:10196000043B98470136F2E7302400083024000891
:1019700030240008342400087047704738B5054605
:10198000002941D051F8043C0C1F002BB8BFE418CB
:1019900000F0E0F81D4A136833B96360146028460C
:1019A000BDE8384000F0DCB8A34208D9206821180F
:1019B0008B4201BF19685B6809182160EDE71A4680
:1019C0005B680BB1A342FAD911685018A0420BD141
:1019D00020680144501883421160E0D118685B68A8
:1019E000536008441060DAE702D90C232B60D6E775
:1019F000206821188B4204BF19685B68636004BFCC
:101A0000091821605460CAE738BD00BF6003002098
:101A100070B50F4E0C463168054611B900F0A6FBB3
:101A200030602146284600F0A1FB431C03D14FF053
:101A3000FF34204670BDC41C24F00304A042F8D03B
:101A4000211A284600F092FB0130F2D1EFE700BFE7
:101A50005C0300202DE9F843CD1C25F00305083573
:101A60000C2D38BF0C25002D064601DBA94204D9F8
:101A70000C2333600020BDE8F883DFF8D48000F049
:101A800069F8D8F800301C4644BB29463046FFF7B9
:101A9000BFFF431C044658D1D8F800402746002F0A
:101AA00043D1002C4BD023683946304604EB030960
:101AB00000F05CFB814542D121686D1A2946304611
:101AC000FFF7A6FF01303AD023682B442360D8F8F3
:101AD00000305A6862BBC8F800700FE02268521BE1
:101AE00020D40B2A17D96119A342256018BF596069
:101AF000636808BFC8F8001062514B60304600F0C0
:101B00002FF804F10B00231D20F00700C21A1CBFA0
:101B10001B1AA350AFE76268A3420CBFC8F80020AD
:101B20005A60EBE723466468AEE73C467F68B6E759
:101B30001A465B68A342FBD100235360DEE70C2307
:101B40003360304600F00CF894E70560D6E700BF3C
:101B5000600300200148FFF70FBF00BF58030020BB
:101B60000148FFF70ABF00BF580300202DE9F047E6
:101B70008E681F46BE420B6882460C4690462DD8A2
:101B8000B1F90C2012F4906F26D06569096905EB54
:101B90004505A3EB010905EBD5757B1C4B446D1086
:101BA0009D4238BF1D46530527D52946FFF752FFF2
:101BB000064660B321694A4600F0E8FAA38923F497
:101BC000906343F08003A381266165614E44A5EBD9
:101BD00009052660A5603E46BE4200D93E46206803
:101BE0003246414600F0A8FAA3689B1BA360236815
:101BF000334423600020BDE8F0872A4600F0D4FA81
:101C000006460028E0D121695046FFF7B7FE0C23B5
:101C1000CAF80030A38943F04003A3814FF0FF309E
:101C2000E9E700002DE9F04F98468B891B069DB02F
:101C300007460D46144610D50B6973B94021FFF7CE
:101C400009FF2860286130B90C233B604FF0FF305A
:101C50001DB0BDE8F08F40236B6100230993202362
:101C60008DF82930CDF80C803023DFF89C818DF879
:101C70002A304FF0010923469A4613F8012B0AB186
:101C8000252AF9D1BAEB040B0BD05B462246294634
:101C90003846FFF76BFF013000F0A780099A5A44DD
:101CA00009929AF80030002B00F09F8000234FF03B
:101CB000FF32CDE905230AF1010A049307938DF859
:101CC00053301A935446052214F8011B4E48FEF770
:101CD00087FA049AD8B9D00644BF20238DF8533030
:101CE000110744BF2B238DF853309AF800302A2B6C
:101CF00015D0079A544600204FF00A0C214611F8DF
:101D0000013B303B092B4BD9B0B1079214E0A0EB5B
:101D1000080309FA03F313430493A246D2E7039B93
:101D2000191D1B680391002BBBBF5B4242F00202EE
:101D300007930793B8BF049223782E2B0AD16378B8
:101D40002A2B32D1039B1A1D1B68039243EAE373CB
:101D500002340593DFF8C0A0217803225046FEF735
:101D60003FFA38B1049BA0EB0A00402282401343A3
:101D70000134049314F8011B24488DF8281006221E
:101D8000FEF72EFA002836D0214B1BBB039B0733EE
:101D900023F0070308330393099B334409936AE74D
:101DA0000CFB02320C460120A8E700230134059306
:101DB00019464FF00A0C204610F8012B303A092A38
:101DC00003D9002BC6D00591C4E70CFB01210446C2
:101DD0000123F0E703AB00932A460E4B04A93846D3
:101DE000AFF30080421C0646D6D1AB895B063FF5B7
:101DF0002DAF09982CE703AB00932A46054B04A9A5
:101E0000384600F079F8EDE7F4230008FE230008D7
:101E1000000000006D1B0008FA2300082DE9F047C0
:101E2000164698468A680B69DDF820909342B8BF41
:101E30001346336091F8432007460C460AB101333C
:101E400033602368990642BF3368023333602568E4
:101E500015F0060506D104F1190AE36832689B1AE9
:101E6000AB4226DC94F843302268003B18BF0123C4
:101E700092062BD404F1430241463846C84701304C
:101E80001ED02368226903F00603042B02BFE56815
:101E90003368ED1AA3680CBF25EAE5750025934267
:101EA000C4BF9B1AED1800261A34B5421AD100207F
:101EB00008E00123524641463846C847013003D165
:101EC0004FF0FF30BDE8F0870135C6E7E1185A1C36
:101ED000302081F84300224494F8451082F84310E2
:101EE0000233C7E70123224641463846C84701303E
:101EF000E6D00136D9E700002DE9FF470F7E0C9EA2
:101F0000782F914680460C469A4601F1430207D845
:101F1000622F0AD8002F00F0D280582F00F0B9802D
:101F200004F1420684F842703AE0A7F16303152BEE
:101F3000F6D801A151F823F0911F0008A51F000851
:101F4000211F0008211F0008211F0008211F000871
:101F5000A51F0008211F0008211F0008211F0008DD
:101F6000211F0008A5200008CF1F00085F200008DF
:101F7000211F0008211F0008C7200008211F00089A
:101F8000CF1F0008211F0008211F0008672000083C
:101F900033681A1D1B68326004F1420684F842302F
:101FA00001239DE033682068191D3160060601D5C4
:101FB0001D6803E04506FBD5B3F90050002D03DA98
:101FC0002D236D4284F8433059480A2311E02168DB
:101FD0003368080653F8045B02D4490648BFADB223
:101FE0006F2F5348336014BF0A230823002184F85D
:101FF00043106668A660002EA2BF216821F004018C
:1020000021600DB9002E4BD01646B5FBF3F103FB52
:102010001157C75D06F8017D2F46BB420D46F4D926
:10202000082B0BD12368DF0708D523696168994223
:10203000DEBF302306F8013C06F1FF36921B226119
:10204000CDF800A04B4603AA21464046FFF7E6FE26
:1020500001304AD14FF0FF3004B0BDE8F08723686B
:1020600043F0200323603348782784F845702368C1
:1020700031681F0651F8045B02D45F0648BFADB259
:102080003160D90744BF43F0200323601DB1102302
:10209000ACE72748E9E7236823F020032360F6E74D
:1020A0001646BDE7336825686169181D30602E0645
:1020B0001B6801D5196002E06806FBD51980002372
:1020C00023611646BCE733681A1D32601E686268D9
:1020D00000213046FEF784F808B1801B6060636819
:1020E0002361002384F84330AAE723693246494636
:1020F0004046D0470130ADD023689B0713D4E06839
:10210000039B9842B8BF1846A6E7012332464946CA
:102110004046D04701309DD00135E36803995B1AF2
:10212000AB42F2DCEBE7002504F11906F5E700BF4E
:102130000524000816240008884210B501EB0204AB
:1021400002D98442234607D8431EA14208D011F881
:10215000012B03F8012FF8E7024401468A4200D11F
:1021600010BD13F8014D02F8014DF7E738B5064DE3
:102170000023044608462B60FFF748FB431C02D1AE
:102180002B6803B1236038BD540300200A449142F8
:1021900000F1FF3300D1704710B511F8014B03F87F
:1021A000014F9142F9D110BD2DE9F041804615460D
:1021B0000C4621B9BDE8F0411146FFF74BBC2AB9E6
:1021C000FFF7DCFB00242046BDE8F08100F01AF8A0
:1021D0008542064602D8B5EB500FF4D82946404652
:1021E000FFF738FC07460028ECD0B5422A462146C6
:1021F00028BF3246FFF7CAFF21464046FFF7BEFB25
:102200003C46E0E751F8043C181F002BBCBF0B58BC
:10221000C0187047F8B500BFF8BC08BC9E467047B0
:0C222000F8B500BFF8BC08BC9E46704733
:10222C00526573706F6E73653A20000041542B43F6
:10223C004744434F4E543F0D0A00000041504E207E
:10224C0064756F63206361752068696E68207468BB
:10225C00616E6820636F6E67212E0D0A000000000E
:10226C0041504E206361752068696E682073616906
:10227C002E2E2E0D0A00000041542B434744434F91
:10228C004E543D312C224950222C222573222C22D3
:10229C00302E302E302E30222C302C300D0A0000F7
:1022AC0041504E20636F6E66696775726174696F19
:1022BC006E206661696C65642E0D0A0041542B48D2
:1022CC00545450494E49540D0A00000041542B48B7
:1022DC00545450504152413D2255524C222C2268AC
:1022EC00747470733A2F2F25732573220D0A000016
:1022FC0041542B48545450504152413D22434F4E6F
:10230C0054454E54222C226170706C69636174695F
:10231C006F6E2F782D7777772D666F726D2D7572A6
:10232C006C656E636F646564220D0A0041542B4822
:10233C00545450444154413D25642C31303030309C
:10234C000D0A000041542B48545450414354494FFA
:10235C004E3D310D0A0000002B485454504143545B
:10236C00494F4E3A20312C3230300000504F5354EC
:10237C0020737563636573732E0D0A00504F5354AD
:10238C00206661696C65642E0D0A000041542B486F
:10239C005454505445524D0D0A0000006469737436
:1023AC00616E63653D2564002F696E736572742ED2
:1023BC00706870006875792E61737366612E6E6536
:1023CC0074000000762D696E7465726E6574000081
:1023DC0000000000010203040000000000000000E7
:1023EC000102030406070809232D302B2000686C1A
:1023FC004C0065666745464700303132333435361C
:10240C003738394142434445460030313233343554
:0C241C0036373839616263646566000081
:08242800A8DDFF7F01000000A8
:04243000B5010008EA
:04243400910100080A
:1024380001000000100000000024F400100000203B
:10244800000000001C02002084020020EC02002092
:102458000000000000000000000000000000000074
:102468000000000000000000000000000000000064
:102478000000000000000000000000000000000054
:0C24880000000000000000000000000048
:040000050800185582
:00000001FF
