:020000040800F2
:1000000000000220053D00086D1300086F13000872
:100010007113000873130008751300080000000036
:10002000000000000000000000000000771300083E
:1000300079130008000000007B1300087D130008FE
:10004000553D0008553D0008553D0008553D000848
:10005000553D0008553D0008553D0008553D000838
:10006000553D0008553D0008553D0008553D000828
:10007000553D0008553D0008553D0008553D000818
:10008000553D0008553D0008553D0008553D000808
:10009000553D0008553D0008553D0008553D0008F8
:1000A000553D0008553D0008553D0008553D0008E8
:1000B000553D0008553D0008553D0008553D0008D8
:1000C000553D0008553D0008553D0008553D0008C8
:1000D000553D0008553D0008553D0008553D0008B8
:1000E000553D0008553D0008553D0008553D0008A8
:1000F000553D0008553D0008553D0008553D000898
:10010000553D0008553D0008553D0008553D000887
:10011000553D0008553D0008553D0008553D000877
:10012000553D0008553D0008553D0008553D000867
:10013000553D0008553D0008553D0008553D000857
:10014000553D0008553D0008553D0008553D000847
:10015000553D0008553D0008553D0008553D000837
:10016000553D0008553D0008553D0008553D000827
:10017000553D0008553D0008553D000800000000B1
:08018000553D0008553D000843
:1001900010B5054C237833B9044B13B10448AFF3C1
:1001A00000800123237010BDA0000020000000008B
:1001B000C446000808B5034B1BB103490348AFF31D
:1001C000008008BD00000000A4000020C446000814
:1001D000034613F8012B002AFBD1181A0138704787
:1001E00001F0FF01102A2BDB10F0070F08D010F8E8
:1001F000013B013A8B422DD010F0070F42B3F6D1EC
:10020000F0B441EA012141EA014122F007047FF004
:1002100000070023F0E80256083C85EA010586EA5B
:10022000010685FA47F5A3FA87F586FA47F6A5FA97
:1002300087F68EB9EED1F0BC01F0FF0102F00702A3
:1002400032B110F8013B013A83EA010313B1F8D14E
:100250000020704701387047002D06BF354603382F
:10026000073815F0010F07D1013015F4807F02BF68
:10027000013015F4C03F0130F0BC0138704700BFB9
:1002800081F0004102E000BF83F0004330B54FEA47
:1002900041044FEA430594EA050F08BF90EA020FB4
:1002A0001FBF54EA000C55EA020C7FEA645C7FEA47
:1002B000655C00F0E2804FEA5454D4EB5555B8BF6A
:1002C0006D420CDD2C4480EA020281EA030382EADB
:1002D000000083EA010180EA020281EA0303362D6D
:1002E00088BF30BD11F0004F4FEA01314FF4801C40
:1002F0004CEA113102D0404261EB410113F0004F52
:100300004FEA03334CEA133302D0524263EB430308
:1003100094EA050F00F0A780A4F10104D5F1200EA6
:100320000DDB02FA0EFC22FA05F2801841F1000101
:1003300003FA0EF2801843FA05F359410EE0A5F1D5
:1003400020050EF1200E012A03FA0EFC28BF4CF006
:10035000020C43FA05F3C01851EBE37101F00045BC
:1003600007D54FF0000EDCF1000C7EEB00006EEBC9
:100370000101B1F5801F1BD3B1F5001F0CD3490853
:100380005FEA30004FEA3C0C04F101044FEA4452AA
:1003900012F5800F80F09A80BCF1004F08BF5FEA31
:1003A000500C50F1000041EB045141EA050130BD11
:1003B0005FEA4C0C404141EB0101013C28BFB1F523
:1003C000801FE9D291F0000F04BF01460020B1FA6E
:1003D00081F308BF2033A3F10B03B3F120020CDA41
:1003E0000C3208DD02F1140CC2F10C0201FA0CF01F
:1003F00021FA02F10CE002F11402D8BFC2F1200C84
:1004000001FA02F120FA0CFCDCBF41EA0C01904039
:10041000E41AA2BF01EB0451294330BD6FEA040482
:100420001F3C1CDA0C340EDC04F11404C4F120026D
:1004300020FA04F001FA02F340EA030021FA04F37F
:1004400045EA030130BDC4F10C04C4F1200220FAD6
:1004500002F001FA04F340EA0300294630BD21FA14
:1004600004F0294630BD94F0000F83F4801306BFDA
:1004700081F480110134013D4EE77FEA645C18BFCE
:100480007FEA655C29D094EA050F08BF90EA020F65
:1004900005D054EA000C04BF1946104630BD91EA5D
:1004A000030F1EBF0021002030BD5FEA545C05D160
:1004B0004000494128BF41F0004130BD14F580049F
:1004C0003CBF01F5801130BD01F0004545F0FE4113
:1004D00041F470014FF0000030BD7FEA645C1ABF48
:1004E000194610467FEA655C1CBF0B46024650EA7F
:1004F000013406BF52EA033591EA030F41F40021AB
:1005000030BD00BF90F0000F04BF0021704730B530
:100510004FF4806404F132044FF000054FF0000105
:1005200050E700BF90F0000F04BF0021704730B5C6
:100530004FF4806404F1320410F0004548BF40429B
:100540004FF000013EE700BF42004FEAE2014FEAF0
:1005500031014FEA02701FBF12F07F4393F07F4FCB
:1005600081F06051704732F07F4208BF704793F0CE
:100570007F4F04BF41F40021704730B54FF46074E1
:1005800001F0004521F000411CE700BF50EA0102E4
:1005900008BF704730B54FF000050AE050EA01028D
:1005A00008BF704730B511F0004502D5404261EBFD
:1005B00041014FF4806404F132045FEA915C3FF43E
:1005C000D8AE4FF003025FEADC0C18BF03325FEADB
:1005D000DC0C18BF033202EBDC02C2F1200300FA8C
:1005E00003FC20FA02F001FA03FE40EA0E0021FAB1
:1005F00002F11444BDE600BF70B54FF0FF0C4CF49F
:10060000E06C1CEA11541DBF1CEA135594EA0C0F50
:1006100095EA0C0F00F0DEF82C4481EA030621EA8B
:100620004C5123EA4C5350EA013518BF52EA0335C6
:1006300041F4801143F4801338D0A0FB02CE4FF078
:100640000005E1FB02E506F00042E0FB03E54FF0A8
:100650000006E1FB03569CF0000F18BF4EF0010EA0
:10066000A4F1FF04B6F5007F64F5407404D25FEA9C
:100670004E0E6D4146EB060642EAC62141EA55514F
:100680004FEAC52040EA5E504FEACE2EB4F1FD0C91
:1006900088BFBCF5E06F1ED8BEF1004F08BF5FEA0F
:1006A000500E50F1000041EB045170BD06F00046C1
:1006B00046EA010140EA020081EA0301B4EB5C046E
:1006C000C2BFD4EB0C0541EA045170BD41F4801166
:1006D0004FF0000E013C00F3AB8014F1360FDEBF8B
:1006E000002001F0004170BDC4F10004203C35DA67
:1006F0000C341BDC04F11404C4F1200500FA05F3EA
:1007000020FA04F001FA05F240EA020001F000428A
:1007100021F0004110EBD37021FA04F642EB060100
:100720005EEA430E08BF20EAD37070BDC4F10C042A
:10073000C4F1200500FA04F320FA05F001FA04F2EE
:1007400040EA020001F0004110EBD37041F10001DA
:100750005EEA430E08BF20EAD37070BDC4F12005E5
:1007600000FA05F24EEA020E20FA04F301FA05F24D
:1007700043EA020321FA04F001F0004121FA04F2F5
:1007800020EA020000EBD3705EEA430E08BF20EAC5
:10079000D37070BD94F0000F0FD101F000464000FF
:1007A00041EB010111F4801F08BF013CF7D041EA81
:1007B000060195F0000F18BF704703F00046520085
:1007C00043EB030313F4801F08BF013DF7D043EA56
:1007D0000603704794EA0C0F0CEA135518BF95EA0C
:1007E0000C0F0CD050EA410618BF52EA4306D1D193
:1007F00081EA030101F000414FF0000070BD50EAB2
:10080000410606BF1046194652EA430619D094EA3B
:100810000C0F02D150EA013613D195EA0C0F05D125
:1008200052EA03361CBF104619460AD181EA030179
:1008300001F0004141F0FE4141F470014FF0000031
:1008400070BD41F0FE4141F4780170BD70B54FF0CC
:10085000FF0C4CF4E06C1CEA11541DBF1CEA13554C
:1008600094EA0C0F95EA0C0F00F0A7F8A4EB05042E
:1008700081EA030E52EA03354FEA013100F0888025
:100880004FEA03334FF0805545EA131343EA1263EE
:100890004FEA022245EA111545EA10654FEA0026A3
:1008A0000EF000419D4208BF964244F1FD0404F55C
:1008B000407402D25B084FEA3202B61A65EB0305B8
:1008C0005B084FEA32024FF480104FF4002CB6EB75
:1008D000020E75EB030E22BFB61A754640EA0C00F5
:1008E0005B084FEA3202B6EB020E75EB030E22BF35
:1008F000B61A754640EA5C005B084FEA3202B6EB76
:10090000020E75EB030E22BFB61A754640EA9C0034
:100910005B084FEA3202B6EB020E75EB030E22BF04
:10092000B61A754640EADC0055EA060E18D04FEAC2
:10093000051545EA16754FEA06164FEAC30343EA62
:1009400052734FEAC2025FEA1C1CC0D111F4801F2F
:100950000BD141EA00014FF000004FF0004CB6E728
:1009600011F4801F04BF01430020B4F1FD0C88BFC7
:10097000BCF5E06F3FF6AFAEB5EB030C04BFB6EBD2
:10098000020C5FEA500C50F1000041EB045170BDC5
:100990000EF0004E4EEA113114EB5C04C2BFD4EBF2
:1009A0000C0541EA045170BD41F480114FF0000E76
:1009B000013C90E645EA060E8DE60CEA135594EAF2
:1009C0000C0F08BF95EA0C0F3FF43BAF94EA0C0FF5
:1009D0000AD150EA01347FF434AF95EA0C0F7FF46A
:1009E00025AF104619462CE795EA0C0F06D152EABE
:1009F00003353FF4FDAE1046194622E750EA4106A2
:100A000018BF52EA43067FF4C5AE50EA41047FF4B2
:100A10000DAF52EA43057FF4EBAE12E74FEA410215
:100A2000B2F1E04324BFB3F5001CDCF1FE5C0DD94C
:100A300001F0004C4FEAC0024CEA5070B2F1004F96
:100A400040EB830008BF20F00100704711F0804F99
:100A500021D113F13872BCBF01F00040704741F45E
:100A600080114FEA5252C2F11802C2F1200C10FA62
:100A70000CF320FA02F018BF40F001004FEAC12346
:100A80004FEAD32303FA0CFC40EA0C0023FA02F3EA
:100A90004FEA4303CCE77FEA625307D150EA0133C0
:100AA0001EBF4FF0FE4040F44000704701F0004090
:100AB00040F0FE4040F40000704700BF7BB972B9BF
:100AC0000029BEBF00204FF0004106E008BF00280B
:100AD0001CBF6FF000414FF0FF3000F0B5B9ADF131
:100AE000080C6DE904CE002909DB002B1ADB00F0AD
:100AF0004DF8DDF804E0DDE9022304B07047404220
:100B000061EB4101002B1BDB00F040F8DDF804E055
:100B1000DDE9022304B0404261EB4101524263EB44
:100B200043037047524263EB430300F02FF8DDF8B4
:100B300004E0DDE9022304B0404261EB410170476B
:100B4000524263EB430300F021F8DDF804E0DDE9F5
:100B5000022304B0524263EB4303704753B94AB9CE
:100B6000002908BF00281CBF4FF0FF314FF0FF30B5
:100B700000F06AB9ADF1080C6DE904CE00F006F89A
:100B8000DDF804E0DDE9022304B070472DE9F04709
:100B9000089D0C46002B4ED194468C458646B2FAF1
:100BA00082F262D94AB1C2F12003914020FA03F3E4
:100BB0000CFA02FC194300FA02FE4FEA1C471FFA26
:100BC0008CF6B1FBF7F44FEA1E4307FB141143EA1E
:100BD000014304FB06F199420AD91CEB030304F11B
:100BE000FF3080F01281994240F20F81023C634451
:100BF000591A1FFA8EF3B1FBF7F007FB101143EA05
:100C0000014300FB06F69E420AD91CEB030300F1E8
:100C1000FF3180F0FC809E4240F2F980634402384C
:100C20009B1B40EA044000211DB1D3400022C5E9CE
:100C30000032BDE8F0878B4205D90DB1C5E900014E
:100C400000210846F5E7B3FA83F1002946D1A34213
:100C500002D39042C0F0F080861A64EB03030120B7
:100C6000002DE6D0C5E90063E3E7002A40F090805C
:100C7000A1EB0C044FEA1C481FFA8CF70121B4FBCE
:100C8000F8F64FEA1E4308FB164443EA044307FB09
:100C900006F0984208D91CEB030306F1FF3402D298
:100CA000984200F2CD8026461C1A1FFA8EF3B4FB40
:100CB000F8F008FB104443EA044300FB07F79F42A7
:100CC00008D91CEB030300F1FF3402D29F4200F26B
:100CD000B0802046DB1B40EA0640A5E7C1F12006B4
:100CE0008B4022FA06F71F4320FA06FC04FA01F3B0
:100CF00043EA0C03F44000FA01F8380C4FEA1349B8
:100D0000B4FBF0FE1FFA87FC00FB1E4449EA0444D2
:100D10000EFB0CF9A14502FA01F20AD93C190EF1B9
:100D2000FF3A80F08480A14540F28180AEF1020E4E
:100D30003C44A4EB09041FFA83F9B4FBF0F300FB75
:100D4000134449EA044403FB0CFCA44507D93C19AD
:100D500003F1FF3067D2A44565D9023B3C4443EA26
:100D60000E40A0FB0293A4EB0C049C42CE469C4692
:100D700051D34ED055B1B8EB0E0364EB0C0404FA1A
:100D800006F6CB401E43CC40C5E90064002150E785
:100D9000C2F1200320FA03F10CFA02FC24FA03F357
:100DA00094400C434FEA1C4800FA02FE1FFA8CF7ED
:100DB000B3FBF8F008FB1031230C43EA014300FBBE
:100DC00007F1994208D91CEB030300F1FF362CD23E
:100DD00099422AD9023863445B1AA4B2B3FBF8F1F2
:100DE00008FB113344EA034401FB07F3A34208D98B
:100DF0001CEB040401F1FF3613D2A34211D90239CE
:100E00006444E41A41EA004139E70446F0E6084642
:100E100006E7C845AED2B9EB020E63EB070C01380A
:100E2000A8E73146EDE7034699E73046D4E7D646D2
:100E30007FE7634402384DE70646234608460FE73E
:100E4000023E634430E700BF704700BF84B0002219
:100E50000092154B196B41F080011963196B01F079
:100E60008001009100990192196B41F00101196311
:100E7000196B01F00101019101990292196B41F086
:100E800004011963196B01F00401029102990392A4
:100E90001A6B42F002021A631B6B03F00203039306
:100EA000039B04B0704700BF0038024003689B6991
:100EB00013F0020F00D1704710B5044602F0A0FAFB
:100EC0000A2001F09BFA204602F0BCF910BD000098
:100ED000F8B50546194C64273A460021204602F031
:100EE0005BFF2846FFF774F9154E4FF47A7382B210
:100EF0002946304600F041FC4FF47A733A462146C9
:100F0000304600F0A0FC0F4D4FF47A730A220E49D0
:100F1000284600F032FC2046FFF75AF94FF47A7366
:100F200082B22146284600F028FC4FF47A73022250
:100F30000649284600F021FCF8BD00BF080100204A
:100F400004030020BC020020DC46000838480008EA
:100F500038B501F04DFA1F4B1860002513E04FF42F
:100F60007A7315221C491D4800F007FC1C4C1D4AD1
:100F70001D49204602F0F0FE2046FFF7A9FF4FF47E
:100F80007A7001F03BFAD5B9124B1C6804F56A542B
:100F9000183401F02DFA844211D91448FFF798FF54
:100FA0001049134802F000FF0028D8D04FF47A739C
:100FB00020221049094800F0E0FB0125DFE705B1D8
:100FC00038BD4FF47A731B220B49044800F0D5FB5F
:100FD000F6E700BF040100201C470008BC02002007
:100FE0006C010020D848000834470008E846000893
:100FF00008010020F84600085C47000838B52B4877
:10100000FFF766FF4FF4FA6001F0F8F9284C294B1E
:10101000294A2A49204602F09FFE2046FFF758FF42
:101020004FF4FA6001F0EAF92548FFF751FF4FF459
:10103000FA6001F0E3F9234D2846FFF7C9F80246AC
:101040002149204602F088FE2046FFF741FF4FF479
:10105000FA6001F0D3F92846FFF73AFF4FF4FA603F
:1010600001F0CCF91948FFF733FF41F2883001F065
:10107000C5F91749174802F097FE70B14FF47A731B
:101080000F221549154800F078FB1548FFF720FF9F
:101090004FF4FA6001F0B2F938BD4FF47A730E22C2
:1010A00010490E4800F069FBEFE700BF78470008E1
:1010B0006C010020B8480008C448000888470008B0
:1010C000AC470008BC010020E847000800480008C1
:1010D000144800080801002028480008BC0200202D
:1010E0004C4800083C48000872B6FEE708B50A48BC
:1010F0000A4B03604FF4E133436000238360C36015
:1011000003610C2242618361C36100F006FB00B9F8
:1011100008BDFFF7E9FF00BF0403002000440040C2
:1011200008B50A480A4B03604FF4E13343600023DB
:101130008360C36003610C2242618361C36100F07C
:10114000ECFA00B908BDFFF7CFFF00BFBC020020DA
:101150000014014008B50A480A4B03600A4B43607B
:1011600000238360C3604FF4804202614361836166
:10117000C361036202F066F800B908BDFFF7B4FF6F
:101180004C03002000540040A086010000B595B03B
:101190003022002108A802F0FFFD002303930493EE
:1011A00005930693079301931E4A116C41F08051F9
:1011B0001164126C02F080520192019A02931A4A51
:1011C000116841F480411160126802F48042029279
:1011D000029A0222089201210B9110210C910E9289
:1011E0000F9308231093482311931292042313930F
:1011F00008A800F091FB80B90F230393022104910A
:10120000002305934FF480520692079303A800F041
:10121000D3FD20B915B05DF804FBFFF765FFFFF7BC
:1012200063FF00BF003802400070004000B58BB083
:1012300001F0B8F8FFF7AAFFFFF708FEFFF756FF27
:10124000FFF76EFFFFF786FF3A4C2146442001F07E
:1012500017F92046FFF72AFE02E0012001F0CEF840
:10126000344B93F83D30DBB2202BF6D1324C314B6E
:10127000E36176232383314D284601F0ADFB2946F7
:10128000204601F0B2FB00B9FEE74FF4FA6001F02E
:10129000B5F8FFF75DFE2DE04FF4FA6001F0AEF80F
:1012A000274E32462749244801F032FC264B186865
:1012B000FFF74AF904460D46244B1B880893244B3C
:1012C0001B880793234B06933068FFF73DF9CDE960
:1012D0000401214B1B880293204B1868FFF734F957
:1012E000CDE9000122462B461D491E4802F034FD7F
:1012F000FFF784FE184B65221A80114B1A4A1A60B8
:10130000134B64221A80114BC8221A800123022237
:101310001946184601F02AF90028BDD101F0B0F9AC
:10132000094B83ED000A01F08FF90C4B83ED000AA5
:10133000B2E700BF4C030020CC000020C400002016
:10134000C0000020BC00002000010020F4000020AC
:10135000F600002000000020F8000020FC00002023
:101360005C480008BC0100200000F041FEE7FEE7F9
:10137000FEE7FEE7FEE770477047704708B501F0EB
:101380002BF808BD82B0002100910B4B5A6C42F43F
:1013900080425A645A6C02F480420092009A019191
:1013A0001A6C42F080521A641B6C03F08053019354
:1013B000019B02B0704700BF0038024030B589B0D1
:1013C0000023039304930593069307930268144B39
:1013D0009A4201D009B030BD00250195114C236B14
:1013E00043F002032363236B03F002030193019B89
:1013F000C023039312230493032306930423079328
:1014000003A9094800F0AEFD0295236C43F40013D4
:101410002364236C03F400130293029BDAE700BFFA
:1014200000540040003802400004024002680A4BA9
:101430009A4200D0704710B5084A136C23F4001389
:101440001364074C4021204600F082FE8021204694
:1014500000F07EFE10BD00BF005400400038024086
:101460000004024000B58BB0002305930693079358
:10147000089309930368274A934205D0264A93426A
:1014800025D00BB05DF804FB00210191234B1A6CB1
:1014900042F400321A641A6C02F400320192019A8A
:1014A00002911A6B42F001021A631B6B03F00103F5
:1014B0000293029B0C2305930223069303230893B4
:1014C0000723099305A9164800F04CFDD9E7002130
:1014D0000391124B5A6C42F020025A645A6C02F08B
:1014E00020020392039A04911A6B42F004021A63D9
:1014F0001B6B03F004030493049BC0230593022396
:101500000693032308930823099305A9054800F0CF
:1015100029FDB6E7004400400014014000380240B5
:101520000000024000080240026802F10C0353E888
:10153000003F23F490730C3242E800310029F3D1CC
:10154000026802F1140353E8003F23F00103143250
:1015500042E800310029F3D1036B012B05D0202391
:1015600080F84230002303637047026802F10C03E5
:1015700053E8003F23F010030C3242E80031002909
:10158000F3D1ECE710B504460268136923F4405325
:10159000C1680B431361836802691A4343691A43A4
:1015A000C3691A430168CB6823F4164323F00C0384
:1015B0001343CB600268536923F4407381690B4382
:1015C00053610368314A934206D002F58062934228
:1015D00002D000F0A7FC01E000F0B4FCE369B3F531
:1015E000004F29D00021031849411B1841F1000187
:1015F000C90041EA5371DB00181863684FEA83029F
:101600004FEA937341F10001FFF7A8FA204AA2FBC9
:1016100000314909642303FB11031B013233A2FB90
:1016200003235B0903F0F00202EB011203F00F0346
:10163000216813448B6010BD0023021843EB0301A3
:10164000121841F10001C90041EA5271D20010188C
:1016500041F10001626892185B41FFF77FFA0C4A82
:10166000A2FB00314909642303FB1103DB00323381
:10167000A2FB03235B095A0002F4F87202EB011289
:1016800003F00703216813448B60D4E70010014086
:101690001F85EB512DE9F04383B005460E461746F2
:1016A0009946DDF828802B681C6836EA04040CBFD4
:1016B00001240024BC4228D1B8F1FF3FF3D000F050
:1016C00097FEA0EB0900404523D8B8F1000F22D0C7
:1016D0002B68DA6812F0040FE5D0802EE3D0402E9C
:1016E000E1D01A6812F0080FDDD0002401941A68C6
:1016F00001925B680193019B2846FFF715FF0823C1
:101700006B6485F84040012000E0002003B0BDE894
:10171000F0830320FAE70320F8E760B310B504462E
:1017200090F8413013B3242384F841302268D36801
:1017300023F40053D3602046FFF724FF2268136987
:1017400023F4904313612268536923F02A03536101
:101750002268D36843F40053D360002060642023E0
:1017600084F8413084F84230606310BD80F8403026
:10177000FFF778FED7E7012070472DE9F04182B0EE
:101780001E4690F84130DBB2202B56D104460D4660
:101790009046002955D00AB901204FE00023436448
:1017A000212380F8413000F023FE0746A4F824806E
:1017B000A4F82680A368B3F5805F02D04FF000083C
:1017C00014E023692BB34FF000080FE0202384F8C6
:1017D0004130032032E038F8023B2268C3F30803AB
:1017E0005360E28C92B2013A92B2E284E38C9BB2F3
:1017F00093B100963B46002280212046FFF74AFF26
:101800000028E3D1002DE6D015F8012B23685A609B
:10181000E7E7A8460025E9E700963B46002240217D
:101820002046FFF737FF18B9202384F8413005E040
:10183000202384F84130032000E0022002B0BDE8FC
:10184000F0810120FAE72DE9F04182B01E4690F8C0
:101850004230DBB2202B59D104460D469046002978
:1018600058D00AB9012052E000234364222280F8B4
:101870004220036300F0BCFD0746A4F82C80A4F8C6
:101880002E80A368B3F5805F02D04FF000081CE003
:10189000236913B14FF0000817E0A846002514E0B3
:1018A000202384F84230032031E023685B68C3F3CF
:1018B000080328F8023B03E023685B682B700135BE
:1018C000E28D92B2013A92B2E285E38D9BB2C3B14E
:1018D00000963B46002220212046FFF7DBFE002831
:1018E000DED1002DE1D0A368B3F5805FE4D013B959
:1018F0002369002BE0D023685B6803F07F032B7023
:10190000DDE7202384F84230002000E0022002B00E
:10191000BDE8F0810120FAE7002800F0E08170B511
:1019200082B00446036813F0010F3BD09F4B9B68C5
:1019300003F00C03042B2CD09C4B9B6803F00C038E
:10194000082B21D06368B3F5803F4FD0B3F5A02FAB
:1019500052D0964B1A6822F480321A601A6822F428
:1019600080221A606368002B50D000F041FD0546CC
:101970008E4B1B6813F4003F14D100F039FD401B5F
:101980006428F5D90320B1E1884B5B6813F4800F1C
:10199000D8D0864B1B6813F4003F03D06368002B3C
:1019A00000F09F81236813F0020F54D07F4B9B6897
:1019B00013F00C0F3ED07D4B9B6803F00C03082BFB
:1019C00033D0E368002B68D0794B01221A6000F015
:1019D0000FFD0546754B1B6813F0020F54D100F044
:1019E00007FD401B0228F5D903207FE16F4A1368E9
:1019F00043F480331360B5E76C4B1A6842F48022DD
:101A00001A601A6842F480321A60ABE700F0F0FC0A
:101A10000546664B1B6813F4003FC3D000F0E8FC9A
:101A2000401B6428F5D9032060E1604B5B6813F428
:101A3000800FC6D15D4B1B6813F0020F03D0E36823
:101A4000012B40F05081594A136823F0F8032169B3
:101A500043EAC1031360236813F0080F42D063699F
:101A60006BB3534B0122C3F8802E00F0C1FC054636
:101A70004E4B5B6F13F0020F34D100F0B9FC401BEA
:101A80000228F5D9032031E1484A136823F0F8030E
:101A9000216943EAC1031360DDE7454B00221A6068
:101AA00000F0A6FC0546414B1B6813F0020FD2D094
:101AB00000F09EFC401B0228F5D9032016E13C4BA8
:101AC0000022C3F8802E00F093FC0546374B5B6F75
:101AD00013F0020F06D000F08BFC401B0228F5D952
:101AE000032003E1236813F0040F77D02F4B1B6C06
:101AF00013F0805F33D1002301932C4B1A6C42F01A
:101B000080521A641B6C03F080530193019B0125E2
:101B1000284B1B6813F4807F23D0A368012B34D09B
:101B2000052B38D0214B1A6F22F001021A671A6F69
:101B300022F004021A67A368002B3DD000F058FC85
:101B400006461A4B1B6F13F0020F46D100F050FCF3
:101B5000801B41F288339842F3D90320C6E0002568
:101B6000D6E7144A136843F48073136000F040FC16
:101B70000646104B1B6813F4807FCED100F038FC72
:101B8000801B0228F5D90320B0E0084A136F43F008
:101B900001031367CFE7054B1A6F42F004021A677F
:101BA0001A6F42F001021A67C5E700BF0038024011
:101BB000000047420070004000F01AFC0646524BFD
:101BC0001B6F13F0020F08D000F012FC801B41F2D3
:101BD00088339842F3D9032088E0EDB9A369002B3C
:101BE00000F08380484A926802F00C02082A51D023
:101BF000022B17D0454B00221A6600F0F9FB044671
:101C0000414B1B6813F0007F42D000F0F1FB001B3A
:101C10000228F5D9032069E03B4A136C23F0805376
:101C20001364DBE7394B00221A6600F0E1FB05463E
:101C3000354B1B6813F0007F06D000F0D9FB401B2A
:101C40000228F5D9032051E0E369226A1343626A4E
:101C500043EA8213A26A5208013A43EA0243E26A63
:101C600043EA0263284A5360284B01221A6600F0B7
:101C7000BFFB0446244B1B6813F0007F06D100F025
:101C8000B7FB001B0228F5D903202FE000202DE030
:101C900000202BE0012B2BD01B4B5B6803F4800151
:101CA000E269914226D103F03F02216A8A4223D1A0
:101CB000616A47F6C0721A40B2EB811F1ED103F46D
:101CC0004031A26A5208013AB1EB024F18D103F039
:101CD0007063E26AB3EB026F14D1002006E00120CA
:101CE0007047012002E0012000E0002002B070BD3A
:101CF0000120FBE70120F9E70120F7E70120F5E7E4
:101D00000120F3E70120F1E70038024000004742DC
:101D100008B5264B9B6803F00C03042B41D0082B1D
:101D200041D1224B5A6802F03F025B6813F4800FE6
:101D300012D01E4B5968C1F388111D480023A1FB26
:101D40000001FEF70BFF194B5B68C3F3014301333E
:101D50005B00B0FBF3F027E0144B5868C0F3881029
:101D60004FEA401CBCEB000C6EEB0E0E4FEA8E13DC
:101D700043EA9C634FEA8C11B1EB0C0163EB0E0359
:101D8000DB0043EA5173C90011EB000C43F100037F
:101D9000990200234FEA8C2041EA9C51FEF7DEFEB7
:101DA000D1E7034800E0034808BD00BF0038024007
:101DB00040787D010024F400002800F09B8070B57D
:101DC0000D4604464F4B1B6803F007038B4208D2B5
:101DD000CBB24C4A1370136803F007038B4240F0F8
:101DE0008B80236813F0020F17D013F0040F04D078
:101DF000454A936843F4E0539360236813F0080F57
:101E000004D0414A936843F4604393603E4A936828
:101E100023F0F003A1680B439360236813F0010FD4
:101E200032D06368012B21D09A1E012A25D9364A67
:101E3000126812F0020F61D033498A6822F003025F
:101E400013438B6000F0D4FA06462F4B9B6803F0D7
:101E50000C036268B3EB820F16D000F0C9FA801B46
:101E600041F288339842F0D9032042E0264A1268B2
:101E700012F4003FE0D101203BE0234A126812F047
:101E8000007FD9D1012034E01E4B1B6803F007030B
:101E9000AB4207D9EAB21B4B1A701B6803F0070369
:101EA000AB422DD1236813F0040F06D0164A936875
:101EB00023F4E053E1680B439360236813F0080FA9
:101EC00007D0114A936823F46043216943EAC103B0
:101ED0009360FFF71DFF0C4B9B68C3F303130B4A82
:101EE000D35CD8400A4B18600A4B186800F034FAEB
:101EF000002070BD012070470120FAE70120F8E7BB
:101F00000120F6E7003C024000380240EC4800089F
:101F1000100000200C000020014B1868704700BF23
:101F20001000002008B5FFF7F7FF044B9B68C3F3D0
:101F30008223034AD35CD84008BD00BF003802406A
:101F4000E448000808B5FFF7E7FF044B9B68C3F3BC
:101F50004233034AD35CD84008BD00BF003802407A
:101F6000E448000800230F2B00F2E98070B582B02E
:101F700065E085684FEA430E032404FA0EF425EA6F
:101F80000405CC6804FA0EF42C438460446824EA07
:101F900002044A68C2F300129A40224342605CE0A5
:101FA000DC08083450F8242003F00705AD004FF09A
:101FB0000F0E0EFA05FE22EA0E0E0A69AA4042EA48
:101FC0000E0240F824205CE0072200E0002202FA22
:101FD0000EF22A4302345A4D45F82420594A946897
:101FE0006FEA0C0224EA0C054E6816F4801F01D03B
:101FF0004CEA0405534CA560E46802EA04054E6807
:1020000016F4001F01D04CEA04054E4CE5606468EC
:1020100002EA04054E6816F4003F01D04CEA0405BC
:10202000484C6560246822404D6815F4803F01D01B
:102030004CEA0402434C226001330F2B7DD801226D
:102040009A400C6804EA020C32EA0404F4D14C68A9
:1020500004F00304013C012C8BD94A6802F003020E
:10206000032A09D0C4685D000322AA4024EA0204BE
:102070008A68AA402243C2604A6802F00302022A28
:102080008ED004684FEA430E032202FA0EF224EACD
:1020900002044A6802F0030202FA0EF222430260CE
:1020A0004A6812F4403FC7D000220192264A546C7D
:1020B00044F480445464526C02F480420192019AC8
:1020C0009C08A51C1E4A52F8255003F0030E4FEA47
:1020D0008E0E0F2202FA0EF225EA02051B4A9042EA
:1020E0003FF474AF02F5806290421AD002F580622C
:1020F000904218D002F58062904216D002F58062BC
:10210000904214D002F58062904212D002F58062B3
:10211000904210D002F5806290423FF455AF082201
:1021200055E7012253E7022251E703224FE7042239
:102130004DE705224BE7062249E702B070BD704724
:1021400000380140003C01400038024000000240DD
:1021500000230F2B00F28F80F0B52DE0072500E063
:10216000002505FA0CF5A54269D004685D004FF022
:10217000030C0CFA05FC24EA0C0404604FEAD30EAD
:102180000EF1080E50F82E4003F00706B6000F259A
:10219000B54024EA050440F82E40C46824EA0C0443
:1021A000C460446824EA02024260826822EA0C02A7
:1021B000826001330F2B5DD801229A4002EA0106AA
:1021C00032EA0104F5D14FEA930E0EF102052A4CD2
:1021D00054F8254003F0030C4FEA8C0C0F2505FA48
:1021E0000CF73C40254DA842BAD005F58065A842C1
:1021F00019D005F58065A84217D005F58065A8427D
:1022000015D005F58065A84213D005F58065A84274
:1022100011D005F58065A8420FD005F58065A8426C
:102220009CD008259DE701259BE7022599E703251A
:1022300097E7042595E7052593E7062591E7104CD8
:10224000256825EA06052560656825EA06056560B6
:10225000E56825EA0605E560A56825EA0605A560A6
:10226000054E0EF1020456F8245025EA070546F8FB
:1022700024507AE7F0BD704700380140000002406A
:10228000003C0140002808DB0901C9B200F16040B0
:1022900000F5614080F80013704700F00F0009015D
:1022A000C9B2014B1954704714ED00E000B500F0BD
:1022B0000700C0F1070CBCF1040F28BF4FF0040C5D
:1022C000031D062B0FD9C31E4FF0FF3E0EFA0CF074
:1022D00021EA000199400EFA03FE22EA0E0241EAC9
:1022E00002005DF804FB0023EEE70000074AD36814
:1022F00023F4E0631B041B0C000200F4E0600343C2
:1023000043F0BF6343F40033D360704700ED00E057
:1023100010B50446054BD868C0F30220FFF7C6FF8E
:1023200001462046FFF7AEFF10BD00BF00ED00E004
:102330000138B0F1807F0BD24FF0E0235861054A9D
:10234000F02182F823100020986107221A6170475B
:102350000120704700ED00E010B504460E4B1A78DE
:102360004FF47A73B3FBF2F30C4A1068B0FBF3F04E
:10237000FFF7DEFF68B90F2C01D901200AE0002227
:1023800021464FF0FF30FFF7C3FF054B1C600020D4
:1023900000E0012010BD00BF0A0000201000002056
:1023A0000C00002008B50B4B1A6842F400721A604A
:1023B0001A6842F480621A601A6842F480721A60E5
:1023C0000320FFF793FF0F20FFF7C6FFFEF7DAFFAA
:1023D000002008BD003C0240034A1168034B1B78F3
:1023E0000B441360704700BFA00300200A000020C8
:1023F000014B1868704700BFA003002038B50446A1
:10240000FFF7F6FF0546B4F1FF3F02D0044B1B78FF
:102410001C44FFF7EDFF401BA042FAD338BD00BFBC
:102420000A000020034AD2F8883043F47003C2F84F
:102430008830704700ED00E010B503460C4A0D49A6
:102440000D48006840B10C4800680344521A93429A
:1024500006D8094A136010BD0748084C0460F2E72B
:1024600001F0B8FC0C2303604FF0FF30F3E700BF2E
:102470000000022000040000A40300201805002032
:1024800038B5054C2070616000252572E560FFF7C6
:10249000AFFF2061656138BDA803002000B585B09D
:1024A000030A8DF80C308DF80D00084801784FF0C4
:1024B000FF330093022303AA4900406800F0BAFFEB
:1024C00000B1042005B05DF804FB00BFA8030020A4
:1024D00010B582B00246084C94F800C04FF0FF33AC
:1024E00000938BB24FEA4C01606801F05FF800B1D5
:1024F000042002B010BD00BFA803002018B10128BD
:102500000AD000207047094B187202EB42021144B6
:10251000074B33F811007047044A0120107203EB97
:1025200043031944034B33F811007047A8030020FC
:1025300044000020240000200246C9B2FF200EE023
:102540004000C0B2013BDBB23BB110F0800FF7D0CE
:10255000400080F03100C0B2F4E70139C9B221B1C6
:1025600012F8013B58400823EEE7704770B582B07F
:102570000E461D46FFF7C2FF04462F4A127AEAB103
:10258000012A21D02D4B985DFFF738FF06216846C0
:10259000FFF79EFF9DF8024002216846FFF7CCFF3F
:1025A000844232D09DF8054002210DF10300FFF76F
:1025B000C3FF844232D0012002B070BDFFF76EFF2E
:1025C0000028DFD00420F7E7FFF712FF1A4B1A6943
:1025D0005B69801A63EB4303194A32F81520824283
:1025E0004FF000029A4123DAFFF702FF124B186105
:1025F00000225A61DB68002BC4D12046FFF74EFF52
:10260000C0B90D4B0122DA60BCE79DF800209DF8AF
:10261000013003EB0223084A1383C3E79DF803202C
:102620009DF8043003EB0223034A53830020C3E7E1
:102630000320C1E70420BFE7A80300201400002006
:10264000180000200000000008B50B4B588BFDF768
:1026500069FF0022094BFDF7CFFF05A3D3E9002353
:10266000FEF7F4F8FEF7DAF900EE100A08BD00BF35
:1026700000000000E0FFEF40A803002000005940E8
:1026800008B50F4B188BFDF74DFF09A3D3E90023C5
:10269000FDF7B2FF08A3D3E90023FEF7D7F8002225
:1026A000084BFDF7F1FDFEF7B9F900EE100A08BD81
:1026B0000000000000E0654000000000E0FFEF4087
:1026C000A80300200080464000B503884FEA430C71
:1026D000CCEBE10CB0F902E00EFB0CFCC3EB2111DA
:1026E00001FB01F10913B0F9043003FB01F0801381
:1026F00000EBEC20106000EB8000803000125DF8F1
:1027000004FB2DE9F0410446D317B2F5FA3243F148
:10271000FF3302FB03F0A2FB02C707EB4007B4F94B
:1027200010004FEAE07E0CFB0EFE00FB07EEACFB58
:1027300000608644B4F90E004FEAE07800FB03F530
:1027400002FB0855A0FB020845446D0445EAD0355C
:10275000400480194EEB050EB4F90C500EEBC50E7B
:10276000B4F90A50EE170CFB06F605FB0766ACFB46
:1027700005C52E444FEA1C2C4CEA066CB4F90850EF
:10278000EF1705FB03F302FB0733A5FB02521344CB
:102790001B0343EA15532D031CEB050C43EB2623C7
:1027A00003F50043E288ACFB02C502FB03556A1047
:1027B000EB1753EA650561D0C1F580156910ED0787
:1027C0002D1A61EB0E0E15EB050C4EEB0E011CEBFA
:1027D000050C4EEB0101880140EA9C604FEA8C1623
:1027E0001CEB060C41EB0001890041EA9C714FEAA9
:1027F0008C0C1CEB050C4EEB0101890041EA9C712D
:102800004FEA8C0040194EEB0101FEF757F90346E1
:10281000B4F916604FEAE67C420B42EAC1424F131C
:1028200006FB07F502FB0C55A6FB026C654402FB98
:1028300005F506FB0755A2FB06263544520E42EA73
:10284000C512B4F914604FEAE67C06FB01F70CFBF5
:102850000070A6FB03673844F60C46EA40369B1826
:1028600041EB65619B1941EBE041180A40EA0160C8
:10287000B4F9123000EB0310BDE8F0810020FBE753
:1028800010B584B08E46B0F818C04FEA4C0C1FFA51
:102890008CF141F288340294019300920123724634
:1028A000C06901F0B3F800B1012004B010BD10B54B
:1028B00086B08C461446038B5B0099B24FF4FA73D2
:1028C00002930223019305AB009301236246C06982
:1028D00001F09CF848B99DF815209DF8143043EAA2
:1028E00002232380012006B010BD0020FBE710B5B5
:1028F000044602468821FFF7DAFF00B910BDA21C8A
:102900008A212046FFF7D3FF0028F7D0221D8C2113
:102910002046FFF7CCFF0028F0D0A21D8E212046D4
:10292000FFF7C5FF0028E9D004F1080290212046F6
:10293000FFF7BDFF0028E1D004F10A0292212046F2
:10294000FFF7B5FF0028D9D004F10C0294212046EE
:10295000FFF7ADFF0028D1D004F10E0296212046EA
:10296000FFF7A5FF0028C9D004F1100298212046E6
:10297000FFF79DFF0028C1D004F112029A212046E2
:10298000FFF795FF0028B9D004F114029C212046DE
:10299000FFF78DFF0028B1D004F116029E212046DA
:1029A000FFF785FFAAE700B587B08C468DF81720A2
:1029B000038B5B0099B242F21073029301230193DF
:1029C0000DF1170200926246C06900F06DFF00B180
:1029D000012007B05DF804FB03230370002242705E
:1029E0008370C37003714371704770B582B0038BFD
:1029F000763B9BB2012B03D90025284602B070BD5F
:102A000004460E46012300F12602D021FFF738FFCD
:102A1000002843D194F82630582B01D0602B3FD1A9
:102A2000B622E0212046FFF7BEFF00283AD101235D
:102A30000DF10702F3212046FFF722FF0028F6D10F
:102A40009DF8073013F0010FF1D12046FFF74FFF3B
:102A500005460028D1D073797278920042EA431279
:102A600002F0FC02F5212046FFF79DFFE0B9337824
:102A7000012B10D0F278B3789B0043EA42135BB28B
:102A800032781A43D2B2F4212046FFF78CFF002897
:102A9000B3D00025B1E700233370EBE70025ACE7A6
:102AA0000025AAE70025A8E70025A6E7F0B585B030
:102AB00004460F461646062302AAF721FFF7E0FE5A
:102AC00010B1002005B0F0BD9DF808309DF8095008
:102AD0002D0145EA03359DF80A3045EA13159DF8A6
:102AE0000B209DF80C301B0143EA02339DF80D10BA
:102AF00001AA43EA11112046FFF7E6FD3860019A6A
:102B000029462046FFF7FDFD30600120DAE700008E
:102B100030B583B00D4614466A4601A9FFF7C6FFDB
:102B200008B903B030BDDDED017AF8EEE77ADFEDEC
:102B3000086A87EEA67A85ED007ADDED007AF8EE78
:102B4000677A9FED047A67EE877AC4ED007AE8E74A
:102B50000000C8420000803B03685A6912F4806F8D
:102B600001D1002070476FF480625A610023036333
:102B7000202280F83D2080F83E30026C42F00402B2
:102B8000026480F83C30012070472DE9F041064690
:102B90000C46174698463BE0FFF72AFC069BC01AF6
:102BA000404502D8B8F1000F32D1012D18D033685A
:102BB0009B6924EA03039BB2B3FA83F35B099F4248
:102BC00026D100233363202286F83D2086F83E304C
:102BD000326C42F02002326486F83C30012027E05B
:102BE00033685B6924EA03039BB2B3FA83F35B099E
:102BF000E5E733685B6924EA030C1FFA8CFCBCFA36
:102C00008CFC4FEA5C1C674511D1B8F1FF3FC3D182
:102C1000C4F30745012DECD033689B6924EA030C0B
:102C20001FFA8CFCBCFA8CFC4FEA5C1CEBE7002022
:102C3000BDE8F0812DE9F84305460E4690469946D9
:102C400053E01A6842F400721A602B686FF48062D5
:102C50005A6100232B63202285F83D2085F83E3001
:102C60002A6C42F004022A6485F83C3001204AE0D4
:102C7000FFF7BEFBA0EB0900404502D8B8F1000FFA
:102C800033D1012F17D02B689B6926EA03039BB22F
:102C9000003B18BF012343B300232B63202285F898
:102CA0003D2085F83E302A6C42F020022A6485F8E7
:102CB0003C30012027E02B685B6926EA03039BB2C6
:102CC000003B18BF0123E6E72B689C6926EA040451
:102CD000A4B2003C18BF0124A4B12B685A6912F4B5
:102CE000806FAED1B8F1FF3FC2D1C6F30747012FC5
:102CF000EAD12B685C6926EA0404A4B2003C18BF40
:102D00000124E9E70020BDE8F8830000F0B583B0B6
:102D100004460D4616461F46C36A082B0DD0012BEC
:102D20000BD013F5803F08D0036B122B0AD1026839
:102D3000136843F48073136004E02268136843F45B
:102D4000807313600097334600224FF00111204634
:102D5000FFF71BFF80B92369B3F5804F16D12368B5
:102D600005F0FE051D613B46324613492046FFF73C
:102D700061FFF8B903B0F0BD23681B6813F4807FCE
:102D800002D04FF4007323640320F3E7EB112268B1
:102D900003F0060343F0F00313613B463246074954
:102DA0002046FFF747FF18B92368EDB21D61DAE747
:102DB0000120DFE70120DDE702000100080001003B
:102DC0002DE9F04184B004460D4616461F46C26AFE
:102DD00001680B6843F480630B60082A0DD0012A58
:102DE0000BD012F5803F08D0036B112B0AD102687B
:102DF000136843F48073136004E02268136843F49B
:102E0000807313600097334600224FF00111204673
:102E1000FFF7BBFE98B92369B3F5804F19D123683A
:102E200045F00105EDB21D613B4632462A49204678
:102E3000FFF700FF00284CD104B0BDE8F081236803
:102E40001B6813F4807F02D04FF4007323640320C7
:102E5000F2E74FEAE51808F00608236848F0F002A8
:102E60001A613B4632461D492046FFF7E3FE08B192
:102E70000120E1E72368EDB21D613B463246164969
:102E80002046FFF7D7FE08B10120D5E700220392C4
:102E9000236859690391996903910399196841F469
:102EA00080711960009733464FF001112046FFF7FB
:102EB0006CFE20B9226848F0F1031361B4E723687F
:102EC0001B6813F4807F02D04FF400732364032047
:102ED000B2E70120B0E700BF0200010008000100D6
:102EE00070B504460D46164623685B6913F0800FE3
:102EF00021D12046FFF730FEF8B9B5F1FF3FF3D0FE
:102F0000FFF776FA801BA84201D8002DECD1236888
:102F10005B6913F0800FE7D100232363202284F83C
:102F20003D2084F83E30226C42F02002226484F876
:102F30003C30012000E0002070BD0120FCE70000D3
:102F40002DE9F04385B004460D4691461F46DDF855
:102F500030800D9E0368196841F4807119600096F5
:102F6000434600224FF00111FFF70FFE60B92368BE
:102F700005F0FE051D613346424626492046FFF70F
:102F800059FE68B1012008E023681B6813F4807FB4
:102F900002D04FF400732364032005B0BDE8F08332
:102FA0000023039323685A6903929B690393039B4D
:102FB000324641462046FFF793FF30B9012F0FD12B
:102FC00023685FFA89F61E61E7E7236C042B01D0C2
:102FD0000120E2E72268136843F400731360F7E707
:102FE00023684FEA19221A61324641462046FFF70C
:102FF00077FF20B923685FFA89F61E61CDE7236C5D
:10300000042B01D00120C8E72268136843F4007341
:103010001360F7E7020001002DE9F04784B0044691
:103020000D46164699460C9FDDF8348002681368F9
:1030300043F4806313600368196841F48071196078
:10304000CDF800803B4600224FF00111FFF79DFDB7
:1030500070B95FFA85FA236805F0FE051D614346E5
:103060003A4641492046FFF7E5FD68B1012008E0F6
:1030700023681B6813F4807F02D04FF4007323642D
:10308000032004B0BDE8F0870023039323685A6946
:1030900003929B690393039B424639462046FFF700
:1030A0001FFF80B9B9F1010F18D12368F6B21E6174
:1030B000424639462046FFF713FF68B3236C042BC2
:1030C00024D00120DDE7236C042B01D00120D8E7B8
:1030D0002268136843F400731360F7E72368320A29
:1030E0001A61424639462046FFF7FAFE18B92368AE
:1030F000F6B21E61DCE7236C042B01D00120C0E78F
:103100002268136843F400731360F7E722681368BA
:1031100043F400731360D4E72268136843F48073A8
:103120001360CDF800803B4600224FF0011120468D
:10313000FFF72BFD68B922684AF00103136143468B
:103140003A4609492046FFF775FD002899D001202D
:1031500097E723681B6813F4807F02D04FF4007355
:10316000236403208DE700BF0200010070B5044610
:103170000D46164623685B6913F0040F21D12046E3
:10318000FFF7EAFCF8B9B5F1FF3FF3D0FFF730F9EC
:10319000801BA84201D8002DECD123685B6913F095
:1031A000040FE7D100232363202284F83D2084F814
:1031B0003E30226C42F02002226484F83C30012030
:1031C00000E0002070BD0120FCE770B504460D460C
:1031D000164614E06FF010025A6100232363202288
:1031E00084F83D2084F83E30226C226484F83C3020
:1031F000012025E023685B6913F0400F10D023689D
:10320000586910F0400F1AD1586910F0100FE1D131
:10321000FFF7EEF8801BA842ECD8002DEFD1E9E7CC
:1032200000232363202284F83D2084F83E30226C62
:1032300042F02002226484F83C30012000E00020AB
:1032400070BD0000002800F0CC8070B5044690F8F6
:103250003D30002B77D0242384F83D30226813685A
:1032600023F0010313602268136843F400431360E2
:103270002268136823F400431360FEF753FE62686C
:103280005A4B9A4264D85A4B98428CBF0023012370
:10329000002B40F0A8805749A1FB00318B0C25681A
:1032A0006A6822F03F0242EA91426A6021680A6A33
:1032B00022F03F0266684D4DAE424FD801331343B2
:1032C0000B622168CA6922F44F4222F0FF0265684E
:1032D000464B9D424CD8431E6D00B3FBF5F30133C2
:1032E00040F6FC70034278D0C3F30B031A43CA6163
:1032F00021680B6823F0C003E269206A024313438C
:103300000B6021688B6823F4034323F0FF032269D9
:10331000E068024313438B602168CB6823F0FF030E
:103320006269A06902431343CB602268136843F0CB
:103330000103136000202064202384F83D302063C3
:1033400084F83E0070BD80F83C30FEF737F882E725
:10335000294B98428CBF0023012399E74FF49675BF
:1033600005FB03F3254DA5FB03539B090133A6E79A
:10337000A668BEB9431E05EB450CB3FBFCF3013355
:10338000C3F30B03B3FA83F35B0943BBC6B9431E14
:1033900005EB4505B3FBF5F30133C3F30B0343F42E
:1033A0000043A3E7431E05EB850C0CEB8C0CB3FB31
:1033B000FCF30133C3F30B03B3FA83F35B09E4E7D4
:1033C000431E05EB850505EB8505B3FBF5F30133DE
:1033D000C3F30B0343F4404388E7042386E7012348
:1033E00084E7012070470120ACE700BFA086010000
:1033F0007F841E0083DE1B43FF083D00D34D621017
:10340000A8B110B50446242380F83D300268136843
:1034100023F001031360FEF709F80020206484F80C
:103420003D00206384F83E0084F83C0010BD01207C
:10343000704700002DE9F04385B004460F469146E1
:1034400098460C9EFEF7D4FF054694F83D00C0B2A6
:10345000202804D00227384605B0BDE8F083009547
:10346000192301224F492046FFF78FFB002840F027
:10347000928094F83C30012B00F08F80012384F877
:103480003C3023681A6812F0010F03D11A6842F029
:1034900001021A602268136823F400631360212379
:1034A00084F83D30102384F83E3000232364C4F8B0
:1034B0002490A4F82A80638D23853B4BE3622B463E
:1034C000324639462046FFF721FC0746002866D1E0
:1034D0000023039323685A6903929B690393039B18
:1034E00011E0236C042B01D00127B4E72268136894
:1034F00043F400731360F7E72A4631462046FFF78E
:1035000035FE00282ED1238D002B36D02A46314699
:103510002046FFF7E5FC0028E3D1626A23681278B1
:103520001A61606A431C6362618D89B2013989B294
:103530006185238D013B9BB223852268516911F07F
:10354000040FD9D0002BD7D043781361636A0133BD
:103550006362638D9BB2013B9BB26385238D013B0C
:103560002385C9E7236C042B01D0012773E7226868
:10357000136843F400731360F7E72268136843F499
:1035800000731360202384F83D30002384F83E301C
:1035900084F83C305FE702275DE702275BE70127FD
:1035A00059E700BF020010000000FFFF2DE9F043C3
:1035B00087B004460F46914698460E9EFEF718FFC8
:1035C000054694F83D00C0B2202804D002273846B2
:1035D00007B0BDE8F08300951923012289492046F0
:1035E000FFF7D3FA002840F04F8194F83C30012BCC
:1035F00000F04C81012384F83C3023681A6812F0F3
:10360000010F03D11A6842F001021A6022681368A0
:1036100023F400631360222384F83D30102384F8E0
:103620003E3000232364C4F82490A4F82A80638DDC
:103630002385754BE3622B46324639462046FFF719
:10364000BFFB0746002840F02381238D5BB902931E
:1036500023685A6902929A690292029A1A6842F49D
:1036600000721A607AE0012B0FD0022B1FD0226863
:10367000136843F4806313600023059323685A6939
:1036800005929B690593059B68E02268136823F403
:10369000806313600023039323685A6903929A6935
:1036A0000392039A1A6842F400721A6056E0226884
:1036B000136823F4806313602268136843F4006383
:1036C00013600023049323685A6904929B6904934E
:1036D000049B43E02A4631462046FFF776FD00284A
:1036E00040F0D88023681A69636A1A70636A0133EC
:1036F0006362238D013B2385638D9BB2013B9BB2AB
:1037000063852BE000953346002240492046FFF7B1
:103710003CFA002840F0C0802268136843F400732C
:10372000136023681A69636A1A70626A531C6362C1
:10373000238D013B2385638D9BB2013B9BB2638547
:1037400023681B695370636A01336362238D013BF5
:103750002385638D9BB2013B9BB26385218D00293C
:1037600000F08980032953D80129B3D00229C9D098
:1037700000953346002225492046FFF706FA002827
:1037800040F08C802268136823F480631360236800
:103790001A69636A1A70636A01336362238D013B9D
:1037A0002385618D89B2013989B2618500953346DF
:1037B000002216492046FFF7E8F9002870D1226858
:1037C000136843F40073136023681A69636A1A70FC
:1037D000626A531C6362238D013B2385638D9BB218
:1037E000013B9BB2638523681B695370636A013395
:1037F0006362238D013B2385638D9BB2013B9BB2AA
:103800006385ABE7020010000000FFFF0400010029
:103810002A4631462046FFF7D8FC002842D12368CB
:103820001A69636A1A70636A01336362228D013A0E
:1038300092B22285638D9BB2013B9BB26385236864
:10384000596911F0040F89D0032A0FD023681A692F
:10385000636A1A70636A01336362238D013B2385B7
:10386000638D9BB2013B9BB2638577E71A6822F4B4
:1038700080621A60EAE7202384F83D30002384F850
:103880003E3084F83C30A2E60227A0E602279EE6FE
:1038900001279CE601279AE6012798E6012796E68C
:1038A000012794E6012792E62DE9F04383B0044610
:1038B0000F46904699460C9EFEF79AFD054694F8F1
:1038C0003D00C0B2202803D0022003B0BDE8F08341
:1038D0000095192301224B492046FFF756F900288D
:1038E00040F0898094F83C30012B00F08680012361
:1038F00084F83C3023681A6812F0010F03D11A686B
:1039000042F001021A602268136823F40063136016
:10391000212384F83D30402384F83E300023236483
:103920000A9B6362BDF82C306385638D2385364B1B
:10393000E362019500964B46424639462046FFF722
:10394000FFFA00285BD1238D002B35D02A46314663
:103950002046FFF7C5FA20BB626A236812781A6115
:10396000626A531C6362218D013989B22185638D9E
:103970009BB2013B9BB263852368586910F0040F2A
:10398000E1D00029DFD052781A61636A01336362A3
:10399000238D013B2385638D9BB2013B9BB26385E5
:1039A000D1E7236C042B01D001208EE72268136835
:1039B00043F400731360F7E72A4631462046FFF7C9
:1039C000D5FB50B1236C042B01D001207DE7226888
:1039D000136843F400731360F7E72268136843F435
:1039E00000731360202384F83D30002384F83E30B8
:1039F00084F83C3069E7022067E7022065E7012090
:103A000063E700BF020010000000FFFF2DE9F04354
:103A100087B004460F4690469946109EFEF7E8FC94
:103A2000054694F83D00C0B2202804D0022738464D
:103A300007B0BDE8F083009519230122884920468C
:103A4000FFF7A3F8002840F04D8194F83C30012B9B
:103A500000F04A81012384F83C3023681A6812F090
:103A6000010F03D11A6842F001021A60226813683C
:103A700023F400631360222384F83D30402384F84C
:103A80003E30002323640E9B6362BDF83C306385A7
:103A9000638D2385734BE362019500964B46424646
:103AA00039462046FFF7B8FA0746002840F01E8145
:103AB000238D5BB9029323685A6902929A69029234
:103AC000029A1A6842F400721A6075E0012B0AD05B
:103AD000022B1AD00023059323685A6905929B692B
:103AE0000593059B68E02268136823F480631360E4
:103AF0000023039323685A6903929A690392039AF5
:103B00001A6842F400721A6056E02268136823F4BF
:103B1000806313602268136843F40063136000231A
:103B2000049323685A6904929B690493049B43E0BD
:103B30002A4631462046FFF748FB002840F0D8804F
:103B400023681A69636A1A70636A01336362238D9A
:103B5000013B2385638D9BB2013B9BB263852BE0C8
:103B600000953346002240492046FFF70EF8002812
:103B700040F0C0802268136843F400731360236828
:103B80001A69636A1A70626A531C6362238D013B6F
:103B90002385638D9BB2013B9BB2638523681B69C0
:103BA0005370636A01336362238D013B2385638D08
:103BB0009BB2013B9BB26385238D002B00F0898073
:103BC000032B53D8012BB3D0022BC9D00095334619
:103BD000002225492046FEF7D8FF002840F08C80BF
:103BE0002268136823F48063136023681A69636A88
:103BF0001A70636A01336362238D013B2385638DF1
:103C00009BB2013B9BB26385009533460022164967
:103C10002046FEF7BAFF002870D12268136843F4EB
:103C20000073136023681A69636A1A70626A531C0E
:103C30006362238D013B2385638D9BB2013B9BB265
:103C4000638523681B695370636A01336362238D44
:103C5000013B2385638D9BB2013B9BB26385ABE740
:103C6000020010000000FFFF040001002A46314658
:103C70002046FFF7AAFA002842D123681A69636A2E
:103C80001A70636A01336362228D013A92B222850F
:103C9000638D9BB2013B9BB263852368596911F028
:103CA000040F89D0032A0FD023681A69636A1A7037
:103CB000636A01336362238D013B2385638D9BB26D
:103CC000013B9BB2638577E71A6822F480621A6031
:103CD000EAE7202384F83D30002384F83E3084F85E
:103CE0003C30A4E60227A2E60227A0E601279EE6D2
:103CF00001279CE601279AE6012798E6012796E628
:103D0000012794E6DFF834D0FEF78CFB0C480D4910
:103D10000D4A002302E0D458C4500433C4188C4226
:103D2000F9D30A4A0A4C002301E013600432A2428C
:103D3000FBD300F055F8FDF779FA70470000022038
:103D400000000020A000002040490008A000002042
:103D500018050020FEE700000EB400B59CB01DABB6
:103D6000029006906FF000410948079104910949BB
:103D700053F8042B05910068019302A900F0AAF9F9
:103D8000029B00221A701CB05DF804EB03B0704770
:103D9000500000200802FFFF02440346934200D176
:103DA000704703F8011BF9E70A7870B56AB970BD6E
:103DB0009A4209D10C46054614F8013F002BF6D073
:103DC00015F8016F9E42F7D001300378002BEFD138
:103DD0001846ECE7014B1868704700BF5000002000
:103DE00070B50D4D0D4C641BA4100026A64209D1E0
:103DF0000B4D0C4C00F066FC641BA4100026A64280
:103E000005D170BD55F8043B98470136EEE755F8EB
:103E1000043B98470136F2E7384900083849000862
:103E2000384900083C4900087047704738B50546D6
:103E3000002941D051F8043C0C1F002BB8BFE418F6
:103E400000F0E0F81D4A136833B963601460284637
:103E5000BDE8384000F0DCB8A34208D9206821183A
:103E60008B4201BF19685B6809182160EDE71A46AB
:103E70005B680BB1A342FAD911685018A0420BD16C
:103E800020680144501883421160E0D118685B68D3
:103E9000536008441060DAE702D90C232B60D6E7A0
:103EA000206821188B4204BF19685B68636004BFF7
:103EB000091821605460CAE738BD00BF140500200E
:103EC00070B50F4E0C463168054611B900F0A6FBDF
:103ED00030602146284600F0A1FB431C03D14FF07F
:103EE000FF34204670BDC41C24F00304A042F8D067
:103EF000211A284600F092FB0130F2D1EFE700BF13
:103F0000100500202DE9F843CD1C25F003050835E8
:103F10000C2D38BF0C25002D064601DBA94204D923
:103F20000C2333600020BDE8F883DFF8D48000F074
:103F300069F8D8F800301C4644BB29463046FFF7E4
:103F4000BFFF431C044658D1D8F800402746002F35
:103F500043D1002C4BD023683946304604EB03098B
:103F600000F05CFB814542D121686D1A294630463C
:103F7000FFF7A6FF01303AD023682B442360D8F81E
:103F800000305A6862BBC8F800700FE02268521B0C
:103F900020D40B2A17D96119A342256018BF596094
:103FA000636808BFC8F8001062514B60304600F0EB
:103FB0002FF804F10B00231D20F00700C21A1CBFCC
:103FC0001B1AA350AFE76268A3420CBFC8F80020D9
:103FD0005A60EBE723466468AEE73C467F68B6E785
:103FE0001A465B68A342FBD100235360DEE70C2333
:103FF0003360304600F00CF894E70560D6E700BF68
:10400000140500200148FFF70FBF00BF0C0500207A
:104010000148FFF70ABF00BF0C0500202DE9F0475B
:104020008E681F46BE420B6882460C4690462DD8CD
:10403000B1F90C2012F4906F26D06569096905EB7F
:104040004505A3EB010905EBD5757B1C4B446D10B1
:104050009D4238BF1D46530527D52946FFF752FF1D
:10406000064660B321694A4600F0E8FAA38923F4C2
:10407000906343F08003A381266165614E44A5EB04
:1040800009052660A5603E46BE4200D93E4620682E
:104090003246414600F0A8FAA3689B1BA360236840
:1040A000334423600020BDE8F0872A4600F0D4FAAC
:1040B00006460028E0D121695046FFF7B7FE0C23E1
:1040C000CAF80030A38943F04003A3814FF0FF30CA
:1040D000E9E700002DE9F04F98468B891B069DB05B
:1040E00007460D46144610D50B6973B94021FFF7FA
:1040F00009FF2860286130B90C233B604FF0FF3086
:104100001DB0BDE8F08F40236B610023099320238D
:104110008DF82930CDF80C803023DFF89C818DF8A4
:104120002A304FF0010923469A4613F8012B0AB1B1
:10413000252AF9D1BAEB040B0BD05B46224629465F
:104140003846FFF76BFF013000F0A780099A5A4408
:1041500009929AF80030002B00F09F8000234FF066
:10416000FF32CDE905230AF1010A049307938DF884
:1041700053301A935446052214F8011B4E48FCF79D
:104180002FF8049AD8B9D00644BF20238DF85330B5
:10419000110744BF2B238DF853309AF800302A2B97
:1041A00015D0079A544600204FF00A0C214611F80A
:1041B000013B303B092B4BD9B0B1079214E0A0EB87
:1041C000080309FA03F313430493A246D2E7039BBF
:1041D000191D1B680391002BBBBF5B4242F002021A
:1041E00007930793B8BF049223782E2B0AD16378E4
:1041F0002A2B32D1039B1A1D1B68039243EAE373F7
:1042000002340593DFF8C0A0217803225046FBF763
:10421000E7FF38B1049BA0EB0A0040228240134321
:104220000134049314F8011B24488DF82810062249
:10423000FBF7D6FF002836D0214B1BBB039B07336F
:1042400023F0070308330393099B334409936AE778
:104250000CFB02320C460120A8E700230134059331
:1042600019464FF00A0C204610F8012B303A092A63
:1042700003D9002BC6D00591C4E70CFB01210446ED
:104280000123F0E703AB00932A460E4B04A93846FE
:10429000AFF30080421C0646D6D1AB895B063FF5E2
:1042A0002DAF09982CE703AB00932A46054B04A9D0
:1042B000384600F079F8EDE7FC48000806490008A8
:1042C000000000001D400008024900082DE9F047E9
:1042D000164698468A680B69DDF820909342B8BF6D
:1042E0001346336091F8432007460C460AB1013368
:1042F00033602368990642BF336802333360256810
:1043000015F0060506D104F1190AE36832689B1A14
:10431000AB4226DC94F843302268003B18BF0123EF
:1043200092062BD404F1430241463846C847013077
:104330001ED02368226903F00603042B02BFE56840
:104340003368ED1AA3680CBF25EAE5750025934292
:10435000C4BF9B1AED1800261A34B5421AD10020AA
:1043600008E00123524641463846C847013003D190
:104370004FF0FF30BDE8F0870135C6E7E1185A1C61
:10438000302081F84300224494F8451082F843100D
:104390000233C7E70123224641463846C847013069
:1043A000E6D00136D9E700002DE9FF470F7E0C9ECD
:1043B000782F914680460C469A4601F1430207D871
:1043C000622F0AD8002F00F0D280582F00F0B98059
:1043D00004F1420684F842703AE0A7F16303152B1A
:1043E000F6D801A151F823F04144000855440008D3
:1043F000D1430008D1430008D1430008D14300084D
:1044000055440008D1430008D1430008D1430008B7
:10441000D1430008554500087F4400080F450008B7
:10442000D1430008D143000877450008D143000874
:104430007F440008D1430008D14300081745000815
:1044400033681A1D1B68326004F1420684F842305A
:1044500001239DE033682068191D3160060601D5EF
:104460001D6803E04506FBD5B3F90050002D03DAC3
:104470002D236D4284F8433059480A2311E0216806
:104480003368080653F8045B02D4490648BFADB24E
:104490006F2F5348336014BF0A230823002184F888
:1044A00043106668A660002EA2BF216821F00401B7
:1044B00021600DB9002E4BD01646B5FBF3F103FB7E
:1044C0001157C75D06F8017D2F46BB420D46F4D952
:1044D000082B0BD12368DF0708D52369616899424F
:1044E000DEBF302306F8013C06F1FF36921B226145
:1044F000CDF800A04B4603AA21464046FFF7E6FE52
:1045000001304AD14FF0FF3004B0BDE8F087236896
:1045100043F0200323603348782784F845702368EC
:1045200031681F0651F8045B02D45F0648BFADB284
:104530003160D90744BF43F0200323601DB110232D
:10454000ACE72748E9E7236823F020032360F6E778
:104550001646BDE7336825686169181D30602E0670
:104560001B6801D5196002E06806FBD5198000239D
:1045700023611646BCE733681A1D32601E68626804
:1045800000213046FBF72CFE08B1801B6060636899
:104590002361002384F84330AAE723693246494661
:1045A0004046D0470130ADD023689B0713D4E06864
:1045B000039B9842B8BF1846A6E7012332464946F6
:1045C0004046D04701309DD00135E36803995B1A1E
:1045D000AB42F2DCEBE7002504F11906F5E700BF7A
:1045E0000D4900081E490008884210B501EB02047D
:1045F00002D98442234607D8431EA14208D011F8AD
:10460000012B03F8012FF8E7024401468A4200D14A
:1046100010BD13F8014D02F8014DF7E738B5064D0E
:104620000023044608462B60FDF706FF431C02D119
:104630002B6803B1236038BD080500200A4491426D
:1046400000F1FF3300D1704710B511F8014B03F8AA
:10465000014F9142F9D110BD2DE9F0418046154638
:104660000C4621B9BDE8F0411146FFF74BBC2AB911
:10467000FFF7DCFB00242046BDE8F08100F01AF8CB
:104680008542064602D8B5EB500FF4D8294640467D
:10469000FFF738FC07460028ECD0B5422A462146F1
:1046A00028BF3246FFF7CAFF21464046FFF7BEFB50
:1046B0003C46E0E751F8043C181F002BBCBF0B58E8
:1046C000C0187047F8B500BFF8BC08BC9E467047DC
:0C46D000F8B500BFF8BC08BC9E4670475F
:1046DC00526573706F6E73653A20000041542B4322
:1046EC004744434F4E543F0D0A00000041504E20AA
:1046FC0064756F63206361752068696E68207468E7
:10470C00616E6820636F6E67212E0D0A0000000039
:10471C0041504E206361752068696E682073616931
:10472C002E2E2E0D0A00000041542B434744434FBC
:10473C004E543D312C224950222C222573222C22FE
:10474C00302E302E302E30222C302C300D0A000022
:10475C0041504E20636F6E66696775726174696F44
:10476C006E206661696C65642E0D0A0041542B48FD
:10477C00545450494E49540D0A00000041542B48E2
:10478C00545450504152413D2255524C222C2268D7
:10479C00747470733A2F2F25732573220D0A000041
:1047AC0041542B48545450504152413D22434F4E9A
:1047BC0054454E54222C226170706C69636174698B
:1047CC006F6E2F782D7777772D666F726D2D7572D2
:1047DC006C656E636F646564220D0A0041542B484E
:1047EC00545450444154413D25642C3130303030C8
:1047FC000D0A000041542B48545450414354494F26
:10480C004E3D310D0A0000002B4854545041435486
:10481C00494F4E3A20312C3230300000504F535417
:10482C002073756363657373212121210D0A0000C8
:10483C00504F5354206661696C65642E0D0A00005C
:10484C0041542B485454505445524D0D0A0000000D
:10485C0074656D70657261747572653D252E326676
:10486C002668756D69646974793D252E32662664F7
:10487C007573743D25642661697270657273737506
:10488C0072653D252E3266266E6F646569643D2522
:10489C0073266C6F6E6769747564653D2564266C50
:1048AC00617469747564653D256400002F446F4123
:1048BC006E322E70687000006875796564322E61F6
:1048CC00737366612E6E657400000000762D696E40
:1048DC007465726E65740000000000000102030430
:1048EC000000000000000000010203040607080994
:1048FC00232D302B2000686C4C00656667454647BD
:10490C00003031323334353637383941424344453F
:10491C0046003031323334353637383961626364AE
:04492C0065660000BC
:08493000A0B8FF7F01000000A8
:04493800B5010008BD
:04493C0091010008DD
:10494000423145465254360000000100100000007C
:104950000024F4000D050300D507ED03F901FF0065
:1049600069000000322024202F20302126212D2113
:10497000362220222B2234232223292337272127C2
:104980002A270000062C0D2C102C00240B241624A2
:104990005400002000000000D00300203804002054
:1049A000A004002000000000000000000000000043
:1049B00000000000000000000000000000000000F7
:1049C00000000000000000000000000000000000E7
:1049D00000000000000000000000000000000000D7
:0400000508003D05AD
:00000001FF
