:020000040800F2
:1000000000500020A92300084D0B00084F0B0008EA
:10001000510B0008530B0008550B000800000000AE
:10002000000000000000000000000000570B000866
:10003000590B0008000000005B0B00085D0B000876
:10004000F1230008F1230008F1230008F123000840
:10005000F1230008F1230008F1230008F123000830
:10006000F1230008F1230008F1230008F123000820
:10007000F1230008F1230008F1230008F123000810
:10008000F1230008F1230008F1230008F123000800
:10009000F1230008F1230008F1230008F1230008F0
:1000A000F1230008F1230008F1230008F1230008E0
:1000B000F1230008F1230008F1230008F1230008D0
:1000C000F1230008F1230008F1230008F1230008C0
:1000D000F1230008F1230008F1230008F1230008B0
:1000E000F1230008F1230008F123000800000000BC
:1000F0000000000000000000000000000000000000
:0C01000000000000000000005FF808F1A3
:1001100010B5054C237833B9044B13B10448AFF341
:1001200000800123237010BD480000200000000063
:100130004C24000808B5034B1BB103490348AFF337
:10014000008008BD000000004C0000204C24000886
:1001500081F0004102E000BF83F0004330B54FEA78
:1001600041044FEA430594EA050F08BF90EA020FE5
:100170001FBF54EA000C55EA020C7FEA645C7FEA78
:10018000655C00F0E2804FEA5454D4EB5555B8BF9B
:100190006D420CDD2C4480EA020281EA030382EA0C
:1001A000000083EA010180EA020281EA0303362D9E
:1001B00088BF30BD11F0004F4FEA01314FF4801C71
:1001C0004CEA113102D0404261EB410113F0004F83
:1001D0004FEA03334CEA133302D0524263EB43033A
:1001E00094EA050F00F0A780A4F10104D5F1200ED8
:1001F0000DDB02FA0EFC22FA05F2801841F1000133
:1002000003FA0EF2801843FA05F359410EE0A5F106
:1002100020050EF1200E012A03FA0EFC28BF4CF037
:10022000020C43FA05F3C01851EBE37101F00045ED
:1002300007D54FF0000EDCF1000C7EEB00006EEBFA
:100240000101B1F5801F1BD3B1F5001F0CD3490884
:100250005FEA30004FEA3C0C04F101044FEA4452DB
:1002600012F5800F80F09A80BCF1004F08BF5FEA62
:10027000500C50F1000041EB045141EA050130BD42
:100280005FEA4C0C404141EB0101013C28BFB1F554
:10029000801FE9D291F0000F04BF01460020B1FA9F
:1002A00081F308BF2033A3F10B03B3F120020CDA72
:1002B0000C3208DD02F1140CC2F10C0201FA0CF050
:1002C00021FA02F10CE002F11402D8BFC2F1200CB5
:1002D00001FA02F120FA0CFCDCBF41EA0C0190406B
:1002E000E41AA2BF01EB0451294330BD6FEA0404B4
:1002F0001F3C1CDA0C340EDC04F11404C4F120029F
:1003000020FA04F001FA02F340EA030021FA04F3B0
:1003100045EA030130BDC4F10C04C4F1200220FA07
:1003200002F001FA04F340EA0300294630BD21FA45
:1003300004F0294630BD94F0000F83F4801306BF0B
:1003400081F480110134013D4EE77FEA645C18BFFF
:100350007FEA655C29D094EA050F08BF90EA020F96
:1003600005D054EA000C04BF1946104630BD91EA8E
:10037000030F1EBF0021002030BD5FEA545C05D191
:100380004000494128BF41F0004130BD14F58004D0
:100390003CBF01F5801130BD01F0004545F0FE4144
:1003A00041F470014FF0000030BD7FEA645C1ABF79
:1003B000194610467FEA655C1CBF0B46024650EAB0
:1003C000013406BF52EA033591EA030F41F40021DC
:1003D00030BD00BF90F0000F04BF0021704730B562
:1003E0004FF4806404F132044FF000054FF0000137
:1003F00050E700BF90F0000F04BF0021704730B5F8
:100400004FF4806404F1320410F0004548BF4042CC
:100410004FF000013EE700BF42004FEAE2014FEA21
:1004200031014FEA02701FBF12F07F4393F07F4FFC
:1004300081F06051704732F07F4208BF704793F0FF
:100440007F4F04BF41F40021704730B54FF4607412
:1004500001F0004521F000411CE700BF50EA010215
:1004600008BF704730B54FF000050AE050EA0102BE
:1004700008BF704730B511F0004502D5404261EB2E
:1004800041014FF4806404F132045FEA915C3FF46F
:10049000D8AE4FF003025FEADC0C18BF03325FEA0C
:1004A000DC0C18BF033202EBDC02C2F1200300FABD
:1004B00003FC20FA02F001FA03FE40EA0E0021FAE2
:1004C00002F11444BDE600BF70B54FF0FF0C4CF4D0
:1004D000E06C1CEA11541DBF1CEA135594EA0C0F82
:1004E00095EA0C0F00F0DEF82C4481EA030621EABD
:1004F0004C5123EA4C5350EA013518BF52EA0335F8
:1005000041F4801143F4801338D0A0FB02CE4FF0A9
:100510000005E1FB02E506F00042E0FB03E54FF0D9
:100520000006E1FB03569CF0000F18BF4EF0010ED1
:10053000A4F1FF04B6F5007F64F5407404D25FEACD
:100540004E0E6D4146EB060642EAC62141EA555180
:100550004FEAC52040EA5E504FEACE2EB4F1FD0CC2
:1005600088BFBCF5E06F1ED8BEF1004F08BF5FEA40
:10057000500E50F1000041EB045170BD06F00046F2
:1005800046EA010140EA020081EA0301B4EB5C049F
:10059000C2BFD4EB0C0541EA045170BD41F4801197
:1005A0004FF0000E013C00F3AB8014F1360FDEBFBC
:1005B000002001F0004170BDC4F10004203C35DA98
:1005C0000C341BDC04F11404C4F1200500FA05F31B
:1005D00020FA04F001FA05F240EA020001F00042BC
:1005E00021F0004110EBD37021FA04F642EB060132
:1005F0005EEA430E08BF20EAD37070BDC4F10C045C
:10060000C4F1200500FA04F320FA05F001FA04F21F
:1006100040EA020001F0004110EBD37041F100010B
:100620005EEA430E08BF20EAD37070BDC4F1200516
:1006300000FA05F24EEA020E20FA04F301FA05F27E
:1006400043EA020321FA04F001F0004121FA04F226
:1006500020EA020000EBD3705EEA430E08BF20EAF6
:10066000D37070BD94F0000F0FD101F00046400030
:1006700041EB010111F4801F08BF013CF7D041EAB2
:10068000060195F0000F18BF704703F000465200B6
:1006900043EB030313F4801F08BF013DF7D043EA87
:1006A0000603704794EA0C0F0CEA135518BF95EA3D
:1006B0000C0F0CD050EA410618BF52EA4306D1D1C4
:1006C00081EA030101F000414FF0000070BD50EAE3
:1006D000410606BF1046194652EA430619D094EA6D
:1006E0000C0F02D150EA013613D195EA0C0F05D157
:1006F00052EA03361CBF104619460AD181EA0301AB
:1007000001F0004141F0FE4141F470014FF0000062
:1007100070BD41F0FE4141F4780170BD70B54FF0FD
:10072000FF0C4CF4E06C1CEA11541DBF1CEA13557D
:1007300094EA0C0F95EA0C0F00F0A7F8A4EB05045F
:1007400081EA030E52EA03354FEA013100F0888056
:100750004FEA03334FF0805545EA131343EA12631F
:100760004FEA022245EA111545EA10654FEA0026D4
:100770000EF000419D4208BF964244F1FD0404F58D
:10078000407402D25B084FEA3202B61A65EB0305E9
:100790005B084FEA32024FF480104FF4002CB6EBA6
:1007A000020E75EB030E22BFB61A754640EA0C0026
:1007B0005B084FEA3202B6EB020E75EB030E22BF66
:1007C000B61A754640EA5C005B084FEA3202B6EBA7
:1007D000020E75EB030E22BFB61A754640EA9C0066
:1007E0005B084FEA3202B6EB020E75EB030E22BF36
:1007F000B61A754640EADC0055EA060E18D04FEAF4
:10080000051545EA16754FEA06164FEAC30343EA93
:1008100052734FEAC2025FEA1C1CC0D111F4801F60
:100820000BD141EA00014FF000004FF0004CB6E759
:1008300011F4801F04BF01430020B4F1FD0C88BFF8
:10084000BCF5E06F3FF6AFAEB5EB030C04BFB6EB03
:10085000020C5FEA500C50F1000041EB045170BDF6
:100860000EF0004E4EEA113114EB5C04C2BFD4EB23
:100870000C0541EA045170BD41F480114FF0000EA7
:10088000013C90E645EA060E8DE60CEA135594EA23
:100890000C0F08BF95EA0C0F3FF43BAF94EA0C0F26
:1008A0000AD150EA01347FF434AF95EA0C0F7FF49B
:1008B00025AF104619462CE795EA0C0F06D152EAEF
:1008C00003353FF4FDAE1046194622E750EA4106D3
:1008D00018BF52EA43067FF4C5AE50EA41047FF4E4
:1008E0000DAF52EA43057FF4EBAE12E74FEA410247
:1008F000B2F1E04324BFB3F5001CDCF1FE5C0DD97E
:1009000001F0004C4FEAC0024CEA5070B2F1004FC7
:1009100040EB830008BF20F00100704711F0804FCA
:1009200021D113F13872BCBF01F00040704741F48F
:1009300080114FEA5252C2F11802C2F1200C10FA93
:100940000CF320FA02F018BF40F001004FEAC12377
:100950004FEAD32303FA0CFC40EA0C0023FA02F31B
:100960004FEA4303CCE77FEA625307D150EA0133F1
:100970001EBF4FF0FE4040F44000704701F00040C1
:1009800040F0FE4040F40000704700BF30B589B031
:10099000002404940594069407941D4B9A6942F030
:1009A00010029A619A6902F010020092009A9A6904
:1009B00042F020029A619A6902F020020192019AA3
:1009C0009A6942F004029A619A6902F00402029262
:1009D000029A9A6942F008029A619B6903F008033F
:1009E0000393039B0B4D22464FF40051284601F020
:1009F00038FB4FF40053049301230593069402231C
:100A0000079304A9284601F017FA09B030BD00BFCA
:100A1000001002400010014072B6FEE708B50A4817
:100A20000A4B03600A4B436000238360C3604FF4AA
:100A30008042026143618361C361036200F044FB51
:100A400000B908BDFFF7E8FF700000200054004027
:100A5000A086010000B591B02822002106A801F06F
:100A6000C8FC00230193029303930493059301228E
:100A700006924FF4803307930A9202220D920E934E
:100A80004FF4E0130F9306A800F0D8FE80B90F23AF
:100A9000019302210291002303934FF48062049298
:100AA000059301A801F0FCF820B911B05DF804FB32
:100AB000FFF7B2FFFFF7B0FF08B500F071FEFFF7D8
:100AC000C9FFFFF763FFFFF7A9FF1A49442001F0B0
:100AD00043FB4FF4FA6000F087FE174A1388013396
:100AE000138015E0012302221946184601F0AEFBDF
:100AF00050B9124B01221A8001F032FC104B1860E1
:100B000001F012FC0F4B18604FF4FA7000F06CFE0D
:100B10000D4C4FF40051204601F0A9FA4FF400515A
:100B2000204601F097FA0128DCD1034A13880133EB
:100B30001380D7E7700000206600002064000020CA
:100B40006C0000206800002000100140FEE7FEE776
:100B5000FEE7FEE7FEE770477047704708B500F014
:100B600031FE08BD82B00E4B9A6942F001029A61D3
:100B70009A6902F001020092009ADA6942F080520A
:100B8000DA61DB6903F080530193019B054A5368E6
:100B900023F0E06343F00073536002B0704700BF7E
:100BA000001002400000014010B586B000230293FF
:100BB0000393049305930268114B9A4201D006B047
:100BC00010BD104CA36943F00803A361A36903F0AF
:100BD00008030093009BC023029312230393032373
:100BE000059302A9084801F027F9E36943F40013CB
:100BF000E361E36903F400130193019BDFE700BFA6
:100C00000054004000100240000C014003685A6983
:100C100012F4806F01D1002070476FF480625A6136
:100C200000230363202280F83D2080F83E30026CD0
:100C300042F00402026480F83C30012070472DE944
:100C4000F04106460C46174698463BE000F0C6FDCC
:100C5000069BC01A404502D8B8F1000F32D1012DD1
:100C600018D033689B6924EA03039BB2B3FA83F379
:100C70005B099F4226D100233363202286F83D2062
:100C800086F83E30326C42F02002326486F83C3006
:100C9000012027E033685B6924EA03039BB2B3FABF
:100CA00083F35B09E5E733685B6924EA030C1FFA09
:100CB0008CFCBCFA8CFC4FEA5C1C674511D1B8F186
:100CC000FF3FC3D1C4F30745012DECD033689B69C6
:100CD00024EA030C1FFA8CFCBCFA8CFC4FEA5C1C67
:100CE000EBE70020BDE8F0812DE9F84305460E460C
:100CF0009046994653E01A6842F400721A602B68D5
:100D00006FF480625A6100232B63202285F83D2016
:100D100085F83E302A6C42F004022A6485F83C30A3
:100D200001204AE000F05AFDA0EB0900404502D83E
:100D3000B8F1000F33D1012F17D02B689B6926EA39
:100D400003039BB2003B18BF012343B300232B6373
:100D5000202285F83D2085F83E302A6C42F02002A2
:100D60002A6485F83C30012027E02B685B6926EA7D
:100D700003039BB2003B18BF0123E6E72B689C6985
:100D800026EA0404A4B2003C18BF0124A4B12B68D5
:100D90005A6912F4806FAED1B8F1FF3FC2D1C6F3E9
:100DA0000747012FEAD12B685C6926EA0404A4B244
:100DB000003C18BF0124E9E70020BDE8F8830000EB
:100DC000F0B583B004460D4616461F46C36A082B8D
:100DD0000DD0012B0BD013F5803F08D0036B122BE5
:100DE0000AD10268136843F48073136004E0226838
:100DF000136843F4807313600097334600224FF06A
:100E000001112046FFF71BFF80B92369B3F5804F1E
:100E100016D1236805F0FE051D613B463246134995
:100E20002046FFF761FFF8B903B0F0BD23681B68E7
:100E300013F4807F02D04FF4007323640320F3E7A0
:100E4000EB11226803F0060343F0F00313613B4605
:100E5000324607492046FFF747FF18B92368EDB22D
:100E60001D61DAE70120DFE70120DDE70200010074
:100E7000080001002DE9F04184B004460D461646F5
:100E80001F46C26A01680B6843F480630B60082A3E
:100E90000DD0012A0BD012F5803F08D0036B112B27
:100EA0000AD10268136843F48073136004E0226877
:100EB000136843F4807313600097334600224FF0A9
:100EC00001112046FFF7BBFE98B92369B3F5804FA7
:100ED00019D1236845F00105EDB21D613B4632464C
:100EE0002A492046FFF700FF00284CD104B0BDE896
:100EF000F08123681B6813F4807F02D04FF40073E5
:100F000023640320F2E74FEAE51808F00608236897
:100F100048F0F0021A613B4632461D492046FFF771
:100F2000E3FE08B10120E1E72368EDB21D613B4615
:100F3000324616492046FFF7D7FE08B10120D5E713
:100F400000220392236859690391996903910399D7
:100F5000196841F480711960009733464FF0011110
:100F60002046FFF76CFE20B9226848F0F1031361B8
:100F7000B4E723681B6813F4807F02D04FF400733A
:100F800023640320B2E70120B0E700BF02000100A4
:100F90000800010070B504460D46164623685B69DB
:100FA00013F0800F21D12046FFF730FEF8B9B5F1DC
:100FB000FF3FF3D000F012FC801BA84201D8002DA7
:100FC000ECD123685B6913F0800FE7D10023236322
:100FD000202284F83D2084F83E30226C42F020022A
:100FE000226484F83C30012000E0002070BD012024
:100FF000FCE770B504460D46164623685B6913F09E
:10100000040F21D12046FFF701FEF8B9B5F1FF3FEB
:10101000F3D000F0E3FB801BA84201D8002DECD1F7
:1010200023685B6913F0040FE7D1002323632022B8
:1010300084F83D2084F83E30226C42F02002226485
:1010400084F83C30012000E0002070BD0120FCE766
:1010500070B504460D46164614E06FF010025A6152
:1010600000232363202284F83D2084F83E30226C44
:10107000226484F83C30012025E023685B6913F08A
:10108000400F10D02368586910F0400F1AD15869EA
:1010900010F0100FE1D100F0A1FB801BA842ECD8AA
:1010A000002DEFD1E9E700232363202284F83D20BF
:1010B00084F83E30226C42F02002226484F83C30F6
:1010C000012000E0002070BD002800F0CC8070B549
:1010D000044690F83D30002B77D0242384F83D302F
:1010E0002268136823F0010313602268136843F435
:1010F000004313602268136823F40043136000F078
:101100008BFE62685A4B9A4264D85A4B98428CBF05
:1011100000230123002B40F0A8805749A1FB003198
:101120008B0C25686A6822F03F0242EA91426A60AD
:1011300021680A6A22F03F0266684D4DAE424FD8E0
:10114000013313430B622168CA6922F44F4222F033
:10115000FF026568464B9D424CD8431E6D00B3FBB1
:10116000F5F3013340F6FC70034278D0C3F30B0370
:101170001A43CA6121680B6823F0C003E269206A40
:10118000024313430B6021688B6823F4034323F06D
:10119000FF032269E068024313438B602168CB6838
:1011A00023F0FF036269A06902431343CB60226806
:1011B000136843F00103136000202064202384F8A7
:1011C0003D30206384F83E0070BD80F83C30FFF76E
:1011D000EBFC82E7294B98428CBF0023012399E75F
:1011E0004FF4967505FB03F3254DA5FB03539B09AF
:1011F0000133A6E7A668BEB9431E05EB450CB3FB59
:10120000FCF30133C3F30B03B3FA83F35B0943BB72
:10121000C6B9431E05EB4505B3FBF5F30133C3F334
:101220000B0343F40043A3E7431E05EB850C0CEBD3
:101230008C0CB3FBFCF30133C3F30B03B3FA83F35E
:101240005B09E4E7431E05EB850505EB8505B3FB6C
:10125000F5F30133C3F30B0343F4404388E704235E
:1012600086E7012384E7012070470120ACE700BF37
:10127000A08601007F841E0083DE1B43FF083D0023
:10128000D34D62102DE9F04385B004460F469146D8
:1012900098460C9E00F0A2FA054694F83D00C0B2B4
:1012A000202804D00227384605B0BDE8F083009519
:1012B000192301224F492046FFF7C1FC002840F0C6
:1012C000928094F83C30012B00F08F80012384F849
:1012D0003C3023681A6812F0010F03D11A6842F0FB
:1012E00001021A602268136823F40063136021234B
:1012F00084F83D30102384F83E3000232364C4F882
:101300002490A4F82A80638D23853B4BE3622B460F
:10131000324639462046FFF753FD0746002866D17E
:101320000023039323685A6903929B690393039BE9
:1013300011E0236C042B01D00127B4E72268136865
:1013400043F400731360F7E72A4631462046FFF75F
:1013500050FE00282ED1238D002B36D02A46314650
:101360002046FFF717FE0028E3D1626A236812784F
:101370001A61606A431C6362618D89B2013989B266
:101380006185238D013B9BB223852268516911F051
:10139000040FD9D0002BD7D043781361636A01338F
:1013A0006362638D9BB2013B9BB26385238D013BDE
:1013B0002385C9E7236C042B01D0012773E722683A
:1013C000136843F400731360F7E72268136843F46B
:1013D00000731360202384F83D30002384F83E30EE
:1013E00084F83C305FE702275DE702275BE70127CF
:1013F00059E700BF020010000000FFFF2DE9F04395
:1014000089B004460F4691469846109E00230793E4
:1014100000F0E4F9054694F83D00C0B2202804D05D
:101420000227384609B0BDE8F08300951923012250
:1014300080492046FFF703FC002840F07A8194F8A9
:101440003C30012B00F07781012384F83C30236885
:101450001A6812F0010F03D11A6842F001021A60F3
:101460002268136823F400631360222384F83D305C
:10147000102384F83E3000232364C4F82490A4F899
:101480002A80638D23856C4BE3622B4632463946B6
:101490002046FFF7EFFC0746002840F04E81238DE1
:1014A0005BB9039323685A6903929A690392039A7A
:1014B0001A6842F400721A60F3E0012B0FD0022B7D
:1014C00021D02268136843F48063136000230693DD
:1014D00023685A6906929B690693069BE1E022689D
:1014E000136823F48063136072B6002304932368A7
:1014F0005A6904929A690492049A1A6842F4007232
:101500001A6062B6CDE02268136843F4006313608A
:1015100072B60023059323685A6905929A69059269
:10152000059A1A6822F480621A6062B6B9E02A4607
:1015300031462046FFF78CFD002840F000812368EB
:101540001A69636A1A70636A01336362238D013B0F
:101550002385638D9BB2013B9BB26385A1E000951F
:101560003346002235492046FFF769FB002840F04A
:10157000EA802268136823F48063136072B62368DC
:101580001A69636A1A70636A01336362238D013BCF
:101590002385638D9BB2013B9BB26385284B1B68FF
:1015A000DB08284AA2FB03231B0A03EB8303C3EBDC
:1015B000C30307930799013907910799002928D098
:1015C00023685A6912F0040FF4D01A6842F40072CA
:1015D0001A6023681A69636A1A70636A0133636266
:1015E000238D013B2385638D9BB2013B9BB26385B9
:1015F00062B623681A69636A1A70636A01336362A8
:10160000238D013B2385638D9BB2013B9BB2638598
:1016100047E000232363202284F83D2084F83E30F5
:10162000226C42F02002226462B684F83C3001272A
:10163000F7E600BF020010000000FFFF04000100F9
:101640000800002089B5F8142A4631462046FFF7E5
:10165000FFFC002879D123681A69636A1A70636AEB
:1016600001336362228D013A92B22285638D9BB26F
:10167000013B9BB263852368596911F0040F10D0B8
:10168000032A48D023681A69636A1A70636A0133AF
:101690006362238D013B2385638D9BB2013B9BB22B
:1016A0006385218D00293BD00329CDD801293FF442
:1016B0003EAF02297FF453AF009533460022244900
:1016C0002046FFF7BCFA00283BD172B622681368A7
:1016D00043F40073136023681A69636A1A70636ABB
:1016E00001336362238D013B2385638D9BB2013BF4
:1016F0009BB2638562B623681A69636A1A70636A6B
:1017000001336362238D013B2385638D9BB2013BD3
:101710009BB26385C5E71A6822F480621A60B1E75C
:10172000202384F83D30002384F83E3084F83C3098
:1017300077E6022775E6022773E6012771E601279F
:101740006FE601276DE601276BE6012769E600BF1A
:101750000400010010B504460E4B1A784FF47A735A
:10176000B3FBF2F30C4A1068B0FBF3F000F0DEFCC0
:1017700068B90F2C01D901200AE0002221464FF060
:10178000FF3000F0C3FC054B1C60002000E001208E
:1017900010BD00BF00000020080000200400002051
:1017A00008B5074A136843F010031360032000F0E4
:1017B0009BFC0F20FFF7CEFFFFF7D4F9002008BDF8
:1017C00000200240034A1168034B1B780B4413604E
:1017D000704700BFC400002000000020014B1868C3
:1017E000704700BFC400002038B50446FFF7F6FF7D
:1017F0000546B4F1FF3F02D0044B1B781C44FFF7B1
:10180000EDFF401BA042FAD338BD00BF000000200E
:1018100082B0084B1B68084AA2FB03235B0A00FB4B
:1018200003F3019300BF019B5A1E0192002BF9D1D3
:1018300002B0704708000020D34D6210002800F06D
:10184000F18170B582B00446036813F0010F2CD00B
:10185000994B5B6803F00C03042B1DD0964B5B681F
:1018600003F00C03082B12D06368B3F5803F41D01E
:10187000002B55D103F1804303F504331A6822F499
:1018800080321A601A6822F480221A6037E08A4B8C
:101890005B6813F4803FE7D0874B1B6813F4003F6D
:1018A00003D06368002B00F0BF81236813F0020FA0
:1018B00075D0814B5B6813F00C0F5FD07E4B5B687B
:1018C00003F00C03082B54D02369002B00F08A800E
:1018D0007A4B01221A60FFF781FF0546764B1B68A1
:1018E00013F0020F75D1FFF779FF401B0228F5D9DD
:1018F00003209EE1704A136843F4803313606368E9
:1019000043B3FFF76BFF05466B4B1B6813F4003FB7
:10191000CBD1FFF763FF401B6428F5D9032088E192
:10192000B3F5A02F09D0644B1A6822F480321A60F4
:101930001A6822F480221A60E1E703F18043A3F5DC
:101940003C331A6842F480221A601A6842F48032EA
:101950001A60D4E7FFF742FF0546574B1B6813F4A4
:10196000003FA2D0FFF73AFF401B6428F5D90320BF
:101970005FE1514B5B6813F4803FA5D14E4B1B6870
:1019800013F0020F03D02369012B40F04F814A4A24
:10199000136823F0F803616943EAC1031360236805
:1019A00013F0080F33D0A369002B5CD0434B012206
:1019B000C3F88024FFF712FF05463F4B5B6A13F024
:1019C000020F21D1FFF70AFF401B0228F5D903209F
:1019D0002FE1394A136823F0F803616943EAC10330
:1019E0001360DCE7354B00221A60FFF7F7FE05466F
:1019F000314B1B6813F0020FD1D0FFF7EFFE401BF5
:101A00000228F5D9032014E10120FFF701FF236824
:101A100013F0040F00F09680274BDB6913F0805F12
:101A200034D1254BDA6942F08052DA61DB6903F088
:101A300080530193019B0125214B1B6813F4807F88
:101A400026D0E368012B3DD0002B53D103F1804316
:101A500003F504331A6A22F001021A621A6A22F0AC
:101A600004021A6233E0154B0022C3F88024FFF70A
:101A7000B5FE0546104B5B6A13F0020FC7D0FFF7A7
:101A8000ADFE401B0228F5D90320D2E00025D3E7A4
:101A90000B4A136843F480731360FFF79FFE0646FA
:101AA000074B1B6813F4807FCBD1FFF797FE801B99
:101AB0006428F5D90320BCE0001002400000424237
:101AC000007000405F4A136A43F001031362E36849
:101AD00033B3FFF783FE06465A4B1B6A13F0020F1F
:101AE0002FD1FFF77BFE801B41F288339842F3D958
:101AF00003209EE0052B09D0524B1A6A22F0010206
:101B00001A621A6A22F004021A62E0E74D4B1A6A5E
:101B100042F004021A621A6A42F001021A62D6E71F
:101B2000FFF75CFE0646474B1B6A13F0020F08D016
:101B3000FFF754FE801B41F288339842F3D903200B
:101B400077E0E5B9E369002B72D03E4A526802F0B3
:101B50000C02082A56D0022B17D03B4B00221A66E3
:101B6000FFF73CFE0446374B1B6813F0007F47D05D
:101B7000FFF734FE001B0228F5D9032059E0314A53
:101B8000D36923F08053D361DCE72F4B00221A6620
:101B9000FFF724FE05462B4B1B6813F0007F06D091
:101BA000FFF71CFE401B0228F5D9032041E0236A01
:101BB000B3F5803F1AD023494B6823F47413226A8B
:101BC000606A024313434B601F4B01221A66FFF702
:101BD00005FE04461B4B1B6813F0007F0ED1FFF778
:101BE000FDFD001B0228F5D9032022E0154A5368A9
:101BF00023F40033A1680B435360DCE7002018E0B6
:101C0000002016E0012B16D00E4B5B6803F48031E8
:101C1000226A914211D103F47013626A93420ED189
:101C2000002006E001207047012002E0012000E0D2
:101C3000002002B070BD0120FBE70120F9E7012080
:101C4000F7E700BF00100240000042420F4B5B6804
:101C500003F00C02082A01D00D487047C3F38342F9
:101C60000C49885C13F4803F0BD0084B5B68C3F3CE
:101C70004043094AD35C064A02FB00F0B0FBF3F094
:101C80007047064B03FB00F0704700BF0010024096
:101C900000127A00682400086424000800093D004E
:101CA000002800F0A08070B50D460446524B1B681A
:101CB00003F007038B420BD24F4A136823F007034C
:101CC0000B431360136803F007038B4240F08D80D1
:101CD000236813F0020F17D013F0040F04D0474A03
:101CE000536843F4E0635360236813F0080F04D093
:101CF000424A536843F460535360404A536823F0A8
:101D0000F003A1680B435360236813F0010F31D037
:101D10006368012B20D0022B25D0384A126812F0BC
:101D2000020F64D035494A6822F0030213434B6026
:101D3000FFF754FD0646314B5B6803F00C03626805
:101D4000B3EB820F16D0FFF749FD801B41F28833B9
:101D50009842F0D9032045E0284A126812F4003F67
:101D6000E0D101203EE0254A126812F0007FD9D16F
:101D7000012037E0204B1B6803F00703AB420AD970
:101D80001D4A136823F007032B431360136803F005
:101D90000703AB422DD1236813F0040F06D0174A76
:101DA000536823F4E063E1680B435360236813F046
:101DB000080F07D0114A536823F46053216943EA9E
:101DC000C1035360FFF742FF0C4B5B68C3F303137F
:101DD0000B4AD35CD8400B4B18600B4B1868FFF7CD
:101DE000B9FC002070BD012070470120FAE70120F6
:101DF000F8E70120F6E700BF002002400010024093
:101E0000802400080800002004000020014B18680E
:101E1000704700BF0800002008B5FFF7F7FF044B2C
:101E20005B68C3F30223034AD35CD84008BD00BFFC
:101E3000001002407824000870B582B00024A44647
:101E4000A1E07E4DAB4214D00CD8A5F58015AB4275
:101E50000FD005F57025AB420BD0A5F58015AB4230
:101E600010D106E0764DAB4203D005F58035AB428C
:101E700008D18B68002B50D0012B49D04261082437
:101E800000E0CC68BEF1FF0F49D806464FEA8C024D
:101E900033680F25954023EA050304FA02F2134341
:101EA00033604B6813F0805F6BD0664B9A6942F0E9
:101EB00001029A619B6903F001030193019B4FEAC0
:101EC0009C02951C604B53F825600CF00305AD0097
:101ED0000F23AB4026EA03065C4B984226D003F55D
:101EE0008063984200F08C8003F58063984200F094
:101EF000898003F58063984216D0042317E0CC68EC
:101F00000434BFE7CC680834BCE7CC680C34B9E7CC
:101F100002610824B6E70024B4E70424B2E7061DF2
:101F2000ACF108029200B3E7032300E00023AB40CA
:101F300033430232444D45F822304B6813F4801F7E
:101F400062D0434A936843EA0E0393604B6813F4EC
:101F5000001F5FD03E4AD36843EA0E03D3604B684C
:101F600013F4003F5CD03A4A536843EA0E035360CF
:101F70004B6813F4803F59D0354A136843EA0E0387
:101F800013600CF1010C0B6833FA0CF254D00122EF
:101F900002FA0CF203EA020E32EA0303F1D14B68B3
:101FA000122B3FF64EAF122B3FF66CAF01A555F842
:101FB00023F000BF731E0008831E0008051F0008E1
:101FC000171F0008851E0008851E0008851E0008D2
:101FD000851E0008851E0008851E0008851E000855
:101FE000851E0008851E0008851E0008851E000845
:101FF000851E0008851E0008FF1E00080B1F000834
:10200000012394E7022392E7114A936823EA0E031F
:1020100093609BE70E4AD36823EA0E03D3609EE7E2
:102020000B4A536823EA0E035360A1E7084A13687A
:1020300023EA0E031360A4E702B070BD0000221073
:102040000000311000100240000001400008014073
:10205000000401408368194201D00120704700202C
:1020600070470AB101617047090401617047C36894
:1020700001EA030221EA030141EA024101617047DA
:10208000002808DB0901C9B200F1604000F5614099
:1020900080F80013704700F00F000901C9B2014B2E
:1020A0001954704714ED00E000B500F00700C0F1CE
:1020B000070CBCF1040F28BF4FF0040C031D062BC6
:1020C0000FD9C31E4FF0FF3E0EFA0CF021EA0001BB
:1020D00099400EFA03FE22EA0E0241EA02005DF880
:1020E00004FB0023EEE70000074AD36823F4E06313
:1020F0001B041B0C000200F4E060034343F0BF63C9
:1021000043F40033D360704700ED00E010B504469F
:10211000054BD868C0F30220FFF7C6FF01462046F2
:10212000FFF7AEFF10BD00BF00ED00E00138B0F1D9
:10213000807F0BD24FF0E0235861054AF02182F8EE
:1021400023100020986107221A6170470120704710
:1021500000ED00E07047000038B5054C207061606C
:1021600000252572E560FFF739FB2061656138BD08
:10217000C800002000B585B0030A8DF80C308DF83A
:102180000D00084801784FF0FF330093022303AAA3
:1021900049004068FFF776F800B1042005B05DF80B
:1021A00004FB00BFC800002010B582B00246084CF6
:1021B00094F800C04FF0FF3300938BB24FEA4C010C
:1021C0006068FFF71BF900B1042002B010BD00BF2A
:1021D000C800002018B101280AD000207047094B20
:1021E000187202EB42021144074B33F8110070479A
:1021F000044A0120107203EB43031944034B33F8E4
:1022000011007047C80000203C0000201C00002086
:1022100010B40346CCB2FF200FE04000C0B2013B37
:10222000DBB23BB142B2002AF7DA520082F031024F
:10223000D0B2F4E7013CE4B20B462CB1194611F8D8
:10224000013B58400823ECE710BC704770B582B0E2
:102250000E461D46FFF7BEFF04462F4A127AEAB12A
:10226000012A21D02D4B985DFFF7BEFA0621684662
:10227000FFF79AFF9DF8024002216846FFF7C8FF6A
:10228000844232D09DF8054002210DF10300FFF792
:10229000BFFF844232D0012002B070BDFFF76AFF59
:1022A0000028DFD00420F7E7FFF798FA1A4B1A69E5
:1022B0005B69801A63EB4303194A32F815208242A6
:1022C0004FF000029A4123DAFFF788FA124B1861A7
:1022D00000225A61DB68002BC4D12046FFF74AFF79
:1022E000C0B90D4B0122DA60BCE79DF800209DF8D3
:1022F000013003EB0223084A1383C3E79DF8032050
:102300009DF8043003EB0223034A53830020C3E704
:102310000320C1E70420BFE7C80000200C00002014
:10232000100000200000000008B50B4B588BFEF792
:1023300061F80022094BFEF7C7F805A3D3E9002393
:10234000FEF7ECF9FEF7D2FA08BD00BFAFF300804C
:1023500000000000E0FFEF40C800002000005940EE
:1023600008B50F4B188BFEF745F809A3D3E90023F6
:10237000FEF7AAF808A3D3E90023FEF7CFF900225D
:10238000084BFDF7E9FEFEF7B1FA08BDAFF3008098
:102390000000000000E0654000000000E0FFEF40AA
:1023A000C800002000804640FFF7D4FE0B480C49CF
:1023B0000C4A002302E0D458C4500433C4188C42A1
:1023C000F9D3094A094C002301E013600432A24208
:1023D000FBD300F017F8FEF76FFB704700000020FA
:1023E000480000209824000848000020F000002049
:1023F000FEE703460244934200D1704703F8011BF5
:10240000F9E7000070B500260C4D0D4C641BA410BC
:10241000A64209D100F01AF800260A4D0A4C641BA6
:10242000A410A64205D170BD55F8043B984701366B
:10243000EEE755F8043B98470136F2E79024000890
:10244000902400089024000894240008F8B500BFE8
:10245000F8BC08BC9E467047F8B500BFF8BC08BC85
:042460009E467047DD
:102464000102000002030405060708090A0B0C0D0B
:102474000E0F101000000000010203040000000011
:0C24840000000000010203040607080924
:04249000350100080A
:04249400110100082A
:10249800010000001000000000127A000D05030082
:1024A800D507ED03F901FF00690000003220242060
:1024B8002F20302126212D21362220222B223423A1
:1024C80022232923372721272A270000062C0D2C11
:0824D800102C00240B24162433
:04000005080023A923
:00000001FF
