:020000040800F2
:1000000000000220351D00085506000857060008AC
:10001000590600085B0600085D06000800000000A5
:100020000000000000000000000000005F06000863
:10003000610600080000000063060008650600086D
:10004000851D0008851D0008851D0008851D000808
:10005000851D0008851D0008851D0008851D0008F8
:10006000851D0008851D0008851D0008851D0008E8
:10007000851D0008851D0008851D0008851D0008D8
:10008000851D0008851D0008851D0008851D0008C8
:10009000851D0008851D0008851D0008851D0008B8
:1000A000851D0008851D0008851D0008851D0008A8
:1000B000851D0008851D0008851D0008851D000898
:1000C000851D0008851D0008851D0008851D000888
:1000D000851D0008851D0008851D0008851D000878
:1000E000851D0008851D0008851D0008851D000868
:1000F000851D0008851D0008851D0008851D000858
:10010000851D0008851D0008851D0008851D000847
:10011000851D0008851D0008851D0008851D000837
:10012000851D0008851D0008851D0008851D000827
:10013000851D0008851D0008851D0008851D000817
:10014000851D0008851D0008851D0008851D000807
:10015000851D0008851D0008851D0008851D0008F7
:10016000851D0008851D0008851D0008851D0008E7
:10017000851D0008851D0008851D00080000000081
:08018000851D0008851D000823
:1001880010B5054C237833B9044B13B10448AFF3C9
:1001980000800123237010BD100000200000000023
:1001A800E01D000808B5034B1BB103490348AFF332
:1001B800008008BD0000000014000020E01D0008B9
:1001C80053B94AB9002908BF00281CBF4FF0FF31B6
:1001D8004FF0FF3000F06AB9ADF1080C6DE904CEBC
:1001E80000F006F8DDF804E0DDE9022304B070470A
:1001F8002DE9F047089D0C46002B4ED194468C45BE
:100208008646B2FA82F262D94AB1C2F1200391401D
:1002180020FA03F30CFA02FC194300FA02FE4FEA33
:100228001C471FFA8CF6B1FBF7F44FEA1E4307FB95
:10023800141143EA014304FB06F199420AD91CEB65
:10024800030304F1FF3080F01281994240F20F81DC
:10025800023C6344591A1FFA8EF3B1FBF7F007FB0F
:10026800101143EA014300FB06F69E420AD91CEB33
:10027800030300F1FF3180F0FC809E4240F2F980D8
:10028800634402389B1B40EA044000211DB1D3405F
:100298000022C5E90032BDE8F0878B4205D90DB1CF
:1002A800C5E9000100210846F5E7B3FA83F1002902
:1002B80046D1A34202D39042C0F0F080861A64EB84
:1002C80003030120002DE6D0C5E90063E3E7002A17
:1002D80040F09080A1EB0C044FEA1C481FFA8CF701
:1002E8000121B4FBF8F64FEA1E4308FB164443EA23
:1002F800044307FB06F0984208D91CEB030306F1F8
:10030800FF3402D2984200F2CD8026461C1A1FFA0A
:100318008EF3B4FBF8F008FB104443EA044300FBF7
:1003280007F79F4208D91CEB030300F1FF3402D200
:100338009F4200F2B0802046DB1B40EA0640A5E75A
:10034800C1F120068B4022FA06F71F4320FA06FC6B
:1003580004FA01F343EA0C03F44000FA01F8380CFC
:100368004FEA1349B4FBF0FE1FFA87FC00FB1E445A
:1003780049EA04440EFB0CF9A14502FA01F20AD934
:100388003C190EF1FF3A80F08480A14540F281804B
:10039800AEF1020E3C44A4EB09041FFA83F9B4FB46
:1003A800F0F300FB134449EA044403FB0CFCA445A6
:1003B80007D93C1903F1FF3067D2A44565D9023B40
:1003C8003C4443EA0E40A0FB0293A4EB0C049C427D
:1003D800CE469C4651D34ED055B1B8EB0E0364EBD4
:1003E8000C0404FA06F6CB401E43CC40C5E9006471
:1003F800002150E7C2F1200320FA03F10CFA02FCB5
:1004080024FA03F394400C434FEA1C4800FA02FE16
:100418001FFA8CF7B3FBF8F008FB1031230C43EA02
:10042800014300FB07F1994208D91CEB030300F1D3
:10043800FF362CD299422AD9023863445B1AA4B2F7
:10044800B3FBF8F108FB113344EA034401FB07F35B
:10045800A34208D91CEB040401F1FF3613D2A342CE
:1004680011D902396444E41A41EA004139E70446E3
:10047800F0E6084606E7C845AED2B9EB020E63EBD4
:10048800070C0138A8E73146EDE7034699E73046FF
:10049800D4E7D6467FE7634402384DE7064623464D
:1004A80008460FE7023E634430E700BF704700BFCD
:1004B80084B000220192104B196B41F0800119633E
:1004C800196B01F08001019101990292196B41F0B9
:1004D80001011963196B01F001010291029903925C
:1004E8001A6B42F002021A631B6B03F002030393B8
:1004F800039B04B0704700BF0038024072B6FEE7A5
:1005080008B50A480A4B03600A4B4360002383601E
:10051800C3604FF48042026143618361C361036237
:1005280000F052FB00B908BDFFF7E8FF44000020C7
:1005380000540040A086010000B595B0302200218B
:1005480008A801F01CFC0023039304930593069369
:10055800079301931E4A116C41F080511164126C8B
:1005680002F080520192019A02931A4A116841F4EA
:1005780080411160126802F480420292029A0222BB
:10058800089201210B9110210C910E920F930823D0
:1005980010934823119312920423139308A800F090
:1005A8002BFE80B90F2303930221049100230593A6
:1005B8004FF480520692079303A801F06DF820B912
:1005C80015B05DF804FBFFF799FFFFF797FF00BF31
:1005D800003802400070004008B501F0A9FAFFF7A2
:1005E800ABFFFFF765FFFFF78BFF104801F004FB37
:1005F8000F4801F007FB0E4C204601F03FFB227923
:100608000C4B1A6062790C4B1A60A2790B4B1A607A
:10061800A2780B4B1A6062780A4B1A6022780A4B50
:100628001A604FF4FA7001F0AFFAE4E744000020D2
:1006380000000020400000203C000020380000207E
:1006480034000020300000202C000020FEE7FEE7E8
:10065800FEE7FEE7FEE770477047704708B501F010
:1006680081FA08BD82B0002100910B4B5A6C42F40C
:1006780080425A645A6C02F480420092009A0191B6
:100688001A6C42F080521A641B6C03F08053019379
:10069800019B02B0704700BF0038024030B589B0F6
:1006A8000023039304930593069307930268144B5E
:1006B8009A4201D009B030BD00250195114C236B39
:1006C80043F002032363236B03F002030193019BAE
:1006D800C02303931223049303230693042307934D
:1006E80003A9094801F09EF80295236C43F400130E
:1006F8002364236C03F400130293029BDAE700BF20
:1007080000540040003802400004024003685A695F
:1007180012F4806F01D1002070476FF480625A6133
:1007280000230363202280F83D2080F83E30026CCD
:1007380042F00402026480F83C30012070472DE941
:10074800F04106460C46174698463BE001F016FA7B
:10075800069BC01A404502D8B8F1000F32D1012DCE
:1007680018D033689B6924EA03039BB2B3FA83F376
:100778005B099F4226D100233363202286F83D205F
:1007880086F83E30326C42F02002326486F83C3003
:10079800012027E033685B6924EA03039BB2B3FABC
:1007A80083F35B09E5E733685B6924EA030C1FFA06
:1007B8008CFCBCFA8CFC4FEA5C1C674511D1B8F183
:1007C800FF3FC3D1C4F30745012DECD033689B69C3
:1007D80024EA030C1FFA8CFCBCFA8CFC4FEA5C1C64
:1007E800EBE70020BDE8F0812DE9F84305460E4609
:1007F8009046994653E01A6842F400721A602B68D2
:100808006FF480625A6100232B63202285F83D2013
:1008180085F83E302A6C42F004022A6485F83C30A0
:1008280001204AE001F0AAF9A0EB0900404502D8EE
:10083800B8F1000F33D1012F17D02B689B6926EA36
:1008480003039BB2003B18BF012343B300232B6370
:10085800202285F83D2085F83E302A6C42F020029F
:100868002A6485F83C30012027E02B685B6926EA7A
:1008780003039BB2003B18BF0123E6E72B689C6982
:1008880026EA0404A4B2003C18BF0124A4B12B68D2
:100898005A6912F4806FAED1B8F1FF3FC2D1C6F3E6
:1008A8000747012FEAD12B685C6926EA0404A4B241
:1008B800003C18BF0124E9E70020BDE8F8830000E8
:1008C800F0B583B004460D4616461F46C36A082B8A
:1008D8000DD0012B0BD013F5803F08D0036B122BE2
:1008E8000AD10268136843F48073136004E0226835
:1008F800136843F4807313600097334600224FF067
:1009080001112046FFF71BFF80B92369B3F5804F1B
:1009180016D1236805F0FE051D613B463246134992
:100928002046FFF761FFF8B903B0F0BD23681B68E4
:1009380013F4807F02D04FF4007323640320F3E79D
:10094800EB11226803F0060343F0F00313613B4602
:10095800324607492046FFF747FF18B92368EDB22A
:100968001D61DAE70120DFE70120DDE70200010071
:10097800080001002DE9F04184B004460D461646F2
:100988001F46C26A01680B6843F480630B60082A3B
:100998000DD0012A0BD012F5803F08D0036B112B24
:1009A8000AD10268136843F48073136004E0226874
:1009B800136843F4807313600097334600224FF0A6
:1009C80001112046FFF7BBFE98B92369B3F5804FA4
:1009D80019D1236845F00105EDB21D613B46324649
:1009E8002A492046FFF700FF00284CD104B0BDE893
:1009F800F08123681B6813F4807F02D04FF40073E2
:100A080023640320F2E74FEAE51808F00608236894
:100A180048F0F0021A613B4632461D492046FFF76E
:100A2800E3FE08B10120E1E72368EDB21D613B4612
:100A3800324616492046FFF7D7FE08B10120D5E710
:100A480000220392236859690391996903910399D4
:100A5800196841F480711960009733464FF001110D
:100A68002046FFF76CFE20B9226848F0F1031361B5
:100A7800B4E723681B6813F4807F02D04FF4007337
:100A880023640320B2E70120B0E700BF02000100A1
:100A98000800010070B504460D46164623685B69D8
:100AA80013F0800F21D12046FFF730FEF8B9B5F1D9
:100AB800FF3FF3D001F062F8801BA84201D8002D57
:100AC800ECD123685B6913F0800FE7D1002323631F
:100AD800202284F83D2084F83E30226C42F0200227
:100AE800226484F83C30012000E0002070BD012021
:100AF800FCE770B504460D46164623685B6913F09B
:100B0800040F21D12046FFF701FEF8B9B5F1FF3FE8
:100B1800F3D001F033F8801BA84201D8002DECD1A6
:100B280023685B6913F0040FE7D1002323632022B5
:100B380084F83D2084F83E30226C42F02002226482
:100B480084F83C30012000E0002070BD0120FCE763
:100B580070B504460D46164614E06FF010025A614F
:100B680000232363202284F83D2084F83E30226C41
:100B7800226484F83C30012025E023685B6913F087
:100B8800400F10D02368586910F0400F1AD15869E7
:100B980010F0100FE1D100F0F1FF801BA842ECD853
:100BA800002DEFD1E9E700232363202284F83D20BC
:100BB80084F83E30226C42F02002226484F83C30F3
:100BC800012000E0002070BD002800F0CC8070B546
:100BD800044690F83D30002B77D0242384F83D302C
:100BE8002268136823F0010313602268136843F432
:100BF800004313602268136823F40043136000F075
:100C080001FE62685A4B9A4264D85A4B98428CBF8C
:100C180000230123002B40F0A8805749A1FB003195
:100C28008B0C25686A6822F03F0242EA91426A60AA
:100C380021680A6A22F03F0266684D4DAE424FD8DD
:100C4800013313430B622168CA6922F44F4222F030
:100C5800FF026568464B9D424CD8431E6D00B3FBAE
:100C6800F5F3013340F6FC70034278D0C3F30B036D
:100C78001A43CA6121680B6823F0C003E269206A3D
:100C8800024313430B6021688B6823F4034323F06A
:100C9800FF032269E068024313438B602168CB6835
:100CA80023F0FF036269A06902431343CB60226803
:100CB800136843F00103136000202064202384F8A4
:100CC8003D30206384F83E0070BD80F83C30FFF76B
:100CD800E5FC82E7294B98428CBF0023012399E762
:100CE8004FF4967505FB03F3254DA5FB03539B09AC
:100CF8000133A6E7A668BEB9431E05EB450CB3FB56
:100D0800FCF30133C3F30B03B3FA83F35B0943BB6F
:100D1800C6B9431E05EB4505B3FBF5F30133C3F331
:100D28000B0343F40043A3E7431E05EB850C0CEBD0
:100D38008C0CB3FBFCF30133C3F30B03B3FA83F35B
:100D48005B09E4E7431E05EB850505EB8505B3FB69
:100D5800F5F30133C3F30B0343F4404388E704235B
:100D680086E7012384E7012070470120ACE700BF34
:100D7800A08601007F841E0083DE1B43FF083D0020
:100D8800D34D62102DE9F04385B004460F469146D5
:100D980098460C9E00F0F2FE054694F83D00C0B25D
:100DA800202804D00227384605B0BDE8F083009516
:100DB800192301224F492046FFF7C1FC002840F0C3
:100DC800928094F83C30012B00F08F80012384F846
:100DD8003C3023681A6812F0010F03D11A6842F0F8
:100DE80001021A602268136823F400631360212348
:100DF80084F83D30102384F83E3000232364C4F87F
:100E08002490A4F82A80638D23853B4BE3622B460C
:100E1800324639462046FFF753FD0746002866D17B
:100E28000023039323685A6903929B690393039BE6
:100E380011E0236C042B01D00127B4E72268136862
:100E480043F400731360F7E72A4631462046FFF75C
:100E580050FE00282ED1238D002B36D02A4631464D
:100E68002046FFF717FE0028E3D1626A236812784C
:100E78001A61606A431C6362618D89B2013989B263
:100E88006185238D013B9BB223852268516911F04E
:100E9800040FD9D0002BD7D043781361636A01338C
:100EA8006362638D9BB2013B9BB26385238D013BDB
:100EB8002385C9E7236C042B01D0012773E7226837
:100EC800136843F400731360F7E72268136843F468
:100ED80000731360202384F83D30002384F83E30EB
:100EE80084F83C305FE702275DE702275BE70127CC
:100EF80059E700BF020010000000FFFF2DE9F04392
:100F080087B004460F46914698460E9E00F036FE7E
:100F1800054694F83D00C0B2202804D00227384680
:100F280007B0BDE8F08300951923012289492046BE
:100F3800FFF705FC002840F04F8194F83C30012B66
:100F480000F04C81012384F83C3023681A6812F0C1
:100F5800010F03D11A6842F001021A60226813686F
:100F680023F400631360222384F83D30102384F8AF
:100F78003E3000232364C4F82490A4F82A80638DAB
:100F88002385754BE3622B46324639462046FFF7E8
:100F9800F1FC0746002840F02381238D5BB90293BA
:100FA80023685A6902929A690292029A1A6842F46C
:100FB80000721A607AE0012B0FD0022B1FD0226832
:100FC800136843F4806313600023059323685A6908
:100FD80005929B690593059B68E02268136823F4D2
:100FE800806313600023039323685A6903929A6904
:100FF8000392039A1A6842F400721A6056E0226853
:10100800136823F4806313602268136843F4006351
:1010180013600023049323685A6904929B6904931C
:10102800049B43E02A4631462046FFF791FD0028FD
:1010380040F0D88023681A69636A1A70636A0133BA
:101048006362238D013B2385638D9BB2013B9BB279
:1010580063852BE000953346002240492046FFF780
:101068006EFB002840F0C0802268136843F40073C8
:10107800136023681A69636A1A70626A531C636290
:10108800238D013B2385638D9BB2013B9BB2638516
:1010980023681B695370636A01336362238D013BC4
:1010A8002385638D9BB2013B9BB26385218D00290B
:1010B80000F08980032953D80129B3D00229C9D067
:1010C80000953346002225492046FFF738FB0028C3
:1010D80040F08C802268136823F4806313602368CF
:1010E8001A69636A1A70636A01336362238D013B6C
:1010F8002385618D89B2013989B2618500953346AE
:10110800002216492046FFF71AFB002870D12268F2
:10111800136843F40073136023681A69636A1A70CA
:10112800626A531C6362238D013B2385638D9BB2E6
:10113800013B9BB2638523681B695370636A013363
:101148006362238D013B2385638D9BB2013B9BB278
:101158006385ABE7020010000000FFFF04000100F8
:101168002A4631462046FFF7F3FC002842D123687F
:101178001A69636A1A70636A01336362228D013ADD
:1011880092B22285638D9BB2013B9BB26385236833
:10119800596911F0040F89D0032A0FD023681A69FE
:1011A800636A1A70636A01336362238D013B238586
:1011B800638D9BB2013B9BB2638577E71A6822F483
:1011C80080621A60EAE7202384F83D30002384F81F
:1011D8003E3084F83C30A2E60227A0E602279EE6CD
:1011E80001279CE601279AE6012798E6012796E65B
:1011F800012794E6012792E6002800F0E08170B507
:1012080082B00446036813F0010F3BD09F4B9B68E4
:1012180003F00C03042B2CD09C4B9B6803F00C03AD
:10122800082B21D06368B3F5803F4FD0B3F5A02FCA
:1012380052D0964B1A6822F480321A601A6822F447
:1012480080221A606368002B50D000F097FC054696
:101258008E4B1B6813F4003F14D100F08FFC401B29
:101268006428F5D90320B1E1884B5B6813F4800F3B
:10127800D8D0864B1B6813F4003F03D06368002B5B
:1012880000F09F81236813F0020F54D07F4B9B68B6
:1012980013F00C0F3ED07D4B9B6803F00C03082B1A
:1012A80033D0E368002B68D0794B01221A6000F034
:1012B80065FC0546754B1B6813F0020F54D100F00E
:1012C8005DFC401B0228F5D903207FE16F4A1368B3
:1012D80043F480331360B5E76C4B1A6842F48022FC
:1012E8001A601A6842F480321A60ABE700F046FCD4
:1012F8000546664B1B6813F4003FC3D000F03EFC64
:10130800401B6428F5D9032060E1604B5B6813F447
:10131800800FC6D15D4B1B6813F0020F03D0E36842
:10132800012B40F05081594A136823F0F8032169D2
:1013380043EAC1031360236813F0080F42D06369BE
:101348006BB3534B0122C3F8802E00F017FC0546FF
:101358004E4B5B6F13F0020F34D100F00FFC401BB3
:101368000228F5D9032031E1484A136823F0F8032D
:10137800216943EAC1031360DDE7454B00221A6087
:1013880000F0FCFB0546414B1B6813F0020FD2D05E
:1013980000F0F4FB401B0228F5D9032016E13C4B72
:1013A8000022C3F8802E00F0E9FB0546374B5B6F3F
:1013B80013F0020F06D000F0E1FB401B0228F5D91C
:1013C800032003E1236813F0040F77D02F4B1B6C25
:1013D80013F0805F33D1002301932C4B1A6C42F039
:1013E80080521A641B6C03F080530193019B012502
:1013F800284B1B6813F4807F23D0A368012B34D0BB
:10140800052B38D0214B1A6F22F001021A671A6F88
:1014180022F004021A67A368002B3DD000F0AEFB4F
:1014280006461A4B1B6F13F0020F46D100F0A6FBBD
:10143800801B41F288339842F3D90320C6E0002587
:10144800D6E7144A136843F48073136000F096FBE0
:101458000646104B1B6813F4807FCED100F08EFB3C
:10146800801B0228F5D90320B0E0084A136F43F027
:1014780001031367CFE7054B1A6F42F004021A679E
:101488001A6F42F001021A67C5E700BF0038024030
:10149800000047420070004000F070FB0646524BC7
:1014A8001B6F13F0020F08D000F068FB801B41F29D
:1014B80088339842F3D9032088E0EDB9A369002B5B
:1014C80000F08380484A926802F00C02082A51D042
:1014D800022B17D0454B00221A6600F04FFB04463A
:1014E800414B1B6813F0007F42D000F047FB001B04
:1014F8000228F5D9032069E03B4A136C23F0805396
:101508001364DBE7394B00221A6600F037FB054607
:10151800354B1B6813F0007F06D000F02FFB401BF3
:101528000228F5D9032051E0E369226A1343626A6D
:1015380043EA8213A26A5208013A43EA0243E26A82
:1015480043EA0263284A5360284B01221A6600F0D6
:1015580015FB0446244B1B6813F0007F06D100F0EE
:101568000DFB001B0228F5D903202FE000202DE0F9
:1015780000202BE0012B2BD01B4B5B6803F4800170
:10158800E269914226D103F03F02216A8A4223D1BF
:10159800616A47F6C0721A40B2EB811F1ED103F48C
:1015A8004031A26A5208013AB1EB024F18D103F058
:1015B8007063E26AB3EB026F14D1002006E00120E9
:1015C8007047012002E0012000E0002002B070BD59
:1015D8000120FBE70120F9E70120F7E70120F5E703
:1015E8000120F3E70120F1E70038024000004742FC
:1015F80008B5264B9B6803F00C03042B41D0082B3D
:1016080041D1224B5A6802F03F025B6813F4800F05
:1016180012D01E4B5968C1F388111D480023A1FB45
:101628000001FEF7CDFD194B5B68C3F3014301339D
:101638005B00B0FBF3F027E0144B5868C0F3881048
:101648004FEA401CBCEB000C6EEB0E0E4FEA8E13FB
:1016580043EA9C634FEA8C11B1EB0C0163EB0E0378
:10166800DB0043EA5173C90011EB000C43F100039E
:10167800990200234FEA8C2041EA9C51FEF7A0FD15
:10168800D1E7034800E0034808BD00BF0038024026
:1016980040787D010024F400002800F09B8070B59C
:1016A8000D4604464F4B1B6803F007038B4208D2D4
:1016B800CBB24C4A1370136803F007038B4240F017
:1016C8008B80236813F0020F17D013F0040F04D097
:1016D800454A936843F4E0539360236813F0080F76
:1016E80004D0414A936843F4604393603E4A936848
:1016F80023F0F003A1680B439360236813F0010FF4
:1017080032D06368012B21D09A1E012A25D9364A86
:10171800126812F0020F61D033498A6822F003027E
:1017280013438B6000F02AFA06462F4B9B6803F0A0
:101738000C036268B3EB820F16D000F01FFA801B0F
:1017480041F288339842F0D9032042E0264A1268D1
:1017580012F4003FE0D101203BE0234A126812F066
:10176800007FD9D1012034E01E4B1B6803F007032A
:10177800AB4207D9EAB21B4B1A701B6803F0070388
:10178800AB422DD1236813F0040F06D0164A936894
:1017980023F4E053E1680B439360236813F0080FC8
:1017A80007D0114A936823F46043216943EAC103CF
:1017B8009360FFF71DFF0C4B9B68C3F303130B4AA1
:1017C800D35CD8400A4B18600A4B186800F08AF9B5
:1017D800002070BD012070470120FAE70120F8E7DA
:1017E8000120F6E7003C024000380240001E0008D5
:1017F8000C00002008000020014B1868704700BF4B
:101808000C00002008B5FFF7F7FF044B9B68C3F3F3
:101818008223034AD35CD84008BD00BF0038024089
:10182800F81D000800230F2B00F2E98070B582B084
:1018380065E085684FEA430E032404FA0EF425EAAE
:101848000405CC6804FA0EF42C438460446824EA46
:1018580002044A68C2F300129A40224342605CE0E4
:10186800DC08083450F8242003F00705AD004FF0D9
:101878000F0E0EFA05FE22EA0E0E0A69AA4042EA87
:101888000E0240F824205CE0072200E0002202FA61
:101898000EF22A4302345A4D45F82420594A9468D6
:1018A8006FEA0C0224EA0C054E6816F4801F01D07A
:1018B8004CEA0405534CA560E46802EA04054E6846
:1018C80016F4001F01D04CEA04054E4CE56064682C
:1018D80002EA04054E6816F4003F01D04CEA0405FC
:1018E800484C6560246822404D6815F4803F01D05B
:1018F8004CEA0402434C226001330F2B7DD80122AD
:101908009A400C6804EA020C32EA0404F4D14C68E8
:1019180004F00304013C012C8BD94A6802F003024D
:10192800032A09D0C4685D000322AA4024EA0204FD
:101938008A68AA402243C2604A6802F00302022A67
:101948008ED004684FEA430E032202FA0EF224EA0C
:1019580002044A6802F0030202FA0EF2224302600D
:101968004A6812F4403FC7D000220192264A546CBC
:1019780044F480445464526C02F480420192019A07
:101988009C08A51C1E4A52F8255003F0030E4FEA86
:101998008E0E0F2202FA0EF225EA02051B4A904229
:1019A8003FF474AF02F5806290421AD002F580626B
:1019B800904218D002F58062904216D002F58062FB
:1019C800904214D002F58062904212D002F58062F3
:1019D800904210D002F5806290423FF455AF082241
:1019E80055E7012253E7022251E703224FE7042279
:1019F8004DE705224BE7062249E702B070BD704764
:101A080000380140003C014000380240000002401C
:101A1800002808DB0901C9B200F1604000F5614007
:101A280080F80013704700F00F000901C9B2014B9C
:101A38001954704714ED00E000B500F00700C0F13C
:101A4800070CBCF1040F28BF4FF0040C031D062B34
:101A58000FD9C31E4FF0FF3E0EFA0CF021EA000129
:101A680099400EFA03FE22EA0E0241EA02005DF8EE
:101A780004FB0023EEE70000074AD36823F4E06381
:101A88001B041B0C000200F4E060034343F0BF6337
:101A980043F40033D360704700ED00E010B504460E
:101AA800054BD868C0F30220FFF7C6FF0146204661
:101AB800FFF7AEFF10BD00BF00ED00E00138B0F148
:101AC800807F0BD24FF0E0235861054AF02182F85D
:101AD80023100020986107221A617047012070477F
:101AE80000ED00E010B504460E4B1A784FF47A73F7
:101AF800B3FBF2F30C4A1068B0FBF3F0FFF7DEFF1C
:101B080068B90F2C01D901200AE0002221464FF0C4
:101B1800FF30FFF7C3FF054B1C60002000E00120E9
:101B280010BD00BF070000200C00002008000020A6
:101B380008B50B4B1A6842F400721A601A6842F42E
:101B480080621A601A6842F480721A600320FFF7F4
:101B580093FF0F20FFF7C6FFFEF784FD002008BDA6
:101B6800003C0240034A1168034B1B780B44136086
:101B7800704700BF9800002007000020014B18683C
:101B8800704700BF9800002038B50446FFF7F6FFFD
:101B98000546B4F1FF3F02D0044B1B781C44FFF705
:101BA800EDFF401BA042FAD338BD00BF070000205C
:101BB800034AD2F8883043F47003C2F8883070477B
:101BC80000ED00E000F00F03000900EB800003EBDC
:101BD8004000C0B270470000064BA3FB0023DA08A0
:101BE800134602EB8202A0EB420040EA0310C0B2A7
:101BF800704700BFCDCCCCCC014B1860704700BFFC
:101C08009C00002010B584B0044600238DF80830ED
:101C18008079FFF7E1FF8DF809006079FFF7DCFFB5
:101C28008DF80A002079FFF7D7FF8DF80B00E078D0
:101C3800FFF7D2FF8DF80C00A078FFF7CDFF8DF8E5
:101C48000D006078FFF7C8FF8DF80E002078FFF7C9
:101C5800C3FF8DF80F004FF0FF33009308230DEBFF
:101C68000302D02104480068FFF78CF810B901205E
:101C780004B010BD0020FBE79C00002010B584B024
:101C8800044600238DF80F300293ADF80C308DF820
:101C98000E304FF0FF33009301230DF10F02D021D6
:101CA80021480068FFF76EF810B1002004B010BD9D
:101CB8004FF0FF330093072302AAD0211A48006887
:101CC800FFF71CF970BB9DF8080000F07F00FFF7D4
:101CD80079FFA0719DF8090000F07F00FFF772FFFF
:101CE80060719DF80A0000F03F00FFF76BFF20715C
:101CF8009DF80B3003F00703E3709DF80C0000F02B
:101D08003F00FFF75FFFA0709DF80D0000F01F0077
:101D1800FFF758FF60709DF80E00FFF753FF207023
:101D28000120C3E70020C1E79C000020DFF834D081
:101D3800FFF73EFF0C480D490D4A002302E0D45836
:101D4800C4500433C4188C42F9D30A4A0A4C0023FD
:101D580001E013600432A242FBD300F019F8FEF749
:101D68003BFC70470000022000000020100000200B
:101D7800201E000810000020A0000020FEE70244FA
:101D88000346934200D1704703F8011BF9E70000AE
:101D980070B50D4D0D4C641BA4100026A64209D148
:101DA8000B4D0C4C00F018F8641BA4100026A6423A
:101DB80005D170BD55F8043B98470136EEE755F854
:101DC800043B98470136F2E7181E0008181E000861
:101DD800181E00081C1E0008F8B500BFF8BC08BC97
:101DE8009E467047F8B500BFF8BC08BC9E467047D1
:101DF80000000000010203040000000000000000D1
:081E08000102030406070809AA
:081E1000E8E3FF7F0100000080
:041E1800AD01000810
:041E1C008901000830
:101E2000180A1805142E1E01100000000024F400EA
:0400000508001D359D
:00000001FF
