:020000040800F2
:100000000050002075300008D10D0008D30D000805
:10001000D50D0008D70D0008D90D0008000000001C
:10002000000000000000000000000000DB0D0008E0
:10003000DD0D000800000000DF0D0008E10D0008E4
:10004000BD300008BD300008BD300008BD300008DC
:10005000BD300008BD300008BD300008BD300008CC
:10006000BD300008BD300008BD300008BD300008BC
:10007000BD300008BD300008BD300008BD300008AC
:10008000BD300008BD300008BD300008BD3000089C
:10009000BD300008BD300008BD300008BD3000088C
:1000A000BD300008BD300008BD300008BD3000087C
:1000B000BD300008BD300008BD300008BD3000086C
:1000C000BD300008BD300008BD300008BD3000085C
:1000D000BD300008BD300008BD300008BD3000084C
:1000E000BD300008BD300008BD3000080000000031
:1000F0000000000000000000000000000000000000
:0C01000000000000000000005FF808F1A3
:10011000034613F8012B002AFBD1181A0138704747
:1001200081F0004102E000BF83F0004330B54FEAA8
:1001300041044FEA430594EA050F08BF90EA020F15
:100140001FBF54EA000C55EA020C7FEA645C7FEAA8
:10015000655C00F0E2804FEA5454D4EB5555B8BFCB
:100160006D420CDD2C4480EA020281EA030382EA3C
:10017000000083EA010180EA020281EA0303362DCE
:1001800088BF30BD11F0004F4FEA01314FF4801CA1
:100190004CEA113102D0404261EB410113F0004FB3
:1001A0004FEA03334CEA133302D0524263EB43036A
:1001B00094EA050F00F0A780A4F10104D5F1200E08
:1001C0000DDB02FA0EFC22FA05F2801841F1000163
:1001D00003FA0EF2801843FA05F359410EE0A5F137
:1001E00020050EF1200E012A03FA0EFC28BF4CF068
:1001F000020C43FA05F3C01851EBE37101F000451E
:1002000007D54FF0000EDCF1000C7EEB00006EEB2A
:100210000101B1F5801F1BD3B1F5001F0CD34908B4
:100220005FEA30004FEA3C0C04F101044FEA44520B
:1002300012F5800F80F09A80BCF1004F08BF5FEA92
:10024000500C50F1000041EB045141EA050130BD72
:100250005FEA4C0C404141EB0101013C28BFB1F584
:10026000801FE9D291F0000F04BF01460020B1FACF
:1002700081F308BF2033A3F10B03B3F120020CDAA2
:100280000C3208DD02F1140CC2F10C0201FA0CF080
:1002900021FA02F10CE002F11402D8BFC2F1200CE5
:1002A00001FA02F120FA0CFCDCBF41EA0C0190409B
:1002B000E41AA2BF01EB0451294330BD6FEA0404E4
:1002C0001F3C1CDA0C340EDC04F11404C4F12002CF
:1002D00020FA04F001FA02F340EA030021FA04F3E1
:1002E00045EA030130BDC4F10C04C4F1200220FA38
:1002F00002F001FA04F340EA0300294630BD21FA76
:1003000004F0294630BD94F0000F83F4801306BF3B
:1003100081F480110134013D4EE77FEA645C18BF2F
:100320007FEA655C29D094EA050F08BF90EA020FC6
:1003300005D054EA000C04BF1946104630BD91EABE
:10034000030F1EBF0021002030BD5FEA545C05D1C1
:100350004000494128BF41F0004130BD14F5800400
:100360003CBF01F5801130BD01F0004545F0FE4174
:1003700041F470014FF0000030BD7FEA645C1ABFA9
:10038000194610467FEA655C1CBF0B46024650EAE0
:10039000013406BF52EA033591EA030F41F400210C
:1003A00030BD00BF90F0000F04BF0021704730B592
:1003B0004FF4806404F132044FF000054FF0000167
:1003C00050E700BF90F0000F04BF0021704730B528
:1003D0004FF4806404F1320410F0004548BF4042FD
:1003E0004FF000013EE700BF42004FEAE2014FEA52
:1003F00031014FEA02701FBF12F07F4393F07F4F2D
:1004000081F06051704732F07F4208BF704793F02F
:100410007F4F04BF41F40021704730B54FF4607442
:1004200001F0004521F000411CE700BF50EA010245
:1004300008BF704730B54FF000050AE050EA0102EE
:1004400008BF704730B511F0004502D5404261EB5E
:1004500041014FF4806404F132045FEA915C3FF49F
:10046000D8AE4FF003025FEADC0C18BF03325FEA3C
:10047000DC0C18BF033202EBDC02C2F1200300FAED
:1004800003FC20FA02F001FA03FE40EA0E0021FA12
:1004900002F11444BDE600BF70B54FF0FF0C4CF400
:1004A000E06C1CEA11541DBF1CEA135594EA0C0FB2
:1004B00095EA0C0F00F0DEF82C4481EA030621EAED
:1004C0004C5123EA4C5350EA013518BF52EA033528
:1004D00041F4801143F4801338D0A0FB02CE4FF0DA
:1004E0000005E1FB02E506F00042E0FB03E54FF00A
:1004F0000006E1FB03569CF0000F18BF4EF0010E02
:10050000A4F1FF04B6F5007F64F5407404D25FEAFD
:100510004E0E6D4146EB060642EAC62141EA5551B0
:100520004FEAC52040EA5E504FEACE2EB4F1FD0CF2
:1005300088BFBCF5E06F1ED8BEF1004F08BF5FEA70
:10054000500E50F1000041EB045170BD06F0004622
:1005500046EA010140EA020081EA0301B4EB5C04CF
:10056000C2BFD4EB0C0541EA045170BD41F48011C7
:100570004FF0000E013C00F3AB8014F1360FDEBFEC
:10058000002001F0004170BDC4F10004203C35DAC8
:100590000C341BDC04F11404C4F1200500FA05F34B
:1005A00020FA04F001FA05F240EA020001F00042EC
:1005B00021F0004110EBD37021FA04F642EB060162
:1005C0005EEA430E08BF20EAD37070BDC4F10C048C
:1005D000C4F1200500FA04F320FA05F001FA04F250
:1005E00040EA020001F0004110EBD37041F100013C
:1005F0005EEA430E08BF20EAD37070BDC4F1200547
:1006000000FA05F24EEA020E20FA04F301FA05F2AE
:1006100043EA020321FA04F001F0004121FA04F256
:1006200020EA020000EBD3705EEA430E08BF20EA26
:10063000D37070BD94F0000F0FD101F00046400060
:1006400041EB010111F4801F08BF013CF7D041EAE2
:10065000060195F0000F18BF704703F000465200E6
:1006600043EB030313F4801F08BF013DF7D043EAB7
:100670000603704794EA0C0F0CEA135518BF95EA6D
:100680000C0F0CD050EA410618BF52EA4306D1D1F4
:1006900081EA030101F000414FF0000070BD50EA13
:1006A000410606BF1046194652EA430619D094EA9D
:1006B0000C0F02D150EA013613D195EA0C0F05D187
:1006C00052EA03361CBF104619460AD181EA0301DB
:1006D00001F0004141F0FE4141F470014FF0000093
:1006E00070BD41F0FE4141F4780170BD70B54FF02E
:1006F000FF0C4CF4E06C1CEA11541DBF1CEA1355AE
:1007000094EA0C0F95EA0C0F00F0A7F8A4EB05048F
:1007100081EA030E52EA03354FEA013100F0888086
:100720004FEA03334FF0805545EA131343EA12634F
:100730004FEA022245EA111545EA10654FEA002604
:100740000EF000419D4208BF964244F1FD0404F5BD
:10075000407402D25B084FEA3202B61A65EB030519
:100760005B084FEA32024FF480104FF4002CB6EBD6
:10077000020E75EB030E22BFB61A754640EA0C0056
:100780005B084FEA3202B6EB020E75EB030E22BF96
:10079000B61A754640EA5C005B084FEA3202B6EBD7
:1007A000020E75EB030E22BFB61A754640EA9C0096
:1007B0005B084FEA3202B6EB020E75EB030E22BF66
:1007C000B61A754640EADC0055EA060E18D04FEA24
:1007D000051545EA16754FEA06164FEAC30343EAC4
:1007E00052734FEAC2025FEA1C1CC0D111F4801F91
:1007F0000BD141EA00014FF000004FF0004CB6E78A
:1008000011F4801F04BF01430020B4F1FD0C88BF28
:10081000BCF5E06F3FF6AFAEB5EB030C04BFB6EB33
:10082000020C5FEA500C50F1000041EB045170BD26
:100830000EF0004E4EEA113114EB5C04C2BFD4EB53
:100840000C0541EA045170BD41F480114FF0000ED7
:10085000013C90E645EA060E8DE60CEA135594EA53
:100860000C0F08BF95EA0C0F3FF43BAF94EA0C0F56
:100870000AD150EA01347FF434AF95EA0C0F7FF4CB
:1008800025AF104619462CE795EA0C0F06D152EA1F
:1008900003353FF4FDAE1046194622E750EA410603
:1008A00018BF52EA43067FF4C5AE50EA41047FF414
:1008B0000DAF52EA43057FF4EBAE12E74FEA410277
:1008C000B2F1E04324BFB3F5001CDCF1FE5C0DD9AE
:1008D00001F0004C4FEAC0024CEA5070B2F1004FF8
:1008E00040EB830008BF20F00100704711F0804FFB
:1008F00021D113F13872BCBF01F00040704741F4C0
:1009000080114FEA5252C2F11802C2F1200C10FAC3
:100910000CF320FA02F018BF40F001004FEAC123A7
:100920004FEAD32303FA0CFC40EA0C0023FA02F34B
:100930004FEA4303CCE77FEA625307D150EA013321
:100940001EBF4FF0FE4040F44000704701F00040F1
:1009500040F0FE4040F40000704700BF4FF0FF3C05
:1009600006E000BF4FF0010C02E000BF4FF0010CA9
:100970004DF804CD4FEA40024FEA41037FEA226C72
:1009800018BF7FEA236C11D001B052EA530C18BF94
:1009900090EA010F58BFB2EB030088BFC81738BFF9
:1009A0006FEAE17018BF40F0010070477FEA226CE7
:1009B00002D15FEA402C05D17FEA236CE4D15FEAE3
:1009C000412CE1D05DF8040B704700BF8446084617
:1009D0006146FFE70FB5FFF7C9FF002848BF10F1D8
:1009E000000F0FBD4DF808EDFFF7F4FF0CBF01201D
:1009F00000205DF808FB00BF4DF808EDFFF7EAFFA7
:100A000034BF012000205DF808FB00BF4DF808ED61
:100A1000FFF7E0FF94BF012000205DF808FB00BF56
:100A20004DF808EDFFF7D2FF94BF012000205DF8DC
:100A300008FB00BF4DF808EDFFF7C8FF34BF0120E9
:100A400000205DF808FB00BF7BB972B90029BEBF6A
:100A500000204FF0004106E008BF00281CBF6FF0E7
:100A600000414FF0FF3000F03FB8ADF1080C6DE9E8
:100A700004CE002909DB002B1ADB03F03DFBDDF877
:100A800004E0DDE9022304B07047404261EB41011C
:100A9000002B1BDB03F030FBDDF804E0DDE9022373
:100AA00004B0404261EB4101524263EB43037047A3
:100AB000524263EB430303F01FFBDDF804E0DDE982
:100AC000022304B0404261EB41017047524263EBA4
:100AD000430303F011FBDDF804E0DDE9022304B079
:100AE000524263EB43037047704700BF0348044B17
:100AF000834202D0034B03B1184770476C000020BB
:100B00006C000020000000000548064B1B1AD90F9E
:100B100001EBA301491002D0034B03B11847704702
:100B20006C0000206C0000200000000010B5064C96
:100B3000237843B9FFF7DAFF044B13B10448AFF34E
:100B400000800123237010BD6C0000200000000015
:100B5000AC43000808B5054B1BB105490548AFF388
:100B60000080BDE80840FFF7CFBF00BF00000000D5
:100B700070000020AC43000830B589B00024049414
:100B80000594069407941D4B9A6942F010029A61ED
:100B90009A6902F010020092009A9A6942F02002CB
:100BA0009A619A6902F020020192019A9A6942F0D0
:100BB00004029A619A6902F004020292029A9A6906
:100BC00042F008029A619B6903F008030393039BB8
:100BD0000B4D22464FF40051284601F0B5FC4FF46E
:100BE000005304930123059306940223079304A959
:100BF000284601F09BFB09B030BD00BF0010024049
:100C00000010014000B589B0FFF7EEFB02460B462D
:100C10000849684602F074FB6846FFF779FA4FF01E
:100C2000FF3382B26946044802F0BDF909B05DF8AD
:100C300004FB00BFC44300089400002072B6FEE726
:100C400008B50A480A4B03600A4B436000238360DF
:100C5000C3604FF48042026143618361C3610362F8
:100C600000F0DAFB00B908BDFFF7E8FFDC00002068
:100C700000540040A086010008B50A480A4B0360F2
:100C80004FF4E133436000238360C36003610C22AF
:100C900042618361C36102F056F900B908BDFFF7F4
:100CA000CDFF00BF940000200044004000B591B08B
:100CB0002822002106A802F01DFC002301930293C4
:100CC000039304930593012206924FF48033079314
:100CD0000A9202220D920E934FF4E0130F9306A88E
:100CE00001F016F880B90F2301930221029100232D
:100CF00003934FF480620492059301A801F03AFA3D
:100D000020B911B05DF804FBFFF798FFFFF796FFDD
:100D100000B583B000F0AEFFFFF7C8FFFFF72CFF70
:100D2000FFF78EFFFFF7A8FF4FF0FF330322EC2100
:100D30001F4800F0AFFE18B11E4802F0D9FA14E0C7
:100D40001D4802F0D5FA04230193002300930323E6
:100D500001220521022001F07FFD06E0174802F084
:100D6000C7FA4FF47A7000F0A9FF01F0DBFF0EA183
:100D7000D1E90001FFF746FF4FF0FF33072210498A
:100D8000104802F010F9104B1868FFF72DFBFFF721
:100D900039FF00210D4B1868FFF724FE0028E0D032
:100DA000DCE700BFAFF300801F85EB51B81E0940A0
:100DB000DC000020CC430008F04300081044000889
:100DC000084400089400002000000020900000204B
:100DD000FEE7FEE7FEE7FEE7FEE770477047704775
:100DE00008B500F059FF08BD82B00E4B9A6942F079
:100DF00001029A619A6902F001020092009ADA698E
:100E000042F08052DA61DB6903F080530193019B69
:100E1000054A536823F0E06343F00073536002B067
:100E2000704700BF001002400000014010B586B0BE
:100E3000002302930393049305930268114B9A4293
:100E400001D006B010BD104CA36943F00803A361A4
:100E5000A36903F008030093009BC02302931223AD
:100E600003930323059302A9084801F05FFAE3699D
:100E700043F40013E361E36903F400130193019B5E
:100E8000DFE700BF0054004000100240000C0140AA
:100E900010B586B000230293039304930593026870
:100EA000164B9A4201D006B010BD03F5E633DA695D
:100EB00042F40032DA61DA6902F400320092009AF8
:100EC0009A6942F004029A619B6903F0040301935A
:100ED000019B042302930223039303230593084CED
:100EE00002A9204601F022FA08230293002303936B
:100EF000049302A9204601F019FAD4E70044004007
:100F00000008014003685A6912F4806F01D1002083
:100F100070476FF480625A6100230363202280F8D7
:100F20003D2080F83E30026C42F00402026480F8FA
:100F30003C30012070472DE9F04106460C4617462B
:100F400098463BE000F0B4FE069BC01A404502D82C
:100F5000B8F1000F32D1012D18D033689B6924EA13
:100F600003039BB2B3FA83F35B099F4226D10023AC
:100F70003363202286F83D2086F83E30326C42F002
:100F80002002326486F83C30012027E033685B6938
:100F900024EA03039BB2B3FA83F35B09E5E7336802
:100FA0005B6924EA030C1FFA8CFCBCFA8CFC4FEA48
:100FB0005C1C674511D1B8F1FF3FC3D1C4F30745AD
:100FC000012DECD033689B6924EA030C1FFA8CFCDA
:100FD000BCFA8CFC4FEA5C1CEBE70020BDE8F0811A
:100FE0002DE9F84305460E469046994653E01A68A7
:100FF00042F400721A602B686FF480625A61002319
:101000002B63202285F83D2085F83E302A6C42F083
:1010100004022A6485F83C3001204AE000F048FED2
:10102000A0EB0900404502D8B8F1000F33D1012FE1
:1010300017D02B689B6926EA03039BB2003B18BFBD
:10104000012343B300232B63202285F83D2085F83C
:101050003E302A6C42F020022A6485F83C300120A0
:1010600027E02B685B6926EA03039BB2003B18BFAD
:101070000123E6E72B689C6926EA0404A4B2003C3D
:1010800018BF0124A4B12B685A6912F4806FAED145
:10109000B8F1FF3FC2D1C6F30747012FEAD12B6851
:1010A0005C6926EA0404A4B2003C18BF0124E9E705
:1010B0000020BDE8F88370B504460D461646236847
:1010C0005B6913F0800F21D12046FFF71BFFF8B9B1
:1010D000B5F1FF3FF3D000F0EBFD801BA84201D833
:1010E000002DECD123685B6913F0800FE7D100235A
:1010F0002363202284F83D2084F83E30226C42F0A5
:101100002002226484F83C30012000E0002070BD01
:101110000120FCE72DE9F04385B004460D469146D9
:101120001F46DDF830800D9E0368196841F4807118
:1011300019600096434600224FF00111FFF7FBFEB5
:1011400060B9236805F0FE051D6133464246264915
:101150002046FFF745FF68B1012008E023681B68BF
:1011600013F4807F02D04FF400732364032005B092
:10117000BDE8F0830023039323685A6903929B69B7
:101180000393039B324641462046FFF794FF30B954
:10119000012F0FD123685FFA89F61E61E7E7236C00
:1011A000042B01D00120E2E72268136843F40073A6
:1011B0001360F7E723684FEA19221A613246414665
:1011C0002046FFF778FF20B923685FFA89F61E6191
:1011D000CDE7236C042B01D00120C8E722681368F7
:1011E00043F400731360F7E7020001002DE9F047B4
:1011F00084B004460D46164699460C9FDDF83480AF
:101200000268136843F4806313600368196841F44B
:1012100080711960CDF800803B4600224FF001112B
:10122000FFF789FE70B95FFA85FA236805F0FE05BD
:101230001D6143463A4641492046FFF7D1FE68B159
:10124000012008E023681B6813F4807F02D04FF46C
:1012500000732364032004B0BDE8F08700230393E8
:1012600023685A6903929B690393039B424639465C
:101270002046FFF720FF80B9B9F1010F18D123688C
:10128000F6B21E61424639462046FFF714FF68B3A6
:10129000236C042B24D00120DDE7236C042B01D028
:1012A0000120D8E72268136843F400731360F7E75E
:1012B0002368320A1A61424639462046FFF7FBFE90
:1012C00018B92368F6B21E61DCE7236C042B01D049
:1012D0000120C0E72268136843F400731360F7E746
:1012E0002268136843F400731360D4E7226813681C
:1012F00043F480731360CDF800803B4600224FF02A
:1013000001112046FFF717FE68B922684AF0010371
:10131000136143463A4609492046FFF761FE00281B
:1013200099D0012097E723681B6813F4807F02D0CF
:101330004FF40073236403208DE700BF0200010017
:1013400070B504460D46164623685B6913F0040F1A
:1013500021D12046FFF7D6FDF8B9B5F1FF3FF3D014
:1013600000F0A6FC801BA84201D8002DECD1236818
:101370005B6913F0040FE7D100232363202284F874
:101380003D2084F83E30226C42F02002226484F832
:101390003C30012000E0002070BD0120FCE770B56A
:1013A00004460D46164614E06FF010025A61002301
:1013B0002363202284F83D2084F83E30226C22648E
:1013C00084F83C30012025E023685B6913F0400F6E
:1013D00010D02368586910F0400F1AD1586910F0E6
:1013E000100FE1D100F064FC801BA842ECD8002D66
:1013F000EFD1E9E700232363202284F83D2084F81D
:101400003E30226C42F02002226484F83C300120FD
:1014100000E0002070BD0000002800F0CC8070B516
:10142000044690F83D30002B77D0242384F83D30DB
:101430002268136823F0010313602268136843F4E1
:10144000004313602268136823F40043136000F024
:101450004DFF62685A4B9A4264D85A4B98428CBFEF
:1014600000230123002B40F0A8805749A1FB003145
:101470008B0C25686A6822F03F0242EA91426A605A
:1014800021680A6A22F03F0266684D4DAE424FD88D
:10149000013313430B622168CA6922F44F4222F0E0
:1014A000FF026568464B9D424CD8431E6D00B3FB5E
:1014B000F5F3013340F6FC70034278D0C3F30B031D
:1014C0001A43CA6121680B6823F0C003E269206AED
:1014D000024313430B6021688B6823F4034323F01A
:1014E000FF032269E068024313438B602168CB68E5
:1014F00023F0FF036269A06902431343CB602268B3
:10150000136843F00103136000202064202384F853
:101510003D30206384F83E0070BD80F83C30FFF71A
:1015200085FC82E7294B98428CBF0023012399E771
:101530004FF4967505FB03F3254DA5FB03539B095B
:101540000133A6E7A668BEB9431E05EB450CB3FB05
:10155000FCF30133C3F30B03B3FA83F35B0943BB1F
:10156000C6B9431E05EB4505B3FBF5F30133C3F3E1
:101570000B0343F40043A3E7431E05EB850C0CEB80
:101580008C0CB3FBFCF30133C3F30B03B3FA83F30B
:101590005B09E4E7431E05EB850505EB8505B3FB19
:1015A000F5F30133C3F30B0343F4404388E704230B
:1015B00086E7012384E7012070470120ACE700BFE4
:1015C000A08601007F841E0083DE1B43FF083D00D0
:1015D000D34D62102DE9F04383B004460F46904688
:1015E00099460C9E00F064FB054694F83D00C0B29D
:1015F000202803D0022003B0BDE8F0830095192312
:1016000001224B492046FFF796FC002840F08980D4
:1016100094F83C30012B00F08680012384F83C30A4
:1016200023681A6812F0010F03D11A6842F0010210
:101630001A602268136823F400631360212384F87E
:101640003D30402384F83E30002323640A9B6362CC
:10165000BDF82C306385638D2385364BE36201959D
:1016600000964B46424639462046FFF753FD002878
:101670005BD1238D002B35D02A4631462046FFF71B
:101680001AFD20BB626A236812781A61626A531CD1
:101690006362218D013989B22185638D9BB2013B43
:1016A0009BB263852368586910F0040FE1D00029CC
:1016B000DFD052781A61636A01336362238D013B84
:1016C0002385638D9BB2013B9BB26385D1E7236C7D
:1016D000042B01D001208EE72268136843F40073C5
:1016E0001360F7E72A4631462046FFF729FE50B13E
:1016F000236C042B01D001207DE72268136843F49A
:1017000000731360F7E72268136843F400731360F3
:10171000202384F83D30002384F83E3084F83C30A8
:1017200069E7022067E7022065E7012063E700BF61
:10173000020010000000FFFF2DE9F04389B00446CD
:101740000F4690469946129E0023079300F0B0FA88
:10175000054694F83D00C0B2202804D00227384640
:1017600009B0BDE8F0830095192301228149204684
:10177000FFF7E1FB002840F07C8194F83C30012B1E
:1017800000F07981012384F83C3023681A6812F054
:10179000010F03D11A6842F001021A60226813682F
:1017A00023F400631360222384F83D30402384F83F
:1017B0003E3000232364109B6362BDF84430638590
:1017C000638D23856C4BE362019500964B46424640
:1017D00039462046FFF70AFD0746002840F04D81B4
:1017E000238D5BB9039323685A6903929A69039224
:1017F000039A1A6842F400721A60F2E0012B0FD0CB
:10180000022B21D02268136843F480631360002305
:10181000069323685A6906929B690693069BE0E04B
:101820002268136823F48063136072B60023049364
:1018300023685A6904929A690492049A1A6842F4D5
:1018400000721A6062B6CCE02268136843F4006349
:10185000136072B60023059323685A6905929A694A
:101860000592059A1A6822F480621A6062B6B8E09E
:101870002A4631462046FFF792FD002840F0FF80BF
:1018800023681A69636A1A70636A01336362238D7D
:10189000013B2385638D9BB2013B9BB26385A0E036
:1018A00000953346002235492046FFF744FB0028C7
:1018B00040F0E9802268136823F48063136072B6F5
:1018C00023681A69636A1A70636A01336362238D3D
:1018D000013B2385638D9BB2013B9BB26385284B03
:1018E0001B68DB08274AA2FB03231B0A03EB8303C5
:1018F000C3EBC3030793079B013B0793079B002B95
:1019000028D023685A6912F0040FF4D01A6842F400
:1019100000721A6023681A69636A1A70636A013375
:101920006362238D013B2385638D9BB2013B9BB298
:10193000638562B623681A69636A1A70636A013341
:101940006362238D013B2385638D9BB2013B9BB278
:10195000638546E02363202284F83D2084F83E30EE
:10196000226C42F02002226462B684F83C300127E7
:10197000F5E600BF020010000000FFFF04000100B8
:101980000C00002089B5F8142A4631462046FFF79E
:1019900006FD002879D123681A69636A1A70636AA0
:1019A00001336362228D013A92B22285638D9BB22C
:1019B000013B9BB263852368596911F0040F10D075
:1019C000032A48D023681A69636A1A70636A01336C
:1019D0006362238D013B2385638D9BB2013B9BB2E8
:1019E0006385238D002B3BD0032BCDD8012B3FF4F7
:1019F0003FAF022B7FF454AF0095334600222449B9
:101A00002046FFF798FA00283BD172B62268136887
:101A100043F40073136023681A69636A1A70636A77
:101A200001336362238D013B2385638D9BB2013BB0
:101A30009BB2638562B623681A69636A1A70636A27
:101A400001336362238D013B2385638D9BB2013B90
:101A50009BB26385C5E71A6822F480621A60B1E719
:101A6000202384F83D30002384F83E3084F83C3055
:101A700075E6022773E6022771E601276FE6012764
:101A80006DE601276BE6012769E6012767E600BFDF
:101A9000040001002DE9F04385B0044688469146D4
:101AA0001D4600F005F994F83D30DBB2202B03D041
:101AB000022005B0BDE8F0830646009019230122FC
:101AC00057492046FFF737FA002840F0A08094F8E5
:101AD0003C30012B00F09D80012384F83C302368CA
:101AE0001A6812F0010F03D11A6842F001021A605D
:101AF0002268136823F400631360242384F83D30C4
:101B000000272764474BE36240E023681B6813F417
:101B1000807F02D04FF4007323640320C9E7A02321
:101B200084F83D3022685369C3F340035269C2F31D
:101B3000802294F83DC05FFA8CFCBCF1A00F09D064
:101B400043B93AB900F0B4F8801BA842E7D8002D99
:101B5000E8D1E4E7202384F83D3023685A6912F085
:101B6000020F31D11A6842F400721A6023686FF4D0
:101B700080625A6100961923012229492046FFF705
:101B8000DAF9002849D101374F4538D22268136865
:101B900043F48073136000962B4600224FF001112E
:101BA0002046FFF7C8F90028AFD1236808F0FE02ED
:101BB0001A6100F07DF8064622685369C3F34003BA
:101BC0005269C2F38022B4E71A6842F400721A60C4
:101BD0000023039323685A6903929B690393039B31
:101BE0000096192301220E492046FFF7A4F990B967
:101BF000202384F83D30002384F83C3059E720232B
:101C000084F83D30002384F83C30012051E7022065
:101C10004FE702204DE701204BE7012049E700BFD5
:101C2000020010000000FFFF10B504460E4B1A78AA
:101C30004FF47A73B3FBF2F30C4A1068B0FBF3F085
:101C400000F0DEFC68B90F2C01D901200AE0002267
:101C500021464FF0FF3000F0C3FC054B1C60002014
:101C600000E0012010BD00BF040000200C00002097
:101C70000800002008B5074A136843F010031360FA
:101C8000032000F09BFC0F20FFF7CEFFFFF7ACF81E
:101C9000002008BD00200240034A1168034B1B7856
:101CA0000B441360704700BF300100200400002087
:101CB000014B1868704700BF3001002038B504465A
:101CC000FFF7F6FF0546B4F1FF3F02D0044B1B7847
:101CD0001C44FFF7EDFF401BA042FAD338BD00BF04
:101CE0000400002082B0084B1B68084AA2FB0323B3
:101CF0005B0A00FB03F3019300BF019B5A1E019294
:101D0000002BF9D102B070470C000020D34D6210B7
:101D1000002800F0F18170B582B00446036813F02A
:101D2000010F2CD0994B5B6803F00C03042B1DD0E2
:101D3000964B5B6803F00C03082B12D06368B3F575
:101D4000803F41D0002B55D103F1804303F504338C
:101D50001A6822F480321A601A6822F480221A600B
:101D600037E08A4B5B6813F4803FE7D0874B1B68F2
:101D700013F4003F03D06368002B00F0BF81236899
:101D800013F0020F75D0814B5B6813F00C0F5FD01E
:101D90007E4B5B6803F00C03082B54D02369002BA7
:101DA00000F08A807A4B01221A60FFF781FF054616
:101DB000764B1B6813F0020F75D1FFF779FF401BBC
:101DC0000228F5D903209EE1704A136843F480335A
:101DD0001360636843B3FFF76BFF05466B4B1B68EB
:101DE00013F4003FCBD1FFF763FF401B6428F5D904
:101DF000032088E1B3F5A02F09D0644B1A6822F4C0
:101E000080321A601A6822F480221A60E1E703F136
:101E10008043A3F53C331A6842F480221A601A68A2
:101E200042F480321A60D4E7FFF742FF0546574B71
:101E30001B6813F4003FA2D0FFF73AFF401B642851
:101E4000F5D903205FE1514B5B6813F4803FA5D1C6
:101E50004E4B1B6813F0020F03D02369012B40F097
:101E60004F814A4A136823F0F803616943EAC103CA
:101E70001360236813F0080F33D0A369002B5CD0E4
:101E8000434B0122C3F88024FFF712FF05463F4B66
:101E90005B6A13F0020F21D1FFF70AFF401B0228F3
:101EA000F5D903202FE1394A136823F0F80361695B
:101EB00043EAC1031360DCE7354B00221A60FFF7E9
:101EC000F7FE0546314B1B6813F0020FD1D0FFF728
:101ED000EFFE401B0228F5D9032014E10120FFF793
:101EE00001FF236813F0040F00F09680274BDB6995
:101EF00013F0805F34D1254BDA6942F08052DA6109
:101F0000DB6903F080530193019B0125214B1B6882
:101F100013F4807F26D0E368012B3DD0002B53D1F2
:101F200003F1804303F504331A6A22F001021A62B6
:101F30001A6A22F004021A6233E0154B0022C3F839
:101F40008024FFF7B5FE0546104B5B6A13F0020FC5
:101F5000C7D0FFF7ADFE401B0228F5D90320D2E021
:101F60000025D3E70B4A136843F480731360FFF72F
:101F70009FFE0646074B1B6813F4807FCBD1FFF70B
:101F800097FE801B6428F5D90320BCE000100240B6
:101F900000004242007000405F4A136A43F00103B0
:101FA0001362E36833B3FFF783FE06465A4B1B6A9E
:101FB00013F0020F2FD1FFF77BFE801B41F2883315
:101FC0009842F3D903209EE0052B09D0524B1A6AA0
:101FD00022F001021A621A6A22F004021A62E0E791
:101FE0004D4B1A6A42F004021A621A6A42F0010268
:101FF0001A62D6E7FFF75CFE0646474B1B6A13F0F2
:10200000020F08D0FFF754FE801B41F2883398423C
:10201000F3D9032077E0E5B9E369002B72D03E4A9B
:10202000526802F00C02082A56D0022B17D03B4B04
:1020300000221A66FFF73CFE0446374B1B6813F07C
:10204000007F47D0FFF734FE001B0228F5D903209C
:1020500059E0314AD36923F08053D361DCE72F4B39
:1020600000221A66FFF724FE05462B4B1B6813F06F
:10207000007F06D0FFF71CFE401B0228F5D9032085
:1020800041E0236AB3F5803F1AD023494B6823F41B
:102090007413226A606A024313434B601F4B012290
:1020A0001A66FFF705FE04461B4B1B6813F0007F02
:1020B0000ED1FFF7FDFD001B0228F5D9032022E019
:1020C000154A536823F40033A1680B435360DCE7DF
:1020D000002018E0002016E0012B16D00E4B5B68A4
:1020E00003F48031226A914211D103F47013626AC1
:1020F00093420ED1002006E001207047012002E04B
:10210000012000E0002002B070BD0120FBE70120AB
:10211000F9E70120F7E700BF00100240000042424B
:102120000F4B5B6803F00C02082A01D00D48704782
:10213000C3F383420C49885C13F4803F0BD0084BF7
:102140005B68C3F34043094AD35C064A02FB00F0D4
:10215000B0FBF3F07047064B03FB00F0704700BF85
:102160000010024000127A00344400083044000895
:1021700000093D00002800F0A08070B50D4604461F
:10218000524B1B6803F007038B420BD24F4A136874
:1021900023F007030B431360136803F007038B421C
:1021A00040F08D80236813F0020F17D013F0040F56
:1021B00004D0474A536843F4E0635360236813F044
:1021C000080F04D0424A536843F460535360404AB6
:1021D000536823F0F003A1680B435360236813F0A6
:1021E000010F31D06368012B20D0022B25D0384A53
:1021F000126812F0020F64D035494A6822F00302D7
:1022000013434B60FFF754FD0646314B5B6803F008
:102210000C036268B3EB820F16D0FFF749FD801BF9
:1022200041F288339842F0D9032045E0284A1268E9
:1022300012F4003FE0D101203EE0254A126812F07E
:10224000007FD9D1012037E0204B1B6803F0070342
:10225000AB420AD91D4A136823F007032B431360CE
:10226000136803F00703AB422DD1236813F0040F6A
:1022700006D0174A536823F4E063E1680B435360C8
:10228000236813F0080F07D0114A536823F46053F2
:10229000216943EAC1035360FFF742FF0C4B5B68BF
:1022A000C3F303130B4AD35CD8400B4B18600B4BA2
:1022B0001868FFF7B9FC002070BD012070470120AD
:1022C000FAE70120F8E70120F6E700BF002002400E
:1022D000001002404C4400080C00002008000020C0
:1022E000014B1868704700BF0C00002008B5FFF7CD
:1022F000F7FF044B5B68C3F30223034AD35CD84067
:1023000008BD00BF001002404444000808B5FFF7B4
:10231000E7FF044B5B68C3F3C223034AD35CD84096
:1023200008BD00BF001002404444000870B582B0F0
:102330000024A446A1E07E4DAB4214D00CD8A5F5F4
:102340008015AB420FD005F57025AB420BD0A5F53B
:102350008015AB4210D106E0764DAB4203D005F5B7
:102360008035AB4208D18B68002B50D0012B49D06F
:102370004261082400E0CC68BEF1FF0F49D8064650
:102380004FEA8C0233680F25954023EA050304FACF
:1023900002F2134333604B6813F0805F6BD0664BDF
:1023A0009A6942F001029A619B6903F0010301936B
:1023B000019B4FEA9C02951C604B53F825600CF082
:1023C0000305AD000F23AB4026EA03065C4B9842A1
:1023D00026D003F58063984200F08C8003F580637B
:1023E000984200F0898003F58063984216D0042358
:1023F00017E0CC680434BFE7CC680834BCE7CC688D
:102400000C34B9E702610824B6E70024B4E70424D9
:10241000B2E7061DACF108029200B3E7032300E027
:102420000023AB4033430232444D45F822304B6821
:1024300013F4801F62D0434A936843EA0E0393600B
:102440004B6813F4001F5FD03E4AD36843EA0E0383
:10245000D3604B6813F4003F5CD03A4A536843EAB8
:102460000E0353604B6813F4803F59D0354A13680C
:1024700043EA0E0313600CF1010C0B6833FA0CF203
:1024800054D0012202FA0CF203EA020E32EA0303EC
:10249000F1D14B68122B3FF64EAF122B3FF66CAFCB
:1024A00001A555F823F000BF672300087723000833
:1024B000F92300080B240008792300087923000879
:1024C000792300087923000879230008792300087C
:1024D000792300087923000879230008792300086C
:1024E000792300087923000879230008F3230008E2
:1024F000FF230008012394E7022392E7114A93681F
:1025000023EA0E0393609BE70E4AD36823EA0E0387
:10251000D3609EE70B4A536823EA0E035360A1E79A
:10252000084A136823EA0E031360A4E702B070BDE3
:102530000000221000003110001002400000014095
:1025400000080140000401400AB10161704709041C
:1025500001617047002808DB0901C9B200F1604041
:1025600000F5614080F80013704700F00F0009018A
:10257000C9B2014B1954704714ED00E000B500F0EA
:102580000700C0F1070CBCF1040F28BF4FF0040C8A
:10259000031D062B0FD9C31E4FF0FF3E0EFA0CF0A1
:1025A00021EA000199400EFA03FE22EA0E0241EAF6
:1025B00002005DF804FB0023EEE70000074AD36841
:1025C00023F4E0631B041B0C000200F4E0600343EF
:1025D00043F0BF6343F40033D360704700ED00E085
:1025E00010B50446054BD868C0F30220FFF7C6FFBC
:1025F00001462046FFF7AEFF10BD00BF00ED00E032
:102600000138B0F1807F0BD24FF0E0235861054ACA
:10261000F02182F823100020986107221A61704788
:102620000120704700ED00E07047000010B5034640
:102630000C4A0D490D48006840B10C48006803443D
:10264000521A934206D8094A136010BD0748084C35
:102650000460F2E700F09CFF0C2303604FF0FF30B2
:10266000F3E700BF00500020000400003401002008
:10267000C002002070B50C461646002506E0AFF3F8
:102680000080214601F8010B01350C46B542F6DB0E
:10269000304670BD70B50C461646002504E014F8AF
:1026A000010BAFF300800135B542F8DB304670BD59
:1026B0004FF0FF3070474FF400534B6000207047DD
:1026C000012070470020704730B58DB04F4C4FF05F
:1026D000FF3502951923019304AB0093012388224F
:1026E000EC212046FFF728F80295072301930DF10E
:1026F000290300930123E122EC212046FFF71CF877
:102700009DF811209DF8103043EA0223404A1380BF
:102710009DF813209DF8123043EA02233D4A1380AE
:102720009DF815309DF8142042EA03223A490A80A8
:102730009DF8172043EA0223384A13809DF8192098
:102740009DF8163043EA0223354A13809DF81B207A
:102750009DF81A3043EA0223324A13809DF81D2067
:102760009DF81C3043EA02232F4A13809DF81F2056
:102770009DF81E3043EA02232C4A13809DF8212045
:102780009DF8203043EA0223294A13809DF8232034
:102790009DF8223043EA0223264A13809DF8252023
:1027A0009DF8243043EA0223234A13809DF8272012
:1027B0009DF8263043EA0223204A13809DF8282002
:1027C0001F4B1A809DF82A209DF8293043EA0223E6
:1027D0001C4A13809DF82B201B4B1A809DF82C104F
:1027E0009DF82D3003F00F0242EA011217490A80CA
:1027F0009DF82E201B0943EA0213154A13809DF809
:102800002F20144B1A800DB030BD00BFDC0000201B
:102810005E01002056010020540100205C010020D0
:1028200052010020500100204E0100204C010020E8
:102830004A010020480100204601002044010020F8
:102840005A010020420100205801002040010020D0
:102850003E0100203C010020F0B587B007460C4641
:1028600016461D46FFF730FF00238DF817308DF810
:102870001630B6238DF817304FF47A730293012384
:1028800001930DF117020092E022EC215048FEF76F
:10289000A1FE002840F086806420FFF70FFA8DF833
:1028A00017604FF47A730293012301930DF117021D
:1028B0000092F222EC214648FEF78CFE002874D1EB
:1028C0006420FFF7FBF94FF47A730293012301931D
:1028D0000DF116020092F222EC213D48FEF72CFF8A
:1028E0009DF816209DF817309A4261D19DF834303A
:1028F0009B009DF8302043EA42138DF817304FF4C7
:102900007A730293012301930DF117020092F522CD
:10291000EC212F48FEF75EFE00284CD16420FFF723
:10292000CDF94FF47A730293012301930DF116024E
:102930000092F522EC212648FEF7FEFE9DF81620B7
:102940009DF817309A4239D1A40044EA471464B282
:1029500025438DF817504FF47A73029301230193A6
:102960000DF117020092F422EC211948FEF732FE15
:1029700038BB6420FFF7A2F94FF47A730293012366
:1029800001930DF116020092F422EC211048FEF79B
:10299000D3FE9DF816209DF817309A4214D10020DE
:1029A00007B0F0BD4FF0FF30FAE74FF0FF30F7E728
:1029B0004FF0FF30F4E74FF0FF30F1E74FF0FF301A
:1029C000EEE74FF0FF30EBE74FF0FF30E8E700BFF6
:1029D000DC00002010B586B04FF47A730293012317
:1029E00001931F4C0094D022EC211E48FEF7A4FE58
:1029F0002378582B31D14FF0FF33029308230193F2
:102A000004AB00930123F722EC211648FEF794FE55
:102A10009DF810209DF811301B0143EA02339DF808
:102A2000122043EA1213104A13609DF813209DF8F8
:102A300014301B0143EA02339DF8152043EA1213B8
:102A40000A4A13609DF816209DF8173043EA0223C6
:102A5000074A1360002006B010BD4FF0FF30FAE7C0
:102A60006C010020DC0000206401002068010020CF
:102A7000600100200E4B1B885A00C2EBE0020D499A
:102A8000B1F9001001FB02F2C3EB201000FB00F0D3
:102A90000013094BB3F9003003FB00F0801300EB87
:102AA000E220064B186000EB800080300012704777
:102AB0005E01002056010020540100203801002052
:102AC000F8B5664B1968CB17B1F5FA3143F1FF330E
:102AD00001FB03F4A1FB012606EB4406604CB4F9AC
:102AE0000050EC1702FB04F405FB0644A2FB05753D
:102AF0002C445C4DB5F900C04FEAEC750CFB03FEAD
:102B000001FB05EEACFB01C5AE444FEA4E4E4EEA6A
:102B1000DC3E4FEA4C4C1CEB070C44EB0E04524DD0
:102B2000B5F9005004EBC504504DB5F900E04FEA8B
:102B3000EE7502FB05F50EFB0655A2FB0E2E754445
:102B4000120A42EA05624A4EB6F900E04FEAEE7612
:102B50000EFB03F301FB0633AEFB01E10B441B0349
:102B600043EA1E534FEA0E3E12EB0E0243EB2523BF
:102B700003F500433F490D88A2FB052105FB031126
:102B80004A10CB1753EA610165D0C0F5801E4FEAA9
:102B90006E014FEACE7EBEEB0C0E61EB04041EEB21
:102BA0000E0C44EB04011CEB0E0C44EB01018801FC
:102BB00040EA9C604FEA8C151CEB050C41EB0001D0
:102BC000890041EA9C714FEA8C0C1CEB0E0C44EB23
:102BD0000101890041EA9C714FEA8C0010EB0E0064
:102BE00044EB0101FDF730FF0346234AB2F90050E0
:102BF000EF17420B42EAC1424E1305FB06F402FBFB
:102C00000744A5FB02573C4402FB04F405FB0644C1
:102C1000A2FB05252C44520E42EAC412174DB5F909
:102C20000050EF1705FB01F607FB0060A5FB0356FC
:102C30003044ED0C45EA40359B1841EB64615B196B
:102C400041EBE041180A40EA01600D4BB3F9003056
:102C500000EB0310F8BD0020FCE700BF38010020A6
:102C60004A0100204C0100204E01002050010020AC
:102C7000520100205C010020440100204601002098
:102C800048010020204B1968A1F596311F4BB3F97C
:102C900000301B05C3EB80301D4BB3F9003001FB46
:102CA000130000F58040C0131A4BB3F9003001FB4C
:102CB00003F39B12184A128801FB02F2D21202F5AA
:102CC000004202FB03F39B1203F50013134AB2F90F
:102CD000002002FB03F303F500539B1303FB00F0FA
:102CE000C31303FB03F3DB110D4A128802FB03F34A
:102CF000A0EB231020EAE070B0F1C85FA8BF4FF04E
:102D0000C8500013704700BF380100204001002068
:102D10003E0100203C01002058010020420100201B
:102D20005A01002008B5FFF755FE48BB1F4B186835
:102D3000B0F5000F25D11E4B00221A601D4B1868FC
:102D4000B0F5000F2AD0FFF7BBFEFDF72BFB0022EA
:102D5000194BFDF7A1FBFDF7B1FD184B1860184B9F
:102D60001868B0F5004F1DD0FFF78CFFFDF71AFB78
:102D70000022144BFDF790FBFDF7A0FD124B1860ED
:102D800008BDFFF777FEFDF71DFB00220F4BFDF797
:102D9000ADFCFDF793FD064B1860CFE7074B002213
:102DA0001A60DCE7084B00221A60E9E7680100209E
:102DB00090000020640100200000703F8C00002083
:102DC000600100200000503F8800002000005940B2
:102DD000026802F10C0353E8003F23F490730C32B5
:102DE00042E800310029F3D1026802F1140353E8EC
:102DF000003F23F00103143242E800310029F3D1EF
:102E0000036B012B05D0202380F84230002303639D
:102E10007047026802F10C0353E8003F23F01003EF
:102E20000C3242E800310029F3D1ECE710B504463A
:102E30000268136923F44053C1680B43136183682C
:102E40000269134342691A430168CB6823F4B05303
:102E500023F00C031343CB600268536923F44073DF
:102E600081690B4353610268134B9A4220D0FFF7EC
:102E70003DFA024602EB820202EB820263689B008B
:102E8000B2FBF3F20D48A0FB02314909642303FBB6
:102E900011231B013233A0FB03035B0903F0F00293
:102EA00002EB011203F00F03216813448B6010BD85
:102EB000FFF72CFA0246DDE7003801401F85EB5191
:102EC0002DE9F04383B005460E4617469946DDF8D6
:102ED00028802B681C6836EA04040CBF01240024F7
:102EE000BC4228D1B8F1FF3FF3D0FEF7E1FEA0EBE2
:102EF0000900404523D8B8F1000F22D02B68DA68CA
:102F000012F0040FE5D0802EE3D0402EE1D01A68F5
:102F100012F0080FDDD0002401941A6801925B685A
:102F20000193019B2846FFF753FF08236B6485F844
:102F30004040012000E0002003B0BDE8F083032002
:102F4000FAE70320F8E760B310B5044690F8413083
:102F500013B3242384F841302268D36823F4005348
:102F6000D3602046FFF762FF2268136923F4904381
:102F700013612268536923F02A0353612268D368DE
:102F800043F40053D36000206064202384F8413070
:102F900084F84230606310BD80F84030FDF778FF60
:102FA000D7E7012070472DE9F04182B01E4690F826
:102FB0004130DBB2202B56D104460D469046002905
:102FC00055D00AB901204FE000234364212380F843
:102FD0004130FEF76DFE0746A4F82480A4F8268051
:102FE000A368B3F5805F02D04FF0000814E02369B6
:102FF0002BB34FF000080FE0202384F8413003206A
:1030000032E038F8023B2268C3F308035360E28CD5
:1030100092B2013A92B2E284E38C9BB293B10096F1
:103020003B46002280212046FFF74AFF0028E3D1DB
:10303000002DE6D015F8012B23685A60E7E7A84673
:103040000025E9E700963B46002240212046FFF795
:1030500037FF18B9202384F8413005E0202384F895
:103060004130032000E0022002B0BDE8F0810120E1
:10307000FAE70000FFF7D8FA0B480C490C4A002386
:1030800002E0D458C4500433C4188C42F9D3094A1E
:10309000094C002301E013600432A242FBD300F08C
:1030A0007DFAFDF735FE7047000000206C0000201F
:1030B000A04400086C000020BC020020FEE70000D5
:1030C000002310B50446C0E90033C0E9043383602F
:1030D00081814366C2818361194608225C3000F019
:1030E00009FA0D4B246263620C4BA3620C4BE36242
:1030F0000C4B23630C4B9C4206D003F168029442B4
:1031000002D0D0339C4205D104F15800BDE81040F4
:1031100000F068BA10BD00BF4533000867330008EF
:103120009F330008C333000870010020024A03499E
:10313000034800F069B800BF10000020A93E000855
:103140002000002041680C4B10B59942044601D084
:1031500000F0AAFEA168094B994202D0204600F077
:10316000A3FEE168064B994204D02046BDE810401A
:1031700000F09ABE10BD00BF70010020D8010020F1
:103180004002002010B50B4B0B4C0C4A20461A6035
:1031900004210022FFF794FF04F1680001220921B5
:1031A000FFF78EFF04F1D0000222BDE8104012218B
:1031B000FFF786BFA8020020700100202D31000813
:1031C000014800F010BA00BFB1020020014800F031
:1031D0000BBA00BFB102002010B50446FFF7F0FFA4
:1031E000236A1BB1BDE81040FFF7F0BF044B236218
:1031F000044B1B68002BF5D1FFF7C4FFF2E700BFBB
:1032000045310008A80200202DE9F843074688460A
:1032100014460026D4E90195B9F1010905D52468C1
:10322000002CF7D13046BDE8F883AB89012B07D9D4
:10323000B5F90E30013303D029463846C04706435E
:103240006835E9E7036A70B505460E4684680BB930
:10325000FFF7C2FF636EDB0705D4A389980502D48C
:10326000A06D00F0C0F9A389190702D52369002BCE
:1032700035D12146284600F0E7F880B34FF0FF35FE
:10328000636EDA0705D4A3899B0502D4A06D00F014
:10329000ABF9284670BD002B04DAA2699A4217DC0C
:1032A0000A2915D023685A1C22601970A36816F8E1
:1032B000011F013BA3600029EDD1002B11DA22464A
:1032C0000A21284600F081F80130D7D00A25D7E737
:1032D0002246284600F079F80130E7D1CEE7013EDA
:1032E000E4E723685A1C22600A221A70EEE7000005
:1032F000024B01461868FFF7A5BF00BF1C00002065
:103300000EB46FF0004110B500249DB01FAB0290C9
:103310000690079104910948094953F8042B059137
:10332000006802A901931B9400F0B2FA029B1C7082
:103330001DB0BDE8104003B0704700BF1C00002066
:103340000802FFFF10B50C46B1F90E1000F0FCF8B2
:103350000028ABBF636DA3891B1823F48053ACBF57
:103360006365A38110BD2DE9F0411F468B89054699
:10337000DB050C46164605D502230022B1F90E10D6
:1033800000F0D0F8A389324623F48053A381284665
:103390003B46B4F90E10BDE8F04100F0E7B810B5B7
:1033A0000C46B1F90E1000F0BDF8431CA38915BFFF
:1033B000606523F4805343F48053A38118BFA38135
:1033C00010BDB1F90E1000F09DB8F8B50E461446C8
:1033D000054618B1036A0BB9FFF7FEFEA369A360A7
:1033E000A3891A0701D5236943B92146284600F06D
:1033F0002BF818B14FF0FF373846F8BD2368226923
:10340000F6B2981A63693746834205DC214628469E
:1034100000F04AFD0028EDD1A368013BA3602368BA
:103420005A1C22601E706269431C9A4204D0A38910
:10343000DB07E1D50A2EDFD12146284600F034FD16
:103440000028D9D0D6E7000038B5294B05461868C2
:103450000C4618B1036A0BB9FFF7BEFEB4F90C3085
:10346000190722D4DA0607D409222A6043F0400360
:103470004FF0FF30A38133E0580712D5616B41B1A3
:1034800004F14403994202D0284600F0AFF800232B
:103490006363A38923F02403A3810023636023696A
:1034A0002360A38943F00803A38123694BB9A3894F
:1034B00003F42073B3F5007F03D02146284600F0C3
:1034C00040FDB4F90C3013F001020AD00022A260D2
:1034D00062695242A261226942B913F08000C5D1EB
:1034E00038BD990758BF6269A260F4E70020F7E78A
:1034F0001C00002003460244934200D1704703F8A9
:10350000011BF9E738B50023054D044608462B603A
:10351000FFF7CEF8431C02D12B6803B1236038BDFE
:10352000AC02002038B50446084611460022054D7D
:103530002A601A46FFF7C6F8431C02D12B6803B174
:10354000236038BDAC02002038B504460846114659
:103550000022054D2A601A46FFF78CF8431C02D161
:103560002B6803B1236038BDAC02002038B5044697
:10357000084611460022054D2A601A46FFF78AF8D0
:10358000431C02D12B6803B1236038BDAC0200207C
:10359000014B1868704700BF1C00002070B5002662
:1035A0000C4D0D4C641BA410A64209D100F0FEFE88
:1035B00000260A4D0A4C641BA410A64205D170BD1A
:1035C00055F8043B98470136EEE755F8043B984719
:1035D0000136F2E79844000898440008984400082F
:1035E0009C440008704770477047000038B5054696
:1035F000002940D051F8043C0C1F002BB8BFE41840
:1036000000F0DEF81C4A136833B963601460284682
:10361000BDE8384000F0DAB8A34208D92068211884
:103620008B4201BF19685B6809182160EDE71A46F3
:103630005B680BB1A342FAD911685018A0420BD1B4
:1036400020680144501883421160E0D118685B681B
:10365000084410605360DAE702D90C232B60D6E7E8
:10366000206821188B4201BF19685B680918216026
:1036700063605460CBE738BDB802002070B50F4ED0
:103680000C463168054611B900F0D4FC3060214683
:10369000284600F0CFFC431C03D14FF0FF342046F6
:1036A00070BDC41C24F00304A042F8D0211A28469F
:1036B00000F0C0FC0130F2D1EFE700BFB4020020FF
:1036C0002DE9F843CD1C25F0030508350C2D38BF36
:1036D0000C25002D064601DBA94204D90C233360DA
:1036E0000020BDE8F883DFF8D48000F069F8D8F84E
:1036F00000301C4644BB29463046FFF7BFFF431C41
:10370000044658D1D8F800402746002F43D1002C5A
:103710004BD023683946304604EB030900F08AFC9D
:10372000814542D1216830466D1A2946FFF7A6FF30
:1037300001303AD023682B442360D8F800305A680F
:1037400062BBC8F800700FE02268521B20D40B2A1D
:1037500017D96119A342256018BF5960636808BF73
:10376000C8F8001062514B60304600F02FF804F1A9
:103770000B00231D20F00700C21A1CBF1B1AA35008
:10378000AFE76268A3420CBFC8F800205A60EBE7BD
:1037900023466468AEE73C467F68B6E71A465B6836
:1037A000A342FBD100235360DEE70C233046336095
:1037B00000F00CF894E70560D6E700BFB8020020DF
:1037C0000148FFF710BF00BFB00200200148FFF71B
:1037D0000BBF00BFB00200202DE9F0471F468E68E6
:1037E0008246BE420C4690460B682DD8B1F90C209B
:1037F00012F4906F26D06569096905EB4505A3EBC6
:10380000010905EBD5757B1C4B446D109D4238BFFB
:103810001D46530527D52946FFF752FF064660B3DC
:103820004A46216900F024FCA38923F4906343F005
:103830008003A38126614E4426603E466561A5EB68
:103840000905A560BE4200D93E4632464146206881
:1038500000F0B3FB0020A3689B1BA36023683344E4
:103860002360BDE8F0872A4600F010FC06460028D9
:10387000E0D150462169FFF7B9FE0C23CAF80030A9
:10388000A3894FF0FF3043F04003A381E9E7000034
:103890002DE9F04F98468B8907461B060D461446C6
:1038A0009DB010D50B6973B94021FFF709FF28605F
:1038B000286130B90C233B604FF0FF301DB0BDE8EC
:1038C000F08F40236B610023099320238DF829306A
:1038D00030234FF00109CDF80C80DFF898818DF886
:1038E0002A3023469A4613F8012B0AB1252AF9D12A
:1038F000BAEB040B0BD05B46224629463846FFF74D
:103900006BFF013000F0A780099A5A4409929AF897
:103910000030002B00F09F8000234FF0FF32CDE9F4
:1039200005230AF1010A049307938DF853301A9383
:103930005446052214F8011B4E4800F08BFB049AF4
:10394000D8B9D00644BF20238DF85330110744BFA7
:103950002B238DF853309AF800302A2B15D054467B
:1039600000204FF00A0C079A214611F8013B303B2A
:10397000092B4BD9B0B1079214E0A0EB080309FA68
:1039800003F31343A2460493D2E7039B191D1B685C
:103990000391002BBBBF5B4242F0020207930793E7
:1039A000B8BF049223782E2B0AD163782A2B32D108
:1039B000039B02341A1D1B68039243EAE3730593C9
:1039C000DFF8B4A003225046217800F043FB38B161
:1039D0004022049BA0EB0A0082401343013404936D
:1039E00014F8011B062225488DF8281000F032FB40
:1039F000002836D0224B1BBB039B073323F0070361
:103A000008330393099B334409936AE70C4601206A
:103A10000CFB0232A8E700234FF00A0C19460134D0
:103A20000593204610F8012B303A092A03D9002BC0
:103A3000C6D00591C4E7044601230CFB0121F0E741
:103A400003AB00932A4638460E4B04A9AFF300801F
:103A5000421C0646D6D1AB895B063FF52DAF0998CF
:103A60002CE703AB00932A463846064B04A900F026
:103A70007DF8EDE75C4400086244000866440008F5
:103A800000000000D93700082DE9F0471646984697
:103A90008A680B6907469342B8BF1346336091F8B2
:103AA00043200C46DDF820900AB1013333602368CF
:103AB000990642BF336802333360256815F0060566
:103AC00006D104F1190AE36832689B1AAB422BDC79
:103AD00094F843302268003B18BF0123920630D48B
:103AE0004146384604F14302C847013023D02368D9
:103AF000226903F00603042B14BF002533684FF03E
:103B0000000608BFE56804F11A0408BFED1A54F86E
:103B1000123C08BF25EAE5759342C4BF9B1AED1815
:103B2000B5421AD1002008E00123524641463846EA
:103B3000C847013003D14FF0FF30BDE8F0870135B1
:103B4000C1E73020E11881F843005A1C94F8451071
:103B50002244023382F84310C2E701232246414641
:103B60003846C8470130E6D00136D9E72DE9FF478E
:103B70000F7E9146782F80460C469A460C9E01F1A6
:103B8000430207D8622F0AD8002F00F0D180582FA7
:103B900000F0B88004F1420684F842703AE0A7F1E0
:103BA0006303152BF6D801A151F823F0053C00085A
:103BB000193C0008953B0008953B0008953B000820
:103BC000953B0008193C0008953B0008953B000810
:103BD000953B0008953B0008173D0008433C000852
:103BE000D13C0008953B0008953B0008393D000892
:103BF000953B0008433C0008953B0008953B0008B6
:103C0000D93C000833681A1D1B68326004F1420673
:103C100084F8423001239CE033682068191D31602C
:103C2000060601D51D6803E04506FBD5B3F9005033
:103C3000002D03DA2D236D4284F843300A235848BF
:103C400011E021683368080653F8045B02D4490682
:103C500048BFADB26F2F336014BF0A23082350480A
:103C6000002184F843106668002EA66005DB2168F9
:103C70002E4321F0040121604BD01646B5FBF3F131
:103C800003FB1157C75D06F8017D2F46BB420D4669
:103C9000F4D9082B0BD12368DF0708D523696168A5
:103CA0009942DEBF302306F8013C06F1FF36921B35
:103CB00022614B4621464046CDF800A003AAFFF7FB
:103CC000E3FE01304AD14FF0FF3004B0BDE8F08789
:103CD000236843F0200323607827324884F8457036
:103CE000236831681F0651F8045B02D45F0648BFA1
:103CF000ADB23160D90744BF43F0200323601DB14A
:103D00001023ADE72648E9E7236823F0200323606A
:103D1000F6E71646BDE733682568181D616930600F
:103D20002E061B6801D5196002E06806FBD51980D4
:103D3000002316462361BCE7336800211A1D326058
:103D40001E686268304600F085F908B1801B60602B
:103D500063682361002384F84330AAE7324649466A
:103D600040462369D0470130ADD023689B0713D468
:103D7000E068039B9842B8BF1846A6E70123324685
:103D800049464046D04701309DD00135E36803994C
:103D90005B1AAB42F2DCEBE7002504F11906F5E70C
:103DA0006D4400087E440008B1F90C20F8B51607F0
:103DB00005460C4654D44B68002B02DC0B6C002BE0
:103DC00048DDE66A002E45D0002312F480522F68A9
:103DD000216A2B6030D0626DA389590705D56368CD
:103DE000D21A636B0BB1236CD21A00232846E66A01
:103DF000216AB047431CA38906D129681D292BD805
:103E0000284ACA40D60727D5002262602269D90411
:103E1000226004D5421C01D12B6803B96065616B37
:103E20002F60B9B104F14403994202D02846FFF74C
:103E3000DDFB002363630DE001232846B047024603
:103E4000501CC9D12B68002BC6D01D2B01D0162BBE
:103E50001DD12F60002021E043F040031BB21AE087
:103E60000F69002FF6D0930718BF00230E6808BF14
:103E70004B69F61B0F608B60002EEBDD33463A4634
:103E80002846216AD4F828C0E047002807DCB4F9A6
:103E90000C3043F040034FF0FF30A381F8BD0744DE
:103EA000361AE9E70100402038B50B6905460C4693
:103EB00013B90025284638BD18B1036A0BB9FFF7BE
:103EC0008BF9B4F90C30002BF3D0626ED00704D418
:103ED000990502D4A06DFFF786FB28462146FFF71F
:103EE00063FF636E0546DA07E4D4A3899B05E1D43A
:103EF000A06DFFF779FBDDE770B50C46B1F90E1048
:103F0000154600291E4696B00CDAA389002113F04D
:103F1000800F14BF40234FF48063002031602B607A
:103F200016B070BD6A4600F063F80028EDDB019919
:103F300001F47041A1F50053594259414FF4806397
:103F4000EBE78B89F7B59D0706460C4607D504F1CC
:103F50004703236023610123636103B0F0BD6A4618
:103F600001ABFFF7C9FF009F054639463046FFF712
:103F7000A7FB48B9B4F90C309A05EED423F003033B
:103F800043F00203A381E2E7A389C4E9040743F0F5
:103F90008003A381019B20605BB13046B4F90E1011
:103FA00000F038F828B1A38923F0030343F001039C
:103FB000A381A3891D43A581CFE7884210B501EBFA
:103FC000020402D98442234607D8431EA14208D0E6
:103FD00011F8012B03F8012FF8E7014602448A4249
:103FE00000D110BD13F8014D02F8014DF7E70000B4
:103FF00038B50023064D0446084611462B60FEF7EF
:104000005AFB431C02D12B6803B1236038BD00BFAB
:10401000AC02002038B50023054D044608462B604D
:10402000FEF74EFB431C02D12B6803B1236038BD61
:10403000AC02002038B50023054D044608462B602D
:10404000FEF7F4FA431C02D12B6803B1236038BD9C
:10405000AC020020034610B5C9B202449342184690
:1040600001D1002003E0047801338C42F6D110BD69
:104070000A44914200F1FF3300D1704710B511F8A6
:10408000014B914203F8014FF9D110BD2DE9F041E8
:10409000074614460D4621B91146BDE8F041FFF729
:1040A0000FBB2AB9FFF7A2FA25462846BDE8F081E2
:1040B00000F01AF88442064602D8B4EB500FF4D848
:1040C00021463846FFF7FCFA804608B94546ECE73A
:1040D000B4422246294628BF3246FFF7C9FF294687
:1040E0003846FFF783FAF1E751F8043C181F002B1C
:1040F000BCBF0B58C01870472DE9F047089D0E460D
:1041000004468E46002B4CD18A429446B2FA82F382
:1041100062D953B102FA03FCC3F1200201FA03FE93
:1041200020FA02F242EA0E0E9C404FEA1C47BEFB08
:10413000F7F11FFA8CF607FB11EE01FB06F0220CDB
:1041400042EA0E4290420AD91CEB020201F1FF3E04
:1041500080F00E81904240F20B8102396244121AC3
:10416000B2FBF7F007FB102200FB06F6A4B244EA0C
:104170000244A6420AD91CEB040400F1FF3280F08D
:10418000F980A64240F2F6806444023840EA0140D9
:104190000021A41B1DB1DC400023C5E90043BDE89C
:1041A000F0878B4205D90DB1C5E900010021084611
:1041B000F5E7B3FA83F1002942D1B34202D3824238
:1041C00000F2EE80841A66EB030201209646002D71
:1041D000E5D0C5E9004EE2E7002B40F08C80881A5C
:1041E0000121170C96B2B0FBF7FE07FB1E00220C54
:1041F00042EA004206FB0EF0904208D91CEB020294
:104200000EF1FF3802D2904200F2CC80C646121A5C
:10421000B2FBF7F007FB102200FB06F6A4B244EA5B
:104220000244A64208D91CEB040400F1FF3202D27A
:10423000A64200F2B2801046A41B40EA0E40A9E755
:10424000C1F120078B4022FA07FC4CEA030C26FA46
:1042500007FA4FEA1C48BAFBF8FE06FA01F308FB1E
:104260001EAA1FFA8CF620FA07F400FA01F90EFBD9
:1042700006F023431C0C44EA0A44A04202FA01F26D
:104280000BD91CEB04040EF1FF3A80F08480A042AD
:1042900040F28180AEF1020E6444241A98B2B4FB5D
:1042A000F8F308FB134403FB06F640EA0444A64275
:1042B00008D91CEB040403F1FF3068D2A64266D98A
:1042C000023B644443EA0E40A41BA0FB02E6B44256
:1042D0007346B04652D34FD05DB1B9EB030264EBE5
:1042E000080404FA07F722FA01F31F43CC40C5E99A
:1042F0000074002153E702FA03FCC3F12000C1401F
:104300004FEA1C47B1FBF7FE07FB1E1124FA00F031
:104310009E403043020C1FFA8CF642EA01420EFB2B
:1043200006F1914204FA03F409D91CEB02020EF1E2
:10433000FF382ED291422CD9AEF1020E6244521AAD
:10434000B2FBF7F107FB112280B240EA024001FB09
:1043500006F2824208D91CEB000001F1FF3814D2AA
:10436000824212D902396044801A41EA0E413AE78A
:104370007146F4E6104609E7F145ADD2BEEB020303
:1043800066EB0C060138B046A6E74146ECE703466B
:1043900098E7C646D3E7D6467FE7644402384BE742
:1043A000084614E7AEF1020E624430E7F8B500BFEC
:1043B000F8BC08BC9E467047F8B500BFF8BC08BC06
:0443C0009E4670475E
:1043C400252E33660D0A00004572726F7221204E4D
:1043D4006F20424D502053656E736F722044657494
:1043E400656374656421212100000000424D45325B
:1043F40038302053656E736F72204465746563743E
:104404006564210048656C6C6F0D0A0054656D701D
:1044140065726174757265206D6561737572656D21
:10442400656E74206661696C656421000102000098
:1044340002030405060708090A0B0C0D0E0F1010E1
:10444400000000000102030400000000000000005E
:104454000102030406070809232D302B2000686C91
:104464004C00656667454647003031323334353693
:1044740037383941424344454600303132333435CC
:0C448400363738396162636465660000F9
:0844900080BCFF7F0100000069
:04449800550B0008B8
:04449C002D0B0008DC
:1044A0009A997940010000001000000000127A0083
:1044B0000000000003000000700100202000002028
:1044C0000000000070010020D80100204002002000
:1044D00000000000000000000000000000000000DC
:1044E00000000000000000000000000000000000CC
:1044F00000000000000000000000000000000000BC
:0C450000000000000000000000000000AF
:04000005080030754A
:00000001FF
