:020000040800F2
:1000000000000220F5230008A9050008AB05000840
:10001000AD050008AF050008B105000800000000AC
:10002000000000000000000000000000B305000810
:10003000B505000800000000B7050008B905000874
:1000400045240008452400084524000845240008EC
:1000500045240008452400084524000845240008DC
:1000600045240008452400084524000845240008CC
:1000700045240008452400084524000845240008BC
:1000800045240008452400084524000845240008AC
:10009000452400084524000845240008452400089C
:1000A000452400084524000845240008452400088C
:1000B000452400084524000845240008452400087C
:1000C000452400084524000845240008452400086C
:1000D000452400084524000845240008452400085C
:1000E000452400084524000845240008452400084C
:1000F000452400084524000845240008452400083C
:10010000452400084524000845240008452400082B
:10011000452400084524000845240008452400081B
:10012000452400084524000845240008452400080B
:1001300045240008452400084524000845240008FB
:1001400045240008452400084524000845240008EB
:1001500045240008452400084524000845240008DB
:1001600045240008452400084524000845240008CB
:10017000452400084524000845240008000000002C
:08018000452400084524000895
:1001900001F0FF01102A2BDB10F0070F08D010F838
:1001A000013B013A8B422DD010F0070F42B3F6D13C
:1001B000F0B441EA012141EA014122F007047FF055
:1001C00000070023F0E80256083C85EA010586EAAC
:1001D000010685FA47F5A3FA87F586FA47F6A5FAE8
:1001E00087F68EB9EED1F0BC01F0FF0102F00702F4
:1001F00032B110F8013B013A83EA010313B1F8D19F
:100200000020704701387047002D06BF354603387F
:10021000073815F0010F07D1013015F4807F02BFB8
:10022000013015F4C03F0130F0BC0138704700BF09
:100230007BB972B90029BEBF00204FF0004106E033
:1002400008BF00281CBF6FF000414FF0FF3000F0E6
:1002500057B8ADF1080C6DE904CE002909DB002B7D
:100260001ADB03F07DF8DDF804E0DDE9022304B0D9
:100270007047404261EB4101002B1BDB03F070F83B
:10028000DDF804E0DDE9022304B0404261EB410106
:10029000524263EB43037047524263EB430303F064
:1002A0005FF8DDF804E0DDE9022304B0404261EBD1
:1002B00041017047524263EB430303F051F8DDF80C
:1002C00004E0DDE9022304B0524263EB43037047CC
:1002D00053B94AB9002908BF00281CBF4FF0FF31AD
:1002E0004FF0FF3000F00CB8ADF1080C6DE904CE12
:1002F00003F036F8DDF804E0DDE9022304B07047CE
:10030000704700BF0348044B834202D0034B03B144
:1003100018477047680000206800002000000000B7
:100320000548064B1B1AD90F01EBA301491002D057
:10033000034B03B118477047680000206800002095
:100340000000000010B5064C237843B9FFF7DAFF30
:10035000044B13B10448AFF300800123237010BD98
:1003600068000020000000001C36000808B5054B9E
:100370001BB105490548AFF30080BDE80840FFF711
:10038000CFBF00BF000000006C0000201C3600083A
:1003900084B000220192104B196B41F08001196367
:1003A000196B01F08001019101990292196B41F0E2
:1003B00001011963196B01F0010102910299039285
:1003C0001A6B42F002021A631B6B03F002030393E1
:1003D000039B04B0704700BF0038024000B583B0F3
:1003E00001904FF0FF33012201A9034801F01FFDE6
:1003F000019803B05DF804FBB400002072B6FEE77C
:1004000008B50A480A4B03600A4B43600023836027
:10041000C3604FF48042026143618361C361036240
:1004200000F0E4FB00B908BDFFF7E8FFFC00002086
:1004300000540040A086010008B50A480A4B03603A
:100440004FF4E133436000238360C36003610C22F7
:1004500042618361C36101F0BAFC00B908BDFFF7D6
:10046000CDFF00BFB40000200044004000B595B0AF
:100470003022002108A802F0F1F90023039304932D
:1004800005930693079301931E4A116C41F0805126
:100490001164126C02F080520192019A02931A4A7E
:1004A000116841F480411160126802F480420292A6
:1004B000029A0222089201210B9110210C910E92B6
:1004C0000F9308231093482311931292042313933C
:1004D00008A800F097FE80B90F230393022104912E
:1004E000002305934FF480520692079303A801F06E
:1004F000D9F820B915B05DF804FBFFF77FFFFFF7CF
:100500007DFF00BF003802400070004000B583B09E
:1005100001F024FBFFF7AAFFFFF73AFFFFF770FF98
:10052000FFF78AFF194C1A4BE36176232383194D99
:10053000284601F0C3FE2946204601F0C8FED0B986
:10054000FEE7019A144C84FB0213D117C1EB63112F
:10055000642505FB1122114802F038F8009AA4FB2B
:100560000231490905FB11220D4802F02FF84FF422
:100570007A7001F01FFB6A4601A9044801F008FFE8
:100580000028DED1074802F089F8F0E78C0000204F
:10059000FC000020840000201F85EB513436000849
:1005A000503600086C360008FEE7FEE7FEE7FEE77F
:1005B000FEE770477047704708B501F0E9FA08BDDB
:1005C00082B0002100910B4B5A6C42F480425A6475
:1005D0005A6C02F480420092009A01911A6C42F027
:1005E00080521A641B6C03F080530193019B02B08C
:1005F000704700BF0038024030B589B00023039334
:1006000004930593069307930268144B9A4201D012
:1006100009B030BD00250195114C236B43F0020356
:100620002363236B03F002030193019BC023039315
:1006300012230493032306930423079303A9094871
:1006400001F006F90295236C43F400132364236C34
:1006500003F400130293029BDAE700BF005400404A
:10066000003802400004024000B589B00023039323
:1006700004930593069307930268154B9A4202D0A0
:1006800009B05DF804FB0021019103F5FA331A6CFF
:1006900042F400321A641A6C02F400320192019A98
:1006A00002911A6B42F001021A631B6B03F0010303
:1006B0000293029B0C2303930223049303230693C8
:1006C0000723079303A9034801F0C2F8D8E700BF46
:1006D000004400400000024003685A6912F4806F31
:1006E00001D1002070476FF480625A6100230363D8
:1006F000202280F83D2080F83E30026C42F0040257
:10070000026480F83C30012070472DE9F041064634
:100710000C46174698463BE001F046FA069BC01A85
:10072000404502D8B8F1000F32D1012D18D03368FE
:100730009B6924EA03039BB2B3FA83F35B099F42EC
:1007400026D100233363202286F83D2086F83E30F0
:10075000326C42F02002326486F83C30012027E0FF
:1007600033685B6924EA03039BB2B3FA83F35B0942
:10077000E5E733685B6924EA030C1FFA8CFCBCFADA
:100780008CFC4FEA5C1C674511D1B8F1FF3FC3D127
:10079000C4F30745012DECD033689B6924EA030CB0
:1007A0001FFA8CFCBCFA8CFC4FEA5C1CEBE70020C7
:1007B000BDE8F0812DE9F84305460E46904699467E
:1007C00053E01A6842F400721A602B686FF480627A
:1007D0005A6100232B63202285F83D2085F83E30A6
:1007E0002A6C42F004022A6485F83C3001204AE079
:1007F00001F0DAF9A0EB0900404502D8B8F1000F8A
:1008000033D1012F17D02B689B6926EA03039BB2D3
:10081000003B18BF012343B300232B63202285F83C
:100820003D2085F83E302A6C42F020022A6485F88B
:100830003C30012027E02B685B6926EA03039BB26A
:10084000003B18BF0123E6E72B689C6926EA0404F5
:10085000A4B2003C18BF0124A4B12B685A6912F459
:10086000806FAED1B8F1FF3FC2D1C6F30747012F69
:10087000EAD12B685C6926EA0404A4B2003C18BFE4
:100880000124E9E70020BDE8F88370B504460D4671
:10089000164623685B6913F0800F21D12046FFF7CD
:1008A0001BFFF8B9B5F1FF3FF3D001F07DF9801BD4
:1008B000A84201D8002DECD123685B6913F0800FAA
:1008C000E7D100232363202284F83D2084F83E30C2
:1008D000226C42F02002226484F83C30012000E0C7
:1008E000002070BD0120FCE72DE9F04385B00446EF
:1008F0000D4691461F46DDF830800D9E036819684D
:1009000041F4807119600096434600224FF00111B6
:10091000FFF7FBFE60B9236805F0FE051D61334655
:10092000424626492046FFF745FF68B1012008E00E
:1009300023681B6813F4807F02D04FF40073236494
:10094000032005B0BDE8F0830023039323685A69B0
:1009500003929B690393039B324641462046FFF76F
:1009600094FF30B9012F0FD123685FFA89F61E6119
:10097000E7E7236C042B01D00120E2E7226813682B
:1009800043F400731360F7E723684FEA19221A61F2
:10099000324641462046FFF778FF20B923685FFAC8
:1009A00089F61E61CDE7236C042B01D00120C8E736
:1009B0002268136843F400731360F7E70200010034
:1009C0002DE9F04784B004460D46164699460C9F23
:1009D000DDF834800268136843F4806313600368B1
:1009E000196841F480711960CDF800803B460022FF
:1009F0004FF00111FFF789FE70B95FFA85FA23689D
:100A000005F0FE051D6143463A4641492046FFF781
:100A1000D1FE68B1012008E023681B6813F4807FD1
:100A200002D04FF400732364032004B0BDE8F087C4
:100A30000023039323685A6903929B690393039BE2
:100A4000424639462046FFF720FF80B9B9F1010F31
:100A500018D12368F6B21E61424639462046FFF798
:100A600014FF68B3236C042B24D00120DDE7236C32
:100A7000042B01D00120D8E72268136843F40073E7
:100A80001360F7E72368320A1A6142463946204666
:100A9000FFF7FBFE18B92368F6B21E61DCE7236C92
:100AA000042B01D00120C0E72268136843F40073CF
:100AB0001360F7E72268136843F400731360D4E708
:100AC0002268136843F480731360CDF800803B46BE
:100AD00000224FF001112046FFF717FE68B9226887
:100AE0004AF00103136143463A4609492046FFF79D
:100AF00061FE002899D0012097E723681B6813F452
:100B0000807F02D04FF40073236403208DE700BF81
:100B10000200010070B504460D46164623685B6965
:100B200013F0040F21D12046FFF7D6FDF8B9B5F137
:100B3000FF3FF3D001F038F8801BA84201D8002D08
:100B4000ECD123685B6913F0040FE7D10023236322
:100B5000202284F83D2084F83E30226C42F02002AE
:100B6000226484F83C30012000E0002070BD0120A8
:100B7000FCE770B504460D46164614E06FF010020F
:100B80005A6100232363202284F83D2084F83E30FC
:100B9000226C226484F83C30012025E023685B69E4
:100BA00013F0400F10D02368586910F0400F1AD18D
:100BB000586910F0100FE1D100F0F6FF801BA84239
:100BC000ECD8002DEFD1E9E700232363202284F83D
:100BD0003D2084F83E30226C42F02002226484F8EA
:100BE0003C30012000E0002070BD0000002800F033
:100BF000CC8070B5044690F83D30002B77D024238C
:100C000084F83D302268136823F0010313602268E2
:100C1000136843F4004313602268136823F400430D
:100C2000136000F0F5FD62685A4B9A4264D85A4B43
:100C300098428CBF00230123002B40F0A880574925
:100C4000A1FB00318B0C25686A6822F03F0242EA62
:100C500091426A6021680A6A22F03F0266684D4D3F
:100C6000AE424FD8013313430B622168CA6922F4A4
:100C70004F4222F0FF026568464B9D424CD8431E0E
:100C80006D00B3FBF5F3013340F6FC70034278D0FE
:100C9000C3F30B031A43CA6121680B6823F0C00336
:100CA000E269206A024313430B6021688B6823F4D6
:100CB000034323F0FF032269E068024313438B6080
:100CC0002168CB6823F0FF036269A06902431343E4
:100CD000CB602268136843F0010313600020206496
:100CE000202384F83D30206384F83E0070BD80F8F6
:100CF0003C30FFF781FC82E7294B98428CBF0023F0
:100D0000012399E74FF4967505FB03F3254DA5FBE9
:100D100003539B090133A6E7A668BEB9431E05EB42
:100D2000450CB3FBFCF30133C3F30B03B3FA83F3BA
:100D30005B0943BBC6B9431E05EB4505B3FBF5F3A1
:100D40000133C3F30B0343F40043A3E7431E05EB56
:100D5000850C0CEB8C0CB3FBFCF30133C3F30B03DE
:100D6000B3FA83F35B09E4E7431E05EB850505EB66
:100D70008505B3FBF5F30133C3F30B0343F44043A1
:100D800088E7042386E7012384E7012070470120D8
:100D9000ACE700BFA08601007F841E0083DE1B43FA
:100DA000FF083D00D34D62102DE9F04383B00446A7
:100DB0000F46904699460C9E00F0F6FE054694F8C4
:100DC0003D00C0B2202803D0022003B0BDE8F0836C
:100DD0000095192301224B492046FFF796FC002875
:100DE00040F0898094F83C30012B00F0868001238C
:100DF00084F83C3023681A6812F0010F03D11A6896
:100E000042F001021A602268136823F40063136041
:100E1000212384F83D30402384F83E3000232364AE
:100E20000A9B6362BDF82C306385638D2385364B46
:100E3000E362019500964B46424639462046FFF74D
:100E400053FD00285BD1238D002B35D02A46314637
:100E50002046FFF71AFD20BB626A236812781A61E8
:100E6000626A531C6362218D013989B22185638DC9
:100E70009BB2013B9BB263852368586910F0040F55
:100E8000E1D00029DFD052781A61636A01336362CE
:100E9000238D013B2385638D9BB2013B9BB2638510
:100EA000D1E7236C042B01D001208EE72268136860
:100EB00043F400731360F7E72A4631462046FFF7F4
:100EC00029FE50B1236C042B01D001207DE722685C
:100ED000136843F400731360F7E72268136843F460
:100EE00000731360202384F83D30002384F83E30E3
:100EF00084F83C3069E7022067E7022065E70120BB
:100F000063E700BF020010000000FFFF2DE9F0437F
:100F100087B004460F4690469946109E00F044FE66
:100F2000054694F83D00C0B2202804D00227384678
:100F300007B0BDE8F08300951923012288492046B7
:100F4000FFF7E3FB002840F04D8194F83C30012B83
:100F500000F04A81012384F83C3023681A6812F0BB
:100F6000010F03D11A6842F001021A602268136867
:100F700023F400631360222384F83D30402384F877
:100F80003E30002323640E9B6362BDF83C306385D2
:100F9000638D2385734BE362019500964B46424671
:100FA00039462046FFF70CFD0746002840F01E8119
:100FB000238D5BB9029323685A6902929A6902925F
:100FC000029A1A6842F400721A6075E0012B0AD086
:100FD000022B1AD00023059323685A6905929B6956
:100FE0000593059B68E02268136823F4806313600F
:100FF0000023039323685A6903929A690392039A20
:101000001A6842F400721A6056E02268136823F4EA
:10101000806313602268136843F400631360002345
:10102000049323685A6904929B690493049B43E0E8
:101030002A4631462046FFF79CFD002840F0D88024
:1010400023681A69636A1A70636A01336362238DC5
:10105000013B2385638D9BB2013B9BB263852BE0F3
:1010600000953346002240492046FFF74EFB0028FA
:1010700040F0C0802268136843F400731360236853
:101080001A69636A1A70626A531C6362238D013B9A
:101090002385638D9BB2013B9BB2638523681B69EB
:1010A0005370636A01336362238D013B2385638D33
:1010B0009BB2013B9BB26385238D002B00F089809E
:1010C000032B53D8012BB3D0022BC9D00095334644
:1010D000002225492046FFF718FB002840F08C80AD
:1010E0002268136823F48063136023681A69636AB3
:1010F0001A70636A01336362238D013B2385638D1C
:101100009BB2013B9BB26385009533460022164992
:101110002046FFF7FAFA002870D12268136843F4DA
:101120000073136023681A69636A1A70626A531C39
:101130006362238D013B2385638D9BB2013B9BB290
:10114000638523681B695370636A01336362238D6F
:10115000013B2385638D9BB2013B9BB26385ABE76B
:10116000020010000000FFFF040001002A46314683
:101170002046FFF7FEFC002842D123681A69636A03
:101180001A70636A01336362228D013A92B222853A
:10119000638D9BB2013B9BB263852368596911F053
:1011A000040F89D0032A0FD023681A69636A1A7062
:1011B000636A01336362238D013B2385638D9BB298
:1011C000013B9BB2638577E71A6822F480621A605C
:1011D000EAE7202384F83D30002384F83E3084F889
:1011E0003C30A4E60227A2E60227A0E601279EE6FD
:1011F00001279CE601279AE6012798E6012796E653
:10120000012794E6002800F0E08170B582B0044622
:10121000036813F0010F3BD09F4B9B6803F00C0356
:10122000042B2CD09C4B9B6803F00C03082B21D083
:101230006368B3F5803F4FD0B3F5A02F52D0964BE3
:101240001A6822F480321A601A6822F480221A6026
:101250006368002B50D000F0A7FC05468E4B1B683E
:1012600013F4003F14D100F09FFC401B6428F5D913
:101270000320B1E1884B5B6813F4800FD8D0864B14
:101280001B6813F4003F03D06368002B00F09F81BC
:10129000236813F0020F54D07F4B9B6813F00C0FA0
:1012A0003ED07D4B9B6803F00C03082B33D0E368E2
:1012B000002B68D0794B01221A6000F075FC0546BE
:1012C000754B1B6813F0020F54D100F06DFC401BEE
:1012D0000228F5D903207FE16F4A136843F4803375
:1012E0001360B5E76C4B1A6842F480221A601A68E2
:1012F00042F480321A60ABE700F056FC0546664BBC
:101300001B6813F4003FC3D000F04EFC401B642860
:10131000F5D9032060E1604B5B6813F4800FC6D100
:101320005D4B1B6813F0020F03D0E368012B40F004
:101330005081594A136823F0F803216943EAC10335
:101340001360236813F0080F42D063696BB3534BEB
:101350000122C3F8802E00F027FC05464E4B5B6F40
:1013600013F0020F34D100F01FFC401B0228F5D906
:10137000032031E1484A136823F0F803216943EA66
:10138000C1031360DDE7454B00221A6000F00CFC3E
:101390000546414B1B6813F0020FD2D000F004FC4D
:1013A000401B0228F5D9032016E13C4B0022C3F86C
:1013B000802E00F0F9FB0546374B5B6F13F0020FF0
:1013C00006D000F0F1FB401B0228F5D9032003E111
:1013D000236813F0040F77D02F4B1B6C13F0805F42
:1013E00033D1002301932C4B1A6C42F080521A64C3
:1013F0001B6C03F080530193019B0125284B1B6854
:1014000013F4807F23D0A368012B34D0052B38D070
:10141000214B1A6F22F001021A671A6F22F00402A0
:101420001A67A368002B3DD000F0BEFB06461A4B9E
:101430001B6F13F0020F46D100F0B6FB801B41F288
:1014400088339842F3D90320C6E00025D6E7144A32
:10145000136843F48073136000F0A6FB0646104B3C
:101460001B6813F4807FCED100F09EFB801B022806
:10147000F5D90320B0E0084A136F43F00103136766
:10148000CFE7054B1A6F42F004021A671A6F42F059
:1014900001021A67C5E700BF00380240000047425A
:1014A0000070004000F080FB0646524B1B6F13F0AB
:1014B000020F08D000F078FB801B41F2883398427D
:1014C000F3D9032088E0EDB9A369002B00F08380F5
:1014D000484A926802F00C02082A51D0022B17D019
:1014E000454B00221A6600F05FFB0446414B1B6827
:1014F00013F0007F42D000F057FB001B0228F5D903
:10150000032069E03B4A136C23F080531364DBE74C
:10151000394B00221A6600F047FB0546354B1B6825
:1015200013F0007F06D000F03FFB401B0228F5D9E6
:10153000032051E0E369226A1343626A43EA82139B
:10154000A26A5208013A43EA0243E26A43EA0263AA
:10155000284A5360284B01221A6600F025FB0446F6
:10156000244B1B6813F0007F06D100F01DFB001B0D
:101570000228F5D903202FE000202DE000202BE0E9
:10158000012B2BD01B4B5B6803F48001E269914275
:1015900026D103F03F02216A8A4223D1616A47F6CD
:1015A000C0721A40B2EB811F1ED103F44031A26A0F
:1015B0005208013AB1EB024F18D103F07063E26AAE
:1015C000B3EB026F14D1002006E001207047012028
:1015D00002E0012000E0002002B070BD0120FBE726
:1015E0000120F9E70120F7E70120F5E70120F3E703
:1015F0000120F1E7003802400000474208B5264BC1
:101600009B6803F00C03042B41D0082B41D1224BE3
:101610005A6802F03F025B6813F4800F12D01E4B31
:101620005968C1F388111D480023A1FB0001FEF792
:101630004FFE194B5B68C3F3014301335B00B0FB02
:10164000F3F008BD144B5868C0F388104FEA401CF3
:10165000BCEB000C6EEB0E0E4FEA8E1343EA9C635C
:101660004FEA8C11B1EB0C0163EB0E03DB0043EA94
:101670005173C90011EB000C43F1000399020023E0
:101680004FEA8C2041EA9C51FEF722FED1E7034845
:10169000D7E70348D5E700BF0038024040787D0116
:1016A0000024F400002800F09B8070B50D4604462D
:1016B0004F4B1B6803F007038B4208D2CBB24C4A56
:1016C0001370136803F007038B4240F08B8023688C
:1016D00013F0020F17D013F0040F04D0454A93689B
:1016E00043F4E0539360236813F0080F04D0414A99
:1016F000936843F4604393603E4A936823F0F00399
:10170000A1680B439360236813F0010F32D0636824
:10171000012B21D09A1E012A25D9364A126812F0CF
:10172000020F61D033498A6822F0030213438B60B1
:1017300000F03AFA06462F4B9B6803F00C036268F0
:10174000B3EB820F16D000F02FFA801B41F28833E2
:101750009842F0D9032042E0264A126812F4003F72
:10176000E0D101203BE0234A126812F0007FD9D17A
:10177000012034E01E4B1B6803F00703AB4207D97E
:10178000EAB21B4B1A701B6803F00703AB422DD162
:10179000236813F0040F06D0164A936823F4E0532D
:1017A000E1680B439360236813F0080F07D0114AD8
:1017B000936823F46043216943EAC1039360FFF710
:1017C0001DFF0C4B9B68C3F303130B4AD35CD8403B
:1017D0000A4B18600A4B186800F09AF9002070BD97
:1017E000012070470120FAE70120F8E70120F6E721
:1017F000003C0240003802407C360008080000200F
:1018000004000020014B1868704700BF080000204A
:1018100008B5FFF7F7FF044B9B68C3F38223034A25
:10182000D35CD84008BD00BF0038024074360008C1
:1018300008B5FFF7E7FF044B9B68C3F34233034A45
:10184000D35CD84008BD00BF0038024074360008A1
:1018500000230F2B00F2E98070B582B065E0856847
:101860004FEA430E032404FA0EF425EA0405CC687B
:1018700004FA0EF42C438460446824EA02044A68A3
:10188000C2F300129A40224342605CE0DC08083454
:1018900050F8242003F00705AD004FF00F0E0EFAAC
:1018A00005FE22EA0E0E0A69AA4042EA0E0240F83C
:1018B00024205CE0072200E0002202FA0EF22A4314
:1018C00002345A4D45F82420594A94686FEA0C02B4
:1018D00024EA0C054E6816F4801F01D04CEA04057A
:1018E000534CA560E46802EA04054E6816F4001F34
:1018F00001D04CEA04054E4CE560646802EA040538
:101900004E6816F4003F01D04CEA0405484C65606F
:10191000246822404D6815F4803F01D04CEA04024F
:10192000434C226001330F2B7DD801229A400C6872
:1019300004EA020C32EA0404F4D14C6804F0030413
:10194000013C012C8BD94A6802F00302032A09D01A
:10195000C4685D000322AA4024EA02048A68AA40FF
:101960002243C2604A6802F00302022A8ED0046851
:101970004FEA430E032202FA0EF224EA02044A68F6
:1019800002F0030202FA0EF2224302604A6812F4E5
:10199000403FC7D000220192264A546C44F4804450
:1019A0005464526C02F480420192019A9C08A51C76
:1019B0001E4A52F8255003F0030E4FEA8E0E0F22F6
:1019C00002FA0EF225EA02051B4A90423FF474AF78
:1019D00002F5806290421AD002F58062904218D0DF
:1019E00002F58062904216D002F58062904214D0D7
:1019F00002F58062904212D002F58062904210D0CF
:101A000002F5806290423FF455AF082255E701226B
:101A100053E7022251E703224FE704224DE7052254
:101A20004BE7062249E702B070BD7047003801401D
:101A3000003C01400038024000000240002808DB62
:101A40000901C9B200F1604000F5614080F800135F
:101A5000704700F00F000901C9B2014B19547047DB
:101A600014ED00E000B500F00700C0F1070CBCF178
:101A7000040F28BF4FF0040C031D062B0FD9C31E03
:101A80004FF0FF3E0EFA0CF021EA000199400EFAE9
:101A900003FE22EA0E0241EA02005DF804FB002385
:101AA000EEE70000074AD36823F4E0631B041B0C35
:101AB000000200F4E060034343F0BF6343F40033EB
:101AC000D360704700ED00E010B50446054BD868C0
:101AD000C0F30220FFF7C6FF01462046FFF7AEFF26
:101AE00010BD00BF00ED00E00138B0F1807F0BD2E7
:101AF0004FF0E0235861054AF02182F823100020BE
:101B0000986107221A6170470120704700ED00E0DC
:101B100010B504460E4B1A784FF47A73B3FBF2F308
:101B20000C4A1068B0FBF3F0FFF7DEFF68B90F2C2A
:101B300001D901200AE0002221464FF0FF30FFF7D3
:101B4000C3FF054B1C60002000E0012010BD00BF5A
:101B500000000020080000200400002008B50B4B06
:101B60001A6842F400721A601A6842F480621A60BD
:101B70001A6842F480721A600320FFF793FF0F2067
:101B8000FFF7C6FFFEF71CFD002008BD003C024029
:101B9000034A1168034B1B780B441360704700BF66
:101BA0005001002000000020014B1868704700BF62
:101BB0005001002038B50446FFF7F6FF0546B4F1A2
:101BC000FF3F02D0044B1B781C44FFF7EDFF401B86
:101BD000A042FAD338BD00BF00000020026802F125
:101BE0000C0353E8003F23F490730C3242E80031B9
:101BF0000029F3D1026802F1140353E8003F23F0F7
:101C00000103143242E800310029F3D1036B012BA8
:101C100005D0202380F84230002303637047026818
:101C200002F10C0353E8003F23F010030C3242E8AA
:101C300000310029F3D1ECE710B5044602681369BE
:101C400023F44053C1680B431361836802691A434C
:101C500043691A43C3691A430168CB6823F41643E6
:101C600023F00C031343CB600268536923F44073E1
:101C700081690B4353610368314A934206D002F5F0
:101C80008062934202D0FFF7C3FD01E0FFF7D0FD71
:101C9000E369B3F5004F29D00021031849411B180F
:101CA00041F10001C90041EA5371DB001818636873
:101CB0004FEA83024FEA937341F10001FEF708FBFC
:101CC000204AA2FB00314909642303FB11031B01D5
:101CD0003233A2FB03235B0903F0F00202EB011293
:101CE00003F00F03216813448B6010BD002302181A
:101CF00043EB0301121841F10001C90041EA52719E
:101D0000D200101841F10001626892185B41FEF7A1
:101D1000DFFA0C4AA2FB00314909642303FB1103DB
:101D2000DB003233A2FB03235B095A0002F4F87292
:101D300002EB011203F00703216813448B60D4E720
:101D4000001001401F85EB512DE9F04383B005469B
:101D50000E4617469946DDF828802B681C6836EA3F
:101D600004040CBF01240024BC4228D1B8F1FF3F79
:101D7000F3D0FFF719FFA0EB0900404523D8B8F1D5
:101D8000000F22D02B68DA6812F0040FE5D0802E05
:101D9000E3D0402EE1D01A6812F0080FDDD0002405
:101DA00001941A6801925B680193019B2846FFF732
:101DB00015FF08236B6485F84040012000E00020F7
:101DC00003B0BDE8F0830320FAE70320F8E760B32F
:101DD00010B5044690F8413013B3242384F8413001
:101DE0002268D36823F40053D3602046FFF724FF12
:101DF0002268136923F4904313612268536923F026
:101E00002A0353612268D36843F40053D36000204F
:101E10006064202384F8413084F84230606310BD50
:101E200080F84030FEF720FCD7E7012070472DE90D
:101E3000F04182B01E4690F84130DBB2202B56D1E3
:101E400004460D469046002955D00AB901204FE0BE
:101E500000234364212380F84130FFF7A5FE0746A5
:101E6000A4F82480A4F82680A368B3F5805F02D08C
:101E70004FF0000814E023692BB34FF000080FE087
:101E8000202384F84130032032E038F8023B2268F6
:101E9000C3F308035360E28C92B2013A92B2E28437
:101EA000E38C9BB293B100963B46002280212046F2
:101EB000FFF74AFF0028E3D1002DE6D015F8012BEB
:101EC00023685A60E7E7A8460025E9E700963B4605
:101ED000002240212046FFF737FF18B9202384F85D
:101EE000413005E0202384F84130032000E0022047
:101EF00002B0BDE8F0810120FAE70000034AD2F801
:101F0000883043F47003C2F88830704700ED00E079
:101F100010B503460C4A0D490D48006840B10C4805
:101F200000680344521A934206D8094A136010BD50
:101F30000748084C0460F2E700F0DEFC0C23036065
:101F40004FF0FF30F3E700BF000002200004000064
:101F500054010020A802002070B50C46164600254A
:101F600006E0AFF30080214601F8010B01350C4675
:101F7000B542F6DB304670BD70B50C4616460025FE
:101F800004E014F8010BFEF729FA0135B542F8DB3D
:101F9000304670BD4FF0FF3070474FF400534B6038
:101FA00000207047012070470020704700B503886B
:101FB0004FEA430CCCEBE10CB0F902E00EFB0CFC59
:101FC000C3EB211101FB01F10913B0F9043003FB4C
:101FD00001F0801300EBEC20106000EB80008030FB
:101FE00000125DF804FB2DE9F0410446D317B2F569
:101FF000FA3243F1FF3302FB03F0A2FB02C707EB07
:102000004007B4F910004FEAE07E0CFB0EFE00FB27
:1020100007EEACFB00608644B4F90E004FEAE078AE
:1020200000FB03F502FB0855A0FB020845446D04C4
:1020300045EAD035400480194EEB050EB4F90C503A
:102040000EEBC50EB4F90A50EE170CFB06F605FBB5
:102050000766ACFB05C52E444FEA1C2C4CEA066C07
:10206000B4F90850EF1705FB03F302FB0733A5FB98
:10207000025213441B0343EA15532D031CEB050CBA
:1020800043EB262303F50043E288ACFB02C502FBC9
:1020900003556A10EB1753EA650561D0C1F5801549
:1020A0006910ED072D1A61EB0E0E15EB050C4EEBCA
:1020B0000E011CEB050C4EEB0101880140EA9C600F
:1020C0004FEA8C161CEB060C41EB0001890041EA3B
:1020D0009C714FEA8C0C1CEB050C4EEB0101890046
:1020E00041EA9C714FEA8C0040194EEB0101FEF76A
:1020F0009FF80346B4F916604FEAE67C420B42EAC9
:10210000C1424F1306FB07F502FB0C55A6FB026C00
:10211000654402FB05F506FB0755A2FB0626354480
:10212000520E42EAC512B4F914604FEAE67C06FB8F
:1021300001F70CFB0070A6FB03673844F60C46EA77
:1021400040369B1841EB65619B1941EBE041180A51
:1021500040EA0160B4F9123000EB0310BDE8F081F1
:102160000020FBE710B584B08E46B0F818C04FEAE7
:102170004C0C1FFA8CF141F28834029401930092C6
:1021800001237246C069FEF7C1FE00B1012004B010
:1021900010BD10B586B08C461446038B5B0099B217
:1021A0004FF4FA7302930223019305AB00930123CA
:1021B0006246C069FEF7AAFE48B99DF815209DF851
:1021C000143043EA02232380012006B010BD002012
:1021D000FBE710B5044602468821FFF7DAFF00B995
:1021E00010BDA21C8A212046FFF7D3FF0028F7D09C
:1021F000221D8C212046FFF7CCFF0028F0D0A21D25
:102200008E212046FFF7C5FF0028E9D004F108021F
:1022100090212046FFF7BDFF0028E1D004F10A021B
:1022200092212046FFF7B5FF0028D9D004F10C0217
:1022300094212046FFF7ADFF0028D1D004F10E0213
:1022400096212046FFF7A5FF0028C9D004F110020F
:1022500098212046FFF79DFF0028C1D004F112020B
:102260009A212046FFF795FF0028B9D004F1140207
:102270009C212046FFF78DFF0028B1D004F1160203
:102280009E212046FFF785FFAAE700B587B08C4660
:102290008DF81720038B5B0099B242F21073029302
:1022A000012301930DF1170200926246C069FEF707
:1022B0007BFD00B1012007B05DF804FB0323037030
:1022C000002242708370C37003714371704770B510
:1022D00082B0038B763B9BB2012B03D900252846A5
:1022E00002B070BD04460E46012300F12602D02143
:1022F000FFF738FF002843D194F82630582B01D03F
:10230000602B3FD1B622E0212046FFF7BEFF002818
:102310003AD101230DF10702F3212046FFF722FFF6
:102320000028F6D19DF8073013F0010FF1D12046B7
:10233000FFF74FFF05460028D1D0737972789200DD
:1023400042EA431202F0FC02F5212046FFF79DFF0E
:10235000E0B93378012B10D0F278B3789B0043EAD0
:1023600042135BB232781A43D2B2F4212046FFF70F
:102370008CFF0028B3D00025B1E700233370EBE7D2
:102380000025ACE70025AAE70025A8E70025A6E779
:10239000F0B585B004460F461646062302AAF7217B
:1023A000FFF7E0FE10B1002005B0F0BD9DF8083049
:1023B0009DF809502D0145EA03359DF80A3045EA9C
:1023C00013159DF80B209DF80C301B0143EA0233D6
:1023D0009DF80D1001AA43EA11112046FFF7E6FD12
:1023E0003860019A29462046FFF7FDFD3060012044
:1023F000DAE70000DFF834D0FFF780FD0C480D4924
:102400000D4A002302E0D458C4500433C4188C424F
:10241000F9D30A4A0A4C002301E013600432A242B5
:10242000FBD300F06FFAFEF771F87047000002204E
:102430000000002068000020D0360008680000205E
:10244000A4020020FEE70000002310B50446C0E906
:102450000033C0E90433836081814366C2818361B4
:10246000194608225C3000F0F9F90D4B63620D4B00
:10247000A3620D4BE3620D4B23630D4B24629C4220
:1024800006D003F16802944202D0D0339C4205D1B9
:1024900004F15800BDE8104000F058BA10BD00BF6C
:1024A000AD260008CF260008072700082B270008C4
:1024B00058010020024A0349034800F069B800BFF0
:1024C0000C000020E93100081C00002041680C4B82
:1024D000994210B5044601D000F086FEA168094B70
:1024E000994202D0204600F07FFEE168064B9942F7
:1024F00004D02046BDE8104000F076BE10BD00BFFD
:1025000058010020C00100202802002010B50B4B0C
:102510000B4C0C4A1A60204600220421FFF794FF5E
:1025200004F1680001220921FFF78EFF04F1D000B9
:102530000222BDE810401221FFF786BF9002002062
:1025400058010020B5240008014800F000BA00BF7F
:1025500099020020014800F0FBB900BF9902002059
:1025600010B50446FFF7F0FF236A1BB1BDE8104029
:10257000FFF7F0BF044B2362044B1B68002BF5D11F
:10258000FFF7C4FFF2E700BFCD240008900200204F
:102590002DE9F8430746884614460026D4E90195FC
:1025A000B9F1010905D52468002CF7D13046BDE802
:1025B000F883AB89012B07D9B5F90E30013303D06D
:1025C00029463846C04706436835E9E70FB407B5E2
:1025D000064904AB086853F8042B8168019300F0A6
:1025E000DBFA03B05DF804EB04B07047180000207C
:1025F000036A70B5846805460E460BB9FFF7B0FF55
:10260000636EDB0705D4A389980502D4A06D00F0A2
:102610009EF9A389190702D52369002B35D12146DC
:10262000284600F0C5F880B34FF0FF35636EDA0737
:1026300005D4A3899B0502D4A06D00F089F9284632
:1026400070BD002B04DAA2699A4217DC0A2915D062
:1026500023685A1C22601970A36816F8011F013BF9
:10266000A3600029EDD1002B11DA22460A21284669
:1026700000F05FF80130D7D00A25D7E72246284678
:1026800000F057F80130E7D1CEE7013EE4E72368D8
:102690005A1C22600A221A70EEE70000024B014623
:1026A0001868FFF7A5BF00BF1800002010B50C4642
:1026B000B1F90E1000F0FCF80028ABBF636DA389E0
:1026C0001B1823F48053ACBF6365A38110BD2DE9B3
:1026D000F0411F468B89DB0505460C46164605D59D
:1026E000B1F90E100223002200F0D0F8A389B4F94A
:1026F0000E1023F48053A38132463B462846BDE8A2
:10270000F04100F0E7B810B50C46B1F90E1000F03A
:10271000BDF8431CA38915BF606523F4805343F4BF
:102720008053A38118BFA38110BDB1F90E1000F032
:102730009DB8F8B50E461446054618B1036A0BB9A4
:10274000FFF70EFFA369A360A3891A0701D52369C8
:1027500043B92146284600F02BF818B14FF0FF3757
:102760003846F8BD23682269981A6369F6B2834235
:10277000374605DC2146284600F036FD0028EDD11D
:10278000A368013BA36023685A1C22601E70626923
:10279000431C9A4204D0A389DB07E1D50A2EDFD17E
:1027A0002146284600F020FD0028D9D0D6E70000B9
:1027B00038B5294B054618680C4618B1036A0BB9A1
:1027C000FFF7CEFEB4F90C30190722D4DA0607D48D
:1027D00009222A6043F04003A3814FF0FF3033E029
:1027E000580712D5616B41B104F14403994202D0FC
:1027F000284600F0AFF800236363A38923F0240385
:10280000A3810023636023692360A38943F0080345
:10281000A38123694BB9A38903F42073B3F5007F27
:1028200003D02146284600F02DFDB4F90C3013F0FA
:1028300001020AD00022A26062695242A2612269AA
:1028400042B913F08000C5D138BD990758BF6269FD
:10285000A260F4E70020F7E71800002002440346D6
:10286000934200D1704703F8011BF9E738B5064DD4
:102870000023044608462B60FFF78CFB431C02D163
:102880002B6803B1236038BD9402002038B5074D92
:1028900004460846114600222A601A46FFF784FBC8
:1028A000431C02D12B6803B1236038BD9402002081
:1028B00038B5074D04460846114600222A601A46DC
:1028C000FFF74AFB431C02D12B6803B1236038BDDC
:1028D0009402002038B5074D0446084611460022F0
:1028E0002A601A46FFF748FB431C02D12B6803B14C
:1028F000236038BD94020020014B1868704700BF68
:102900001800002070B50D4D0D4C641BA41000265E
:10291000A64209D10B4D0C4C00F080FE641BA410A4
:102920000026A64205D170BD55F8043B98470136F4
:10293000EEE755F8043B98470136F2E7C836000841
:10294000C8360008C8360008CC3600087047704703
:102950007047000038B50546002941D051F8043CC5
:102960000C1F002BB8BFE41800F0E0F81D4A1368F4
:1029700033B9636014602846BDE8384000F0DCB825
:10298000A34208D9206821188B4201BF19685B68EF
:1029900009182160EDE71A465B680BB1A342FAD92A
:1029A00011685018A0420BD120680144501883428E
:1029B0001160E0D118685B68536008441060DAE782
:1029C00002D90C232B60D6E7206821188B4204BF64
:1029D00019685B68636004BF091821605460CAE726
:1029E00038BD00BFA002002070B50F4E0C46316804
:1029F000054611B900F0A4FC30602146284600F0DD
:102A00009FFC431C03D14FF0FF34204670BDC41C13
:102A100024F00304A042F8D0211A284600F090FCCC
:102A20000130F2D1EFE700BF9C0200202DE9F8430E
:102A3000CD1C25F0030508350C2D38BF0C25002DC5
:102A4000064601DBA94204D90C2333600020BDE80F
:102A5000F883DFF8D48000F069F8D8F800301C461D
:102A600044BB29463046FFF7BFFF431C044658D1FC
:102A7000D8F800402746002F43D1002C4BD02368C4
:102A80003946304604EB030900F05AFC814542D137
:102A900021686D1A29463046FFF7A6FF01303AD06B
:102AA00023682B442360D8F800305A6862BBC8F80A
:102AB00000700FE02268521B20D40B2A17D961192D
:102AC000A342256018BF5960636808BFC8F80010AA
:102AD00062514B60304600F02FF804F10B00231DCB
:102AE00020F00700C21A1CBF1B1AA350AFE7626890
:102AF000A3420CBFC8F800205A60EBE72346646885
:102B0000AEE73C467F68B6E71A465B68A342FBD156
:102B100000235360DEE70C233360304600F00CF8EE
:102B200094E70560D6E700BFA00200200148FFF748
:102B30000EBF00BF980200200148FFF709BF00BF89
:102B4000980200209368013B002B10B4936008DAD0
:102B50009469A34201DB0A2903D15DF8044BFFF716
:102B6000E8BD1368581C1060197008465DF8044BE6
:102B70007047F8B506460F461446D518AC4201D149
:102B8000002007E014F8011B3A463046FFF7DAFF51
:102B9000431CF3D1F8BD00002DE9F04F0D469DB068
:102BA00014469846064618B1036A0BB9FFF7D8FCDD
:102BB0006B6ED90705D4AB899A0502D4A86DFFF7CF
:102BC000C6FEAB891B0701D52B699BB92946304648
:102BD000FFF7EEFD70B16B6EDC0704D54FF0FF30F0
:102BE0001DB0BDE8F08FAB899805F7D4A86DFFF74D
:102BF000AFFEF3E70023099320238DF82930CDF8A9
:102C00000C803023DFF8AC818DF82A304FF00109B9
:102C100023469A4613F8012B0AB1252AF9D1BAEBBB
:102C2000040B0BD05B46224629463046FFF7A1FF36
:102C3000013000F0A780099A5A4409929AF80030AE
:102C4000002B00F09F8000234FF0FF32CDE90523D9
:102C50000AF1010A049307938DF853301A935446EE
:102C6000052214F8011B5348FDF792FA049AD8B9CB
:102C7000D10644BF20238DF85330130744BF2B23C4
:102C80008DF853309AF800302A2B15D0079A544605
:102C900000204FF00A0C214611F8013B303B092B74
:102CA0004BD9B0B1079214E0A0EB080309FA03F383
:102CB00013430493A246D2E7039B191D1B6803919B
:102CC000002BBBBF5B4242F0020207930793B8BFE1
:102CD000049223782E2B0AD163782A2B32D1039BBE
:102CE0001A1D1B68039243EAE37302340593DFF86D
:102CF000D4A0217803225046FDF74AFA38B1049B4C
:102D0000A0EB0A004022824013430134049314F8DC
:102D1000011B29488DF828100622FDF739FA0028F2
:102D20003FD0264B1BBB039B073323F0070308331D
:102D30000393099B3B4409936AE70CFB02320C4660
:102D40000120A8E700230134059319464FF00A0C2F
:102D5000204610F8012B303A092A03D9002BC6D09F
:102D60000591C4E70CFB012104460123F0E703AB06
:102D700000932A46124B04A93046AFF30080074661
:102D8000781CD6D16B6ED90705D4AB899A0502D4CD
:102D9000A86DFFF7DDFDAB895B063FF51FAF099816
:102DA0001EE703AB00932A46054B04A9304600F00A
:102DB00079F8E4E78C360008963600080000000039
:102DC000732B0008923600082DE9F0471646984606
:102DD0008A680B69DDF820909342B8BF13463360D0
:102DE00091F8432007460C460AB10133336023684B
:102DF000990642BF336802333360256815F0060533
:102E000006D104F1190AE36832689B1AAB4226DC4A
:102E100094F843302268003B18BF012392062BD45C
:102E200004F1430241463846C84701301ED02368AA
:102E3000226903F00603042B02BFE5683368ED1A2C
:102E4000A3680CBF25EAE57500259342C4BF9B1A11
:102E5000ED1800261A34B5421AD1002008E00123EB
:102E6000524641463846C847013003D14FF0FF3043
:102E7000BDE8F0870135C6E7E1185A1C302081F81B
:102E80004300224494F8451082F843100233C7E708
:102E90000123224641463846C8470130E6D0013674
:102EA000D9E700002DE9FF470F7E0C9E782F914651
:102EB00080460C469A4601F1430207D8622F0AD891
:102EC000002F00F0D180582F00F0B88004F14206A6
:102ED00084F842703AE0A7F16303152BF6D801A1FC
:102EE00051F823F03D2F0008512F0008CD2E000887
:102EF000CD2E0008CD2E0008CD2E0008512F000841
:102F0000CD2E0008CD2E0008CD2E0008CD2E0008B5
:102F10004F3000087B2F000809300008CD2E000834
:102F2000CD2E000871300008CD2E00087B2F000840
:102F3000CD2E0008CD2E00081130000833681A1D70
:102F40001B68326004F1420684F8423001239CE0A1
:102F500033682068191D3160060601D51D6803E03D
:102F60004506FBD5B3F90050002D03DA2D236D4241
:102F700084F8433058480A2311E021683368080672
:102F800053F8045B02D4490648BFADB26F2F5248D4
:102F9000336014BF0A230823002184F843106668B5
:102FA000A660002E05DB21682E4321F0040121607C
:102FB0004BD01646B5FBF3F103FB1157C75D06F87E
:102FC000017D2F46BB420D46F4D9082B0BD1236857
:102FD000DF0708D5236961689942DEBF302306F810
:102FE000013C06F1FF36921B2261CDF800A04B4652
:102FF00003AA21464046FFF7E7FE01304AD14FF0D1
:10300000FF3004B0BDE8F087236843F0200323605D
:103010003248782784F84570236831681F0651F8D4
:10302000045B02D45F0648BFADB23160D90744BF2C
:1030300043F0200323601DB11023ADE72648E9E7E4
:10304000236823F020032360F6E71646BDE73368C4
:1030500025686169181D30602E061B6801D519604E
:1030600002E06806FBD51980002323611646BCE701
:1030700033681A1D32601E68626800213046FDF711
:1030800087F808B1801B606063682361002384F8BF
:103090004330AAE72369324649464046D0470130CB
:1030A000ADD023689B0713D4E068039B9842B8BF58
:1030B0001846A6E70123324649464046D04701302C
:1030C0009DD00135E36803995B1AAB42F2DCEBE774
:1030D000002504F11906F5E79D360008AE36000814
:1030E000B1F90C202DE9F041160705460C4654D4E1
:1030F0004B68002B02DC0B6C002B48DDE66A002ECF
:1031000045D0002312F480522F68216A2B6030D002
:10311000626DA389590705D56368D21A636B0BB139
:10312000236CD21A0023E66A216A2846B047431C62
:10313000A38906D129681D292BD82A4ACA40D60757
:1031400027D500226260D9042269226004D5421C7E
:1031500001D12B6803B96065616B2F60B9B104F1CF
:103160004403994202D02846FFF7F4FB002363632F
:103170000DE001232846B0470246501CC9D12B68F8
:10318000002BC6D01D2B01D0162B1ED12F60002086
:1031900022E043F040031BB21BE00F69002FF6D082
:1031A00093070E6808BF4B690F6018BF0023A6EB9A
:1031B00007088B60B8F1000FE9DD216AA66A434673
:1031C0003A462846B047002808DCB4F90C3043F0F2
:1031D0004003A3814FF0FF30BDE8F0810744A8EB26
:1031E0000008E7E70100402038B50B6905460C46AA
:1031F00013B90025284638BD18B1036A0BB9FFF78B
:10320000AFF9B4F90C30002BF3D0626ED00704D4C0
:10321000990502D4A06DFFF79AFB28462146FFF7D7
:103220005FFF636EDA070546E4D4A3899B05E1D40A
:10323000A06DFFF78DFBDDE770B50C46B1F90E1000
:10324000002996B015461E460DDAA38913F0800FAB
:103250004FF0000114BF40234FF480630020316021
:103260002B6016B070BD6A4600F048F80028ECDB11
:10327000019901F47041A1F50053594259414FF4AD
:103280008063EBE78B89F7B59D0706460C4607D5AB
:1032900004F14703236023610123636103B0F0BDA0
:1032A00001AB6A46FFF7C8FF009F05463946304626
:1032B000FFF7BCFB48B9B4F90C309A05EED423F003
:1032C000030343F00203A381E2E7A389206043F0F4
:1032D0008003A381019BC4E904075BB1B4F90E101C
:1032E000304600F01DF828B1A38923F0030343F012
:1032F0000103A381A3891D43A581CFE738B5074DFD
:1033000000230446084611462B60FEF746FE431C88
:1033100002D12B6803B1236038BD00BF94020020A6
:1033200038B5064D0023044608462B60FEF73AFEEA
:10333000431C02D12B6803B1236038BD94020020E6
:1033400038B5064D0023044608462B60FEF7E0FD25
:10335000431C02D12B6803B1236038BD94020020C6
:103360002DE9F047089D0E4604460F46002B4AD132
:1033700094468C45B2FA82F260D942B1C2F1200380
:10338000974020FA03F30CFA02FC1F4394404FEAE3
:103390001C4E1FFA8CF6B7FBFEF1230C0EFB1177C7
:1033A00043EA074301FB06F098420AD91CEB0303EA
:1033B00001F1FF3780F01581984240F21281023905
:1033C00063441B1AA4B2B3FBFEF00EFB103344EAB5
:1033D000034400FB06F6A6420AD91CEB040400F1E4
:1033E000FF3380F00081A64240F2FD806444023841
:1033F00040EA0140A41B00211DB1D4400023C5E9CF
:103400000043BDE8F0878B4205D90DB1C5E9000145
:1034100000210846F5E7B3FA83F1002946D1B3420B
:1034200002D3824200F2F580841A66EB0302012087
:103430001746002DE5D0C5E90047E2E7002A40F035
:103440009380A1EB0C034FEA1C471FFA8CFE01216D
:10345000B3FBF7F607FB1630230C43EA00430EFBE1
:1034600006F0984208D91CEB030306F1FF3802D29C
:10347000984200F2D08046461B1AA4B2B3FBF7F084
:1034800007FB103344EA03440EFB00FEA64508D9AF
:103490001CEB040400F1FF3302D2A64500F2B68013
:1034A0001846A4EB0E0440EA0640A5E7C1F1200748
:1034B0008B4022FA07FC4CEA030C06FA01FE20FAC4
:1034C00007F426FA07F344EA0E0400FA01F84FEA7B
:1034D0001C404FEA1449B3FBF0FE1FFA8CF600FBC8
:1034E0001E3349EA03430EFB06F9994502FA01F23D
:1034F0000BD91CEB03030EF1FF3A80F08580994550
:1035000040F28280AEF1020E6344A3EB0909A4B23B
:10351000B9FBF0F300FB139944EA094403FB06F6F8
:10352000A64208D91CEB040403F1FF3068D2A6427E
:1035300066D9023B644443EA0E40A41BA0FB02E6AA
:10354000B4427346B14652D34FD05DB1B8EB0302DB
:1035500064EB090404FA07F722FA01F31F43CC4095
:10356000C5E9007400214CE7C2F1200120FA01F303
:103570000CFA02FC26FA01F1964033434FEA1C474D
:103580001FFA8CFEB1FBF7F007FB1016190C41EA8D
:10359000064100FB0EF68E4204FA02F408D91CEB39
:1035A000010100F1FF382DD28E422BD9023861443F
:1035B000891B9BB2B1FBF7F607FB161143EA0143E7
:1035C00006FB0EF1994208D91CEB030306F1FF3804
:1035D00014D2994212D9023E63445B1A46EA004172
:1035E00036E73946EDE6184602E7F045ADD2BEEBC8
:1035F000020366EB0C060138B146A6E74646ECE747
:10360000034698E74046D3E7D6467EE7644402384F
:1036100047E708460DE7023E63442DE7F8B500BFD3
:10362000F8BC08BC9E467047F8B500BFF8BC08BCA3
:043630009E467047FB
:1036340054656D70657261747572653A20256C64A9
:103644002E2530326C6420C2B0430A005072657378
:10365400737572653A20256C642E2530326C6420B3
:103664006850610A000000004661696C6400000053
:10367400000000000102030400000000000000003C
:103684000102030406070809232D302B2000686C6F
:103694004C00656667454647003031323334353671
:1036A40037383941424344454600303132333435AA
:0C36B400363738396162636465660000D7
:0836C000D0CAFF7F01000000E9
:0436C8006D03000886
:0436CC0045030008AA
:1036D00001000000100000000024F40000000000C1
:1036E00003000000580100201C0000200000000022
:1036F00058010020C0010020280200200000000026
:1037000000000000000000000000000000000000B9
:1037100000000000000000000000000000000000A9
:103720000000000000000000000000000000000099
:08373000000000000000000091
:04000005080023F5D7
:00000001FF
